:10000000FC7F0020512800004928000049280000FA
:10001000492800004928000049280000492800001C
:10002000492800004928000049280000492800000C
:1000300049280000492800004928000049280000FC
:1000400049280000492800004928000049280000EC
:1000500049280000E927000049280000492800003D
:1000600049280000492800004928000049280000CC
:1000700049280000492800004928000049280000BC
:1000800049280000492800004928000049280000AC
:10009000492800004928000049280000492800009C
:1000A000492800004928000049280000492800008C
:1000B000492800004928000049280000492800007C
:1000C000492800004928000049280000492800006C
:1000D000492800004928000049280000492800005C
:1000E000492800004928000049280000492800004C
:1000F000492800004928000049280000492800003C
:10010000492800004928000049280000492800002B
:10011000492800004928000049280000492800001B
:10012000492800004928000049280000492800000B
:1001300049280000492800004928000049280000FB
:1001400049280000492800004928000049280000EB
:1001500049280000492800004928000049280000DB
:1001600049280000492800004928000049280000CB
:1001700049280000492800004928000049280000BB
:1001800049280000492800004928000049280000AB
:10019000492800004928000049280000492800009B
:1001A000492800004928000049280000492800008B
:1001B000492800004928000049280000492800007B
:1001C000492800004928000049280000492800006B
:1001D000492800004928000049280000492800005B
:1001E000492800004928000049280000492800004B
:1001F000492800004928000049280000492800003B
:10020000492800004928000049280000492800002A
:10021000492800004928000049280000492800001A
:10022000492800004928000049280000492800000A
:1002300049280000492800004928000049280000FA
:1002400049280000492800004928000049280000EA
:1002500049280000492800004928000049280000DA
:10026000492800004928000049280000000000003B
:1002700040F21707C0F200077F1EFDD100BF00BF8C
:1002800000BF00BF7047FFFF81B000235BB205498C
:100290000B6005490870054A1360012149B21160DD
:1002A00001B070479C7F4C42FCD30340907F4E428C
:1002B00081B0CDF800E0002410B401F0BFFD01B022
:1002C000DDF800E001B0704781B001235BB2054961
:1002D0000B6005490870002252B204490A600B60A5
:1002E00001B070479C7F4C42FCD30340907F4E424C
:1002F00081B0CDF800E0002464B20B4B1C600122F9
:1003000052B20A490A600A490A600A4908700A4951
:100310000C600A601A60FFF7ABFFFFF7A9FFDDF87A
:1003200000E001B0704700BF987F4E42947F0C42BE
:100330009C7F4C42FCD30340907F4E4281B0CDF86D
:1003400000E0FFF795FFFFF793FF002464B2094B2D
:100350001C60012252B208490A6008490C60084931
:10036000087008490C600A601A60DDF800E001B00E
:10037000704700BF987F4E42947F0C429C7F4C4256
:10038000FCD30340907F4E424DF2BE47C0F20107BE
:100390007F1EFDD100BF00BF00BF00BF00BF00BF78
:1003A0007047FFFF81B0874900EA0101084639E143
:1003B0008549096841F0010283490A6083490A6856
:1003C0006FF001010A4081490A6087E17E490968AE
:1003D00041F001027C490A607C49096841F0010250
:1003E0007A490A607AE17849096841F0020276495F
:1003F0000A6076490A686FF002010A4073490A6090
:100400006CE17149096841F002026F490A606F4965
:10041000096841F002026D490A605FE16A490968B2
:1004200041F0040268490A6068490A686FF00401F3
:100430000A4066490A6051E16349096841F00402D3
:1004400061490A606149096841F004025F490A6034
:1004500044E15D49096841F008025B490A605B4973
:100460000A686FF008010A4058490A6036E15649A7
:10047000096841F0080254490A605449096841F08A
:10048000080252490A6029E14F49096841F0100207
:100490004D490A604D490A686FF010010A404B4906
:1004A0000A601BE14849096841F0100246490A60A8
:1004B0004649096841F0100244490A600EE1424988
:1004C000096841F0200240490A6040490A686FF01B
:1004D00020010A403D490A6000E13B49096841F0BA
:1004E000200239490A603949096841F02002374938
:1004F0000A60F3E03449096841F0400232490A6079
:1005000032490A686FF040010A4030490A60E5E06C
:100510002D49096841F040022B490A602B490968BE
:1005200041F0400229490A60D8E02749096841F0B2
:10053000800225490A602549096801F07F022349A4
:100540000A60CBE02049096841F080021E490A6038
:100550001E49096841F080021C490A60BEE01A4940
:10056000096841F4807218490A6018490A686FF4F2
:1005700080710A4015490A60B0E01349096841F4E6
:10058000807211490A601149096841F480720F496B
:100590000A60A3E00C49096841F400720A490A6044
:1005A0000A49096841F4007208490A6096E0064960
:1005B000096841F4806204490A600449096841F409
:1005C000806205E000F0FFFF08E60F406CE00F409E
:1005D00043490A6082E04349096841F400624149A5
:1005E0000A603F49096841F400623D490A6075E0CC
:1005F0003C49096841F480523A490A60384909681F
:1006000041F4805236490A6068E03649096841F48D
:10061000005234490A603249096841F400523049B5
:100620000A605BE0B0F1402F3FF4C2AE2E49884231
:100630003FF4CCAE2D4988423FF4D5AE2C498842D8
:100640003FF4DFAE2B4988423FF4E8AE2A498842A6
:100650003FF4F2AE294988423FF4FBAE2849884274
:100660003FF405AF274988423FF40EAF2649884240
:100670003FF418AF254988423FF421AF244988420E
:100680003FF42BAF234988423FF434AF22498842DC
:100690003FF43EAF214988423FF447AF20498842AA
:1006A0003FF450AF1F4988423FF459AF1E4988427A
:1006B0003FF463AF1D4988423FF46CAF1C49884248
:1006C0003FF475AF1B4988423FF485AF1A49884211
:1006D0003FF48EAF194988423FF497AF01B070479D
:1006E0006CE00F4008E60F400080054000500040DD
:1006F000009005400060004000A0054000700040F0
:1007000000B005400040024000C0054000500240DB
:1007100000D005400060024000E00540007002404B
:1007200000F0054000D003400000064000100640E5
:1007300000200640003006400040064000500640C1
:1007400082B0CDF800E08DF8041000235BB2094AB6
:100750001360094C2468A0479DF80400074C2468E6
:10076000A04701235BB2034A1360DDF800E002B04A
:10077000704700BF987F4E425C030020600300205A
:1007800085B0CDF800E0154D0346002922D904AC10
:100790000193ADF80810039522461846104C2468C2
:1007A000A047039DBDF80810019B04460020BDF83A
:1007B0001020904206D222782A706D1C641C401CC6
:1007C00080B2F4E7BDF81020891A89B2BDF8102074
:1007D0009B18DAE7DDF800E005B070474803002019
:1007E0005403002082B0CDF800E0ADF804200AB236
:1007F00001B2BDF80400002904DB134B1B889942A9
:1008000000D200E01BE0002A04DB104B1B889A4258
:1008100000D200E013E0002464B20D4B1C60ADF880
:10082000040088B291B20B4C2468A047BDF80400C4
:10083000094C2468A047012464B2054B1C60DDF814
:1008400000E002B0704700BF3603002038030020EC
:10085000987F4E423C03002040030020FFFFFFFF33
:100860004AF67F17C0F203077F1EFDD100BF00BF0D
:1008700000BF00BF7047FFFF81B0CDF800E047F236
:100880000040C4F202004FF001014FEA411140F272
:1008900040130122C9B2FFF70BFD002149B22B48DA
:1008A000016046F20040C4F202004FF001014FEA3D
:1008B000C11140F240130122C9B2FFF7F9FC012136
:1008C00049B22348016047F20040C4F202004FF0F1
:1008D00001014FEA811140F240130122C9B2FFF732
:1008E000E7FC012149B21B48016046F20040C4F216
:1008F00000004FF001014FEA411140F24013012284
:10090000C9B2FFF7D5FC47F20040C4F202004FF035
:1009100001014FEA011140F240130122C9B2FFF771
:10092000C7FC012149B20C4801600C4801604DF23E
:100930000040C4F2030040F240130122FF21FFF700
:10094000B7FCDDF800E001B0704700BF947F4E4275
:100950009C7F4C42987F4E42947F0C42907F4E4247
:1009600049F6FF67C0F224077F1EFDD100BF00BF1C
:1009700000BF00BF7047FFFFADF2282DCDF800E0AB
:10098000ADF81C02ADF820128DF82432951C2C789D
:10099000ADF80A406E1C34782502ADB2BDF80A40AD
:1009A0006419ADF80A40751C2C78ADF808406E1C2F
:1009B00034782502ADB2BDF808406419ADF808409E
:1009C000741C8594BDF81C52524C2488641BADF8ED
:1009D0000E40BDF82052504C2488641BADF81040E6
:1009E00040F2000A1FFA8AF0B0F5807F19D205AEF6
:1009F00044003519859C24782C80859C651C859540
:100A0000440036192C782502ADB23488641934803C
:100A1000859C641C8594441C1FFA84FA1FFA8AF092
:100A2000E2E700256DB23D4C25600024ADF80C4096
:100A3000BDF80A50BDF80C40AC4280F06280859C45
:100A40008694BDF81050BDF80C40AC4253D8324CDF
:100A50002588BDF82042AC424DD200248DF81340C9
:100A60009DF824529DF81340AC4244D2869C859454
:100A7000BDF82012BDF81C02294C2468A0470020B4
:100A8000BDF80840A0422BD2859C247805AD6400B7
:100A90002C192488ADF80640859C641C8594BDF80B
:100AA0000E40A04218D800248DF812409DF8245220
:100AB0009DF81240AC420ED2ADF80400BDF806001D
:100AC000184C2468A047BDF804009DF81240641C2F
:100AD0008DF81240EAE7FFE7441CA1B288B2CFE7E5
:100AE000BDF82042641CADF820429DF81340641C00
:100AF0008DF81340B4E7BDF80C40641CADF80C4011
:100B000096E701256DB2054C2560DDF800E00DF299
:100B1000282D70473603002038030020987F4E426E
:100B20003C030020400300208AB0CDF800E0ADF87F
:100B30001C00ADF820108DF82430951C2C78ADF8F1
:100B400008406E1C34782502ADB2BDF80840641927
:100B5000ADF80840751C2C78ADF806406E1C347852
:100B60002502ADB2BDF806406419ADF80640741C0C
:100B70000594BDF81C50444C2488641BADF810400B
:100B8000BDF82050414C2488641BADF8124000256C
:100B90006DB23F4C25600024ADF80A40BDF8085006
:100BA000BDF80A40AC4280F06780059C0694BDF811
:100BB0001250BDF80A40AC4258D8344C2588BDF8D4
:100BC0002040AC4252D200248DF80F409DF82450B2
:100BD0009DF80F40AC4249D2069C0594BDF8201008
:100BE000BDF81C002B4C2468A0470020BDF806402F
:100BF000A04230D2059C2478ADF80C40059C661CC0
:100C000034782502ADB2BDF80C406419ADF80C4043
:100C1000741C0594BDF81040A04218D800248DF82B
:100C20000E409DF824509DF80E40AC420ED2ADF817
:100C30000400BDF80C00184C2468A047BDF804005F
:100C40009DF80E40641C8DF80E40EAE7FFE7441C57
:100C5000A1B288B2CAE7BDF82040641CADF82040BC
:100C60009DF80F40641C8DF80F40AFE7BDF80A40B7
:100C7000641CADF80A4091E701256DB2044C256073
:100C8000DDF800E00AB0704736030020380300208A
:100C9000987F4E423C0300204003002081B0012198
:100CA00049B204480160044801600448016001B091
:100CB000704700BF0006184220061842240618425A
:100CC0008BB0CDF800E040F20001ADF82610002115
:100CD0008DF82810AF490988884200D256E1AE4904
:100CE0000988884200D951E1AA490988411A89B284
:100CF0008A0092B2A9490968083189180846042176
:100D0000FFF73EFDA64803788DF82430411C097892
:100D1000CAB2811C0978090289B25218C11C09782B
:100D2000090489B252189D49096889180491DA08A2
:100D3000D2B29C490988514389B206919DF824108A
:100D400001F00701C9B221B196490A8806998918AC
:100D500006910699089105AC224606990498924C92
:100D60002468A0470446059A049989180491059AB5
:100D70000699891A0691002107918C490978002962
:100D800040F082808A490988ADF80A1000218DF868
:100D9000091084490A889DF80910914280F06E80FC
:100DA00084490988ADF8261000218DF80C10002127
:100DB0008DF808109DF824209DF80810914252D219
:100DC0009DF80C1059BB0799491C0791089A059981
:100DD00091421AD2059A0799914214D9012107919B
:100DE00005AC2246069904986F4C2468A047044637
:100DF00006990891059A049989180491059A06990B
:100E0000891A0691FFE7204600E0204601788DF818
:100E10002810441C01218DF80C10204600E02046CB
:100E20009DF80C209DF828101140C9B251B16249BB
:100E3000098801908AB2BDF80A10BDF82600FFF7B4
:100E4000D1FC0198BDF82610491CADF826109DF87C
:100E50000C1049008DF80C109DF80810491C8DF8F5
:100E600008100446A6E7BDF80A10491CADF80A10A0
:100E70009DF80910491C8DF809108AE7BDF8261065
:100E80004A1C4C490A8081E04A490988ADF80A1099
:100E900000218DF8091043490A889DF809109142F4
:100EA00080F06F8042490988ADF8261000218DF846
:100EB0000C1000218DF808109DF824209DF80810D2
:100EC000914253D29DF80C1061BB0799491C0791C0
:100ED000089A059991421AD2059A0799914214D914
:100EE0000121079105AC2246069904982E4C2468EE
:100EF000A047044606990891059A04998918049117
:100F0000059A0699891A0691FFE7204600E02046D7
:100F100001788DF82810411C0C4601218DF80C1029
:100F2000204600E020469DF80C209DF82810114036
:100F3000C9B251B12049098801908AB2BDF8261082
:100F4000BDF80A00FFF74EFC0198BDF82610491EB7
:100F5000ADF826109DF80C1049008DF80C109DF886
:100F60000810491C8DF808100446A5E7BDF80A10C2
:100F7000491CADF80A109DF80910491C8DF809109C
:100F800089E7BDF826104A1E09490A80DDF800E00D
:100F90000BB07047260300203003002044030020DC
:100FA00048030020320300205403002005000020E5
:100FB0003A030020520300203403002082B0ADF831
:100FC0000400012676B209490E6001AD691C09785A
:100FD000074C217000235BB2064A13601660297823
:100FE00021701360166002B0704700BF9C7F4C42B6
:100FF000FCD30340907F4E4281B0044A116801B196
:10100000FBE70349086001B0704700BF14032642A4
:101010000030014081B0CDF800E085B2E90AC8B2E5
:10102000C100CEB2F109C9B2012902D1F11DC8B285
:1010300000E0F0B2FFF75CF96909C8B28100CEB2F6
:10104000F109C9B2012902D1F11CC8B200E0F0B225
:10105000FFF74EF9E900CDB2E909C9B2012902D181
:10106000E91DC8B200E0E8B2FFF742F9DDF800E0A0
:1010700001B0704793B0CDF800E0ADF840001046E5
:10108000ADF844108DF84830851C2C78ADF806403A
:101090006E1C34782502ADB2BDF806406419ADF877
:1010A0000640751C2C78ADF804406E1C347825027F
:1010B000ADB2BDF804406419ADF80440741C0E9440
:1010C000BDF840505F4C2488641BADF80E40BDF85D
:1010D00044505D4C2488641BADF8104040F2000B76
:1010E0001FFA8BF0102818D20DF11606440035199E
:1010F0000E9C24782C800E9C651C0E95440036199D
:101100002C782502ADB23488641934800E9C641C9E
:101110000E94441CA1B288B2E4E700256DB24B4C9A
:1011200025600024ADF80C40BDF80650BDF80C4019
:10113000AC4280F07F800E9C0F94BDF81050BDF83B
:101140000C40AC4200F270803F4C2588BDF8444012
:10115000AC4280F0698000248DF814409DF848501E
:101160009DF81440AC425FD20F9C0E94BDF8441021
:10117000BDF84000364C2468A0470024ADF80A4072
:10118000BDF80450BDF80A40AC4242D2BDF80A4056
:1011900004F00104A4B264B19DF8124004F00F04FD
:1011A000E4B20DF1160564002C192488ADF808404E
:1011B0000FE00E9C25788DF812500E9C641C0E9446
:1011C0002C09E4B20DF1160564002C192488ADF841
:1011D0000840BDF80E50BDF80A40AC4213D80024B8
:1011E0008DF813409DF848509DF81340AC420AD248
:1011F000BDF80800174C2468A0479DF81340641CF4
:101200008DF81340EEE7BDF80A40641CADF80A40C3
:10121000B6E7BDF84440641CADF844409DF8144066
:10122000641C8DF8144099E7BDF80C40641CADF8BF
:101230000C4079E701256DB2044C2560DDF800E033
:1012400013B070473603002038030020987F4E42C9
:101250003C030020400300208CB0CDF800E0ADF846
:1012600024001046ADF828108DF82C30851C2C7801
:10127000ADF80A406E1C34782502ADB2BDF80A40C4
:101280006419ADF80A40751C2C78ADF808406E1C46
:1012900034782502ADB2BDF808406419ADF80840B5
:1012A000741C07940DF1160624783480079C641C86
:1012B000079424782502ADB2348864193480079CE1
:1012C000641C0794B51C24782C80079C641C07942C
:1012D000B61C24782502ADB2348864193480079C8A
:1012E000641C0794BDF82450534C2488641BADF84B
:1012F0000C40BDF82850514C2488641BADF80E40BA
:1013000000256DB24E4C25600024ADF81240BDF8AA
:101310000A50BDF81240AC4280F08580079C0894CA
:10132000BDF80E50BDF81240AC4200F27680434C3E
:101330002588BDF82840AC4280F06F8000248DF8ED
:1013400015409DF82C509DF81540AC4280F065800A
:10135000089C0794BDF82810BDF82400394C246877
:10136000A04700248DF81A400024ADF81040BDF8C5
:101370000850BDF81040AC4244D29DF81A404CB918
:10138000079C24788DF80640079C641C07948024F1
:101390008DF81A409DF806509DF81A402C40E4B292
:1013A00034B10DF11604A41C2488ADF8044004E007
:1013B0000DF116042488ADF80440BDF80C50BDF8BA
:1013C0001040AC4213D800248DF814409DF82C50E6
:1013D0009DF81440AC420AD2BDF804001A4C2468AF
:1013E000A0479DF81440641C8DF81440EEE79DF86A
:1013F0001A4064088DF81A40BDF81040641CADF81E
:101400001040B4E7BDF82840641CADF828409DF8B2
:101410001540641C8DF8154093E7BDF81240641C1C
:10142000ADF8124073E701256DB2054C2560DDF87B
:1014300000E00CB0704700BF3603002038030020E6
:10144000987F4E423C0300204003002081B08DF87D
:10145000001001469DF80000FFE70A78824201D1A2
:10146000084605E00B46491C1A78002AF5D10020F1
:1014700001B0704785B0CDF800E0ADF80C1001B2B6
:10148000ADF81020BDF90C30994205DD88B2BDF9E8
:101490000C10ADF80C00FFE7002903DA002109B2B7
:1014A00008B205E03A4B1B88994200D36CE008B2C1
:1014B000BDF90C30002B00DA66E0354B1C88BDF915
:1014C0000C30A34204D3324B1B885B1EADF80C30AA
:1014D00001238DF808302F4B1C789DF80830A3426B
:1014E00052D89DF8084004F001031BB21BB96342B7
:1014F0001CB221B200E021B24C1024B221B2BDF9DD
:1015000010301B191BB2002B08DBBDF910305C1822
:1015100024B2214B1B889C4200D201E002B22CE095
:10152000002464B21D4B1C60BDF910305C18ADF88E
:101530000400A1B280B21A4C2468A047BDF904008F
:1015400086B2B1B2BDF90C30994211D8154B1C8846
:10155000ADF80400ADF80610A0B2134C2468A04703
:10156000BDF80610BDF904004B1C9EB2B1B2E9E70C
:10157000012464B2094B1C6002B29DF808305B1C68
:101580008DF8083010B2A6E7DDF800E005B070472E
:10159000360300205803002038030020987F4E4275
:1015A0003C0300205A0300204003002081B0014684
:1015B00008460B460246401C117801B1FAE7C11AF1
:1015C000491E08B201B0704781B08DF80020024674
:1015D0009DF80000C4B2431ED8B274B1137823B191
:1015E0000C781378A34200D104E014780B78E31A46
:1015F00018B204E0521C491CECE7002000B201B014
:101600007047FFFF86B0CDF800E00CB201B2A142F6
:1016100004DD88B221B203B218B200E020B2002982
:1016200002DA002109B204E02F4B1B88994200D353
:1016300055E0002800DA52E02B4B1B88984205D376
:10164000294B1B885B1E18B203B200E003B20120D5
:1016500015B20AB219B2254B1B7898423FD8C4B2D2
:1016600004F001031BB213B9644224B2FFE7631014
:101670001BB21EB2EB181BB2002B06DBAC1924B256
:101680001B4B1B889C4200D200E025E097B28F42A2
:1016900022D8184B1C88AB198DF80400ADF808103F
:1016A000ADF80C20ADF81050ADF81260ADF8147024
:1016B000A2B239B218B2FFF795F8BDF81470BDF9AF
:1016C0001260BDF91050BDF90C20BDF908109DF84D
:1016D00004007F1CBFB2DAE7401CC0B2BBE7DDF8F4
:1016E00000E006B0704700BF380300205803002018
:1016F000360300205A03002086B0CDF800E085B202
:1017000040F20001ADF8121000218DF8141080494C
:10171000097849B97F490022084640F2000101F0EA
:1017200017F801227A490A707B4909888D4200D254
:10173000EAE07A4909888D4200D9E5E076490988CE
:10174000691A89B28A0092B2754C216808318B18E7
:1017500019788DF81010591C0978CAB2991C0978AB
:10176000090289B25218D91C0978090489B25218A1
:1017700021460968891803916A490978002940F0CF
:1017800062806949B1F800800023684909888B426A
:1017900053D267490988ADF8121040F2000B0021BE
:1017A0008DF80810D8B25FFA8BF99DF810209DF8DB
:1017B000081091423AD2B9F1000F0BD10399097880
:1017C0008DF814100399491C039140F201095FFA46
:1017D00089F201E05FFA89F29DF814101140C9B254
:1017E000A1B1544909888DF804208DF80500ADF8A1
:1017F00006808AB20FFA88F1BDF81200FEF7F2FFF8
:10180000BDF806809DF805009DF80420BDF8121073
:10181000491CADF8121051005FFA81FB9DF80810C9
:10182000491C8DF808105FFA8BF9BEE708F1010832
:101830001FFA88F8431CDBB2A7E7BDF812104A1C58
:101840003B490A8060E03A49B1F8008000233749FB
:1018500009888B4253D234490988ADF8121040F2FE
:10186000000B00218DF80810D8B25FFA8BF99DF8B3
:1018700010209DF8081091423AD2B9F1000F0BD117
:10188000039909788DF814100399491C039140F2CB
:1018900001095FFA89F201E05FFA89F29DF81410FC
:1018A0001140C9B2A1B1234909888DF804208DF8EF
:1018B0000500ADF806808AB2BDF812100FFA88F064
:1018C000FEF790FFBDF806809DF805009DF8042006
:1018D000BDF81210491EADF8121051005FFA81FBDD
:1018E0009DF80810491C8DF808105FFA8BF9BEE7C7
:1018F00008F101081FFA88F8411CCBB2A7E7BDF830
:1019000012104A1E08490A80DDF800E006B0704750
:1019100000000020623D000026030020300300206C
:101920002C030020050000203A0300203203002091
:101930005203002034030020004870478038010023
:1019400081B0002149B204480160044801600448A4
:10195000016001B0704700BF00061842200618421F
:101960002406184281B0CDF800E082460AF1080151
:101970000978A9B90AF108010978CCB20AF106017F
:1019800009888BB20AF104010978CAB2DAF80010AA
:101990000846D1B2002210B400F050FA01B02DE098
:1019A0000AF108010978CCB20AF1060109888BB264
:1019B0000AF104010978CAB2DAF800100846D1B277
:1019C0000F2210B400F03AFA01B00AF106010988BA
:1019D000B1F5A16F12D10AF108010978CBB20AF171
:1019E000040109784A08DAF8001008B440F24053BC
:1019F0000846D1B20F2200F021FA01B0DDF800E074
:101A000001B0704783B0CDF800E0ADF80400ADF848
:101A100008102A20144C2468A04701AA521C1278EE
:101A2000D4B2E0B2114C2468A047BDF804000F4CBA
:101A30002468A0472B200C4C2468A04702AA521C03
:101A40001278D4B2E0B2094C2468A047BDF808006F
:101A5000064C2468A0472C20034C2468A047DDF8DE
:101A600000E003B0704700BF5C030020600300206B
:101A700083B0CDF800E0ADF80400ADF80810022006
:101A8000174C2468A047BDF80420140AE0B2154C96
:101A90002468A0470320124C2468A047BDF8040026
:101AA000104C2468A04706200D4C2468A047BDF8C0
:101AB0000820140AE0B20B4C2468A0470720084C09
:101AC0002468A047BDF80800064C2468A0472220DF
:101AD000034C2468A047DDF800E003B0704700BF66
:101AE0005C0300206003002081B0CDF800E085B2E7
:101AF0008EB22A20FEF722FC2A0AD0B2FEF7F8FBAB
:101B0000E8B2FEF7F5FB0320FEF7F2FB1F20FEF71D
:101B1000EFFB2B20FEF712FC320AD0B2FEF7E8FBF7
:101B2000F0B2FEF7E5FB0120FEF7E2FBDF20FEF757
:101B3000DFFB2C20FEF702FCDDF800E001B070476F
:101B400083B0CDF800E0ADF80400ADF808102A200D
:101B5000134C2468A047BDF80420140AE0B2114CCD
:101B60002468A047BDF804000E4C2468A0472B2031
:101B70000B4C2468A047BDF80820140AE0B2094CB9
:101B80002468A047BDF80800064C2468A0472C2014
:101B9000034C2468A047DDF800E003B0704700BFA5
:101BA0005C0300206003002081B0CDF800E0FEF768
:101BB00063FEFEF7D5FE012149B297480160FEF7AA
:101BC000CFFEFEF7CDFE0021EA20FEF7B9FD202171
:101BD000EB20FEF7B5FD0C21EC20FEF7B1FDC42192
:101BE000ED20FEF7ADFD4021E820FEF7A9FD3821EC
:101BF000E920FEF7A5FD0121F120FEF7A1FD10214E
:101C0000F220FEF79DFDA3212720FEF799FD00217C
:101C10004020FEF795FD00214120FEF791FD0121B6
:101C20004220FEF78DFD13214320FEF789FD102190
:101C30004420FEF785FD26214520FEF781FD082181
:101C40004620FEF77DFD51214720FEF779FD022158
:101C50004820FEF775FD12214920FEF771FD18217D
:101C60004A20FEF76DFD19214B20FEF769FD142176
:101C70004C20FEF765FD19215020FEF761FD2F2154
:101C80005120FEF75DFD2C215220FEF759FD3E212B
:101C90005320FEF755FD3F215420FEF751FD3F2113
:101CA0005520FEF74DFD2E215620FEF749FD7721E8
:101CB0005720FEF745FD0B215820FEF741FD062178
:101CC0005920FEF73DFD07215A20FEF739FD0D2171
:101CD0005B20FEF735FD1D215C20FEF731FDCC2198
:101CE0005D20FEF72DFD4D4800785A2810D10021C7
:101CF0000420FEF725FDEF210520FEF721FD01213F
:101D00000820FEF71DFD3F210920FEF719FD0FE019
:101D100001210420FEF714FD3F210520FEF710FDF0
:101D200000210820FEF70CFDEF210920FEF708FD39
:101D30003A4800785A280DD139480078012804D152
:101D4000C8211620FEF7FCFC03E008211620FEF750
:101D5000F7FC0CE032480078012804D1A8211620B5
:101D6000FEF7EEFC03E068211620FEF7E9FC1B21DC
:101D70001B20FEF7E5FC01211A20FEF7E1FC2F21D4
:101D80002420FEF7DDFC57212520FEF7D9FC8D210C
:101D90002320FEF7D5FC36211820FEF7D1FC0121C7
:101DA0001920FEF7CDFC00210120FEF7C9FC882197
:101DB0001F20FEF7C5FCFEF7E7FA80211F20FEF783
:101DC000BFFCFEF7E1FA90211F20FEF7B9FCFEF7F9
:101DD000DBFAD0211F20FEF7B3FCFEF7D5FA052170
:101DE0001720FEF7ADFC00213620FEF7A9FC3821B4
:101DF0002820FEF7A5FCFEF733FDFEF731FDFEF7C8
:101E00002FFDFEF72DFD3C212820FEF799FCDDF883
:101E100000E001B0704700BF947F4E426C03002089
:101E20000100002081B0034A1080034A117001B004
:101E3000704700BF5A0300205803002082B0CDF83D
:101E400000E01FFA83F9CBB2D5B29DF80870CC4CF4
:101E500000EA0404A0462046FEF7A4FA3DB908F5BE
:101E60008066DD43EDB234682C40346006E0012D1D
:101E700004D108F580652C681C432C6009F001042E
:101E8000A4B22CB108F5A2652C681C432C6006E0B6
:101E900008F5A266DD43EDB234682C40346009F0E9
:101EA0000204A4B22CB108F214552C681C432C6017
:101EB00006E008F21456DD43EDB234682C4034607D
:101EC00009F00804A4B22CB108F20C552C681C438C
:101ED0002C6006E008F20C56DD43EDB234682C406D
:101EE000346009F01004A4B22CB108F5A0652C6888
:101EF0001C432C6006E008F5A066DD43EDB23468B3
:101F00002C40346009F02004A4B22CB108F204552E
:101F10002C681C432C6006E008F20456DD43EDB249
:101F200034682C40346009F04004A4B22CB108F5A8
:101F3000A1652C681C432C6006E008F5A166DD4312
:101F4000EDB234682C40346009F08004A4B264B16E
:101F500009F04004A4B22CB108F5A3652C681C4319
:101F60002C6001E0012007E106E008F5A366DD43EF
:101F7000EDB234682C40346009F48074A4B22CB102
:101F800008F21C552C681C432C6006E008F21C5615
:101F9000DD43EDB234682C40346009F40074A4B21F
:101FA000002C3DD0774CA04540F2000500D0012523
:101FB000EDB2754CA04540F2000400D00124E4B21B
:101FC0002540EDB2714CA04540F2000400D0012440
:101FD000E4B22540EDB26E4CA04540F2000400D0C2
:101FE0000124E4B22540EDB26A4CA04540F2000461
:101FF00000D00124E4B22540EDB2674CA04540F288
:10200000000400D00124E4B205EA0404E4B20CB1F7
:102010000120B1E008F5A5652C681C432C603CE06C
:10202000584CA04540F2000500D10125EDB2564CB8
:10203000A04540F2000400D10124E4B22543EDB2F2
:10204000524CA04540F2000400D10124E4B22543E3
:10205000EDB24F4CA04540F2000400D10124E4B29F
:102060002543EDB24B4CA04540F2000400D10124C1
:10207000E4B22543EDB2484CA04540F2000400D143
:102080000124E4B245EA0404E4B234B108F5A566DB
:10209000DD43EDB234682C40346009F40064A4B22E
:1020A0002CB108F5A6652C681C432C6006E008F5E9
:1020B000A666DD43EDB234682C40346009F48064D8
:1020C000A4B22CB108F584652C681C432C6006E092
:1020D00008F58466DD43EDB234682C4034600FB9F6
:1020E000002049E00B2F01D9012045E0002100200C
:1020F0000191DAB2C3B24046F9B2019F082B12D265
:1021000022FA03F4E4B204F00104E4B244B19D0005
:102110002DB24FF00F04AC4047EA04052F46FFE70D
:102120005B1CDBB2EAE700F22C56FD4334682C401E
:102130003460002600238DF80420CAB29DF80410F4
:10214000082B13D221FA03F4E4B204F00104E4B240
:102150004CB1D5B29C0024B205FA04F446EA04045A
:1021600025462E46FFE75B1CDBB2E9E700F22C5563
:102170002C6834432C600020DDF800E002B070478A
:1021800000F0FFFF0070004000400240005000409F
:1021900000B0054000C005400090054081B0034AF2
:1021A0001080034A118001B0704700BF5203002025
:1021B0003A03002081B0BDF80450BDF80860074C18
:1021C0002070074C2180074C2270074C2370074C6D
:1021D0002580074C268001B0704700BF59030020BE
:1021E00064030020660300206703002068030020CA
:1021F0006A03002081B0044A116801B1FBE703497A
:10220000086001B0704700BF140320420000014085
:1022100081B0044A116801B1FBE70349086001B0CD
:10222000704700BF14031E4200F0004081B0044A12
:10223000116801B1FBE70349086001B0704700BFB6
:10224000140324420020014081B0044A116801B106
:10225000FBE70349086001B0704700BF1403224246
:102260000010014081B0044A116801B1FBE7034945
:10227000086001B0704700BF14031C4200E000403A
:1022800081B0044A116801B1FBE70349086001B05D
:10229000704700BF14031A4200D0004081B0044AC6
:1022A000116801B1FBE70349086001B0704700BF46
:1022B0001403184200C0004083B0CDF800E0BDF91F
:1022C0000C00C0F15A0109B2A02000B2414309B28A
:1022D000B42000B291FBF0F000B2283000B20190BF
:1022E000BDF9100000F2B40109B240F2401000B292
:1022F000484300B20290029940F26810B1FBF0F03E
:102300000A38029001214FF60000FFF78BFD02987A
:10231000851C0298841E019A29B220B2FFF7AAF800
:102320000198851C0198841E029A29B220B2FFF7F9
:1023300069F90022BDF81C10084800F009FAC8220B
:10234000A021059800F00CF8D722A021069800F0F3
:1023500007F8DDF800E003B0704700BF623D000001
:1023600083B0CDF800E002901C4B1B88994200D34B
:102370002FE01B4B1B889A4200D32AE00020ADF8C7
:10238000040088B291B2FFF709FFBDF80400029B78
:102390001B181B78EBB1134B1B7863B1029B1B1806
:1023A0001B78ADF8040098B2FEF78AFCBDF8040073
:1023B000411C89B20BE0029B1B181B78ADF804008E
:1023C00098B2FFF799F9BDF80400411C89B288B2B0
:1023D000DDE7DDF800E003B0704700BF3603002002
:1023E000380300202503002081B0CDF800E01D4A0D
:1023F0001288012A08D01C4B1C4A13601C4B1D4A32
:1024000013601D4B1D4A13601D4A10801D4A118028
:10241000884203D900231C4A137002E05A231A4A47
:102420001370012140F20000FFF7FCFC00230022A2
:1024300008B404B40023002200210020FFF7BAFEF4
:1024400002B000210020FFF7A9FE00230F4A1370FD
:10245000FFF7AAFB0E4B0F4A1360DDF800E001B056
:10246000704700BF02000020890200005C030020CA
:10247000C902000060030020BD0F000040030020DF
:1024800036030020380300206C03002025030020C1
:10249000711A00003C03002081B0CDF800E000225A
:1024A00004B440F240130122FFF7C8FC01B0DDF88C
:1024B00000E001B0704781B04FF000094BF8049B79
:1024C000BBEB0A0FFAD101B0704781B01CF8019B39
:1024D0000BF8019BBBEB0A0FF8D101B07047FFFF6F
:1024E00081B00449086800B1FBE70348006801B007
:1024F000704700BF1003184200C0004081B0CDF803
:1025000000E0124C2488A04200D31BE0104C248829
:10251000A14200D316E0541C24780BE0FEF79CFE89
:1025200010E0FEF7A7FD0DE0FEF726FA0AE0FEF741
:10253000FBFA07E0012CF1D0042CF2D0082CF3D0E8
:10254000102CF4D0DDF800E001B070473603002015
:102550003803002084B0CDF800E0ADF80C00002274
:1025600052B212490A6000210020114C2468A04791
:1025700010490A88104909885143029100210191AC
:10258000029A0199914208D2BDF80C000B4C2468C4
:10259000A0470199491C0191F2E7012252B2034977
:1025A0000A60DDF800E004B0704700BF987F4E423B
:1025B0003C030020360300203803002040030020A5
:1025C00081B0CDF800E08346214A22490A60224AC0
:1025D00022490A60224A23490A60234A23490A60A1
:1025E0002348FFF7BFF9012252B222490A6000BF17
:1025F00000BF00BFFFF7A4F9FFF79EF940F2E831F2
:1026000000FB01F210464FEA0B11914206D901225C
:1026100052B219490A604FEA5B0204E0002252B24A
:1026200015490A605A46C100B1FBF2F1491C4B083A
:102630009A0912490A6003F03F0211490A606022B8
:1026400010490A60FEF72AFBDDF800E001B0704790
:102650009D22000070030020E1240000740300208C
:10266000FFFFFFFF78030020FFFFFFFF7C03002038
:102670001846000000C3FC431406184224C0004062
:1026800028C000402CC0004081B0042806D1194960
:10269000096841F0100217490A6028E0052806D1B0
:1026A0001449096841F0110212490A601FE0062826
:1026B00006D11049096841F012020E490A6016E07D
:1026C0000F2806D10C49096841F001020A490A6045
:1026D0000DE010280BD3A0F2100461098A0007490D
:1026E0008B1804F01F024FF001019140196001B0F6
:1026F000704700BF24ED00E010E000E000E100E0E2
:1027000081B0CDF800E006460D46AEB132789AB100
:102710002846FEF74BFFC2B229463046FEF754FF6B
:1027200008B9304609E02A78D3B2721CD9B21046F3
:10273000FEF78CFE0646E8E70020DDF800E001B079
:10274000704781B0EFF3108C604662B601B07047FD
:1027500081B0124B1860831C1C78C31C1B781B02B1
:102760009BB2E4180E4B1C80031D1C78431D1B7884
:102770001B029BB2E4180B4B1C80831D1C780A4B78
:102780001C800A4B19800A4B1A700124094B1C70DB
:102790000024094B1C7001B0704700BF2C030020BF
:1027A00026030020300300203203002034030020E1
:1027B00005000020000000202503002081B04EF617
:1027C0008850CEF20000016841F47001016000BF42
:1027D00000BF00BF00BFF1EE100A40F44000E1EE80
:1027E000100A01B07047FFFF83B0CDF800E0124837
:1027F0000290B0F90010114840180190FFF770FEE8
:102800000199087002990846B0F90000401C00B216
:102810000880B0F5407F06D1002109B2064801804A
:10282000012107480170012149B206480160DDF825
:1028300000E003B0704700BF060000200C0000203D
:10284000040000209008184281B0FEE701B07047F4
:1028500092B000F0DDF902210E2000F019FAFFF726
:10286000ADFF1AF023FF1AF0E1FE0821B948FFF787
:1028700013FE012149B2B8480160F02140F2401036
:10288000FFF7B2FD41F6FE27C0F2B70700BF00BF59
:102890007F1EFDD100BF00BF00BF00BF4FF6FF701D
:1028A000FFF758FE0123AD4A28210020FFF726FE3E
:1028B00000224FF60001AA48FFF74AFF0DF1000B76
:1028C0000BF1120ADFF89CC2FFF7FFFD00A80446D7
:1028D0000E224B212046FFF743FD002240F200016B
:1028E000A148FFF735FF0DF1120B0BF1120ADFF8CB
:1028F0007CC2FFF7EAFD0DF112000446C822282130
:102900002046FFF72DFD0DF1240B0BF1130ADFF824
:1029100060C2FFF7DAFD09A80446D7222821204625
:10292000FFF71EFD002193480170002109B2924873
:10293000018042F28050FFF743FE012149B28F48E7
:10294000016040F21500FFF79FFEFFF7FAFE89488D
:102950000078012840F0558100218648017024202C
:102960008DF8370047208DF8380050208DF8390059
:1029700047208DF83A004C208DF83B004C208DF814
:102980003C0000208DF83D000DF137000446214643
:102990007B48FFF7B5FE7B490860002800F03181D5
:1029A00078480068C01D00782C2800F02A81754BFB
:1029B0001868C01D0078A0F2300109B20A2000B2E8
:1029C000414309B21846006808300078303800B238
:1029D00009186D4801801846006814300078A0F28C
:1029E000300109B2642000B201FB00F212B21846B5
:1029F000006815300078A0F2300109B20A2000B258
:102A0000484300B2111809B2184600681630007821
:102A1000303800B209185D4801801846006812304D
:102A20000078532804D15849B1F900004042088089
:102A30005448006820300078572804D15349B1F930
:102A40000000404208805148B0F900105048B0F9E9
:102A50000000884240F2000200D00122D2B24A486F
:102A6000B0F900104B48B0F90000884240F2000075
:102A700000D00120C0B242EA0000C0B2002800F03D
:102A8000C0804FF6FF7001B4434801B4434801B41D
:102A90003E481490B0F9000001B43B481490B0F9DE
:102AA000000001B4FFF708FC05B0364A1068C01DED
:102AB00001783A48017010460068083001783848BB
:102AC00001702C21374801701046006809300178E8
:102AD00035480170104600680A30017833480170AB
:102AE00020213348017010460068123001783148C7
:102AF00001700021304801701046006814300178E0
:102B00002548017010460068153001782B48017087
:102B10001046006816300178294801702C21294898
:102B20000170104600681730017827480170104680
:102B30000068183001782548017020212448017070
:102B40001046006820300178224801700021224898
:102B500000F044B8004000408C7F0842244600004A
:102B6000542D0000DA450000623D0000EC450000F5
:102B7000FE45000004000020060000201007184257
:102B80000C000020080000200C0300200E03002091
:102B900010030020120300201C0300201403002057
:102BA000150300201603002017030020180300203F
:102BB000190300201A0300201B0300201D0300201E
:102BC0001E0300201F0300202003002021030020FB
:102BD00022030020230300202403002001704FF66D
:102BE000000001B4084801B4084801B41498B0F9D1
:102BF000000001B41498B0F9000001B4FFF75CFBC9
:102C000005B0A4E6FEE700BF1C030020140300206B
:102C100081B01A4A1A4B01211A4801601A4800680B
:102C200000F4804030B103F480411648016043F461
:102C30008043FFE702F0010068B9144801686FF0B3
:102C4000010001401148016040F6D507C0F20207BB
:102C50007F1EFDD100BF6FF0020002EA00010B48A9
:102C600001600948036040F21007C0F200077F1EB0
:102C7000FDD100BF0548026001B07047903BC00124
:102C8000002800C12803002070E00F4060E00F40E2
:102C900081B0012676B2264A1660264A1660264A78
:102CA000166000256DB2254C2560254A13686FF427
:102CB00070721340224A136000F00F029301204A01
:102CC000126842EA03031E4A13601E4A13686FF03B
:102CD000700213401B4A13601B4A1560194A13689F
:102CE0006FF0FC521340174A136001F03F02D30506
:102CF000144A126842EA0303124A13602660134B17
:102D00001A6802B9FBE701235BB2094A1360104A53
:102D1000126832B90B4A13686FF480421340094AB3
:102D2000136000235BB2034A136001B0704700BF19
:102D3000180BFC432C0EFC437C0EFC43580CFC434C
:102D400060E00F4070E00F40340EFC43180AFC4373
:102D500028030020000020007F00160001880100E9
:102D6000059E010006B401000ECA01000EF6010026
:102D7000112202000F6402000390020006A6020066
:102D800006BC020009D202000EFE0200032A030064
:102D90000640030003560300086C03000E82030084
:102DA00004AE03000CC403000BF003000F1C04006E
:102DB0000C4804000E7404000CA004000DCC0400A8
:102DC0000DF8040003240500033A05000D5005002A
:102DD0000D7C05000DA805000DD4050012000600AD
:102DE0000F4206000D6E06000C9A06000EC6060085
:102DF0000CF206000C1E07000E4A07000C760700B6
:102E000004A2070009B807000DE407000A10080033
:102E1000103C08000D6808000F9408000DC0080061
:102E200010EC08000E1809000E4409000B70090090
:102E30000D9C09000EC8090015F409000D360A00A2
:102E40000C620A000D8E0A0006BA0A0008D00A00B9
:102E500005E60A000FFC0A000A280B0007540B00C5
:102E60000B6A0B000B960B000AC20B000BEE0B005B
:102E70000A1A0C0008460C000B5C0C000A880C00B7
:102E800004B40C0004CA0C000BE00C00040C0D0090
:102E90000E220D000A4E0D000C7A0D000BA60D003F
:102EA0000BD20D0008FE0D000B140E0008400E00A2
:102EB0000A560E000B820E0011AE0E000AF00E0034
:102EC0000A1C0F000A480F0008740F00068A0F0042
:102ED00007A00F000DB60F000BE20F00000000006E
:102EE00000000000000000000000000000000000E2
:102EF0000000000000001C1C1C1C1C1C1C1C1C1CBA
:102F00001C001C1C000000000000000000363636CB
:102F10003636000000000000000000000000000045
:102F2000000000000000C01CC00C600C600EFC3FE4
:102F3000FC1F32033003FE1FFF0F98018C01CC00F1
:102F4000CE000000000000000000000000000000B3
:102F50008000F81FFC1F9E008E008E009E00FC0F5C
:102F6000F81F803880388038803CFC1FFC0F8000C0
:102F70000000000000000000000000000000000051
:102F800000003E08007F0C0063040063060063023B
:102F9000007F03003E010080F90080FD01808C016C
:102FA000C08C01408C0160FC0120F8000000000092
:102FB0000000000000000000000000000000000011
:102FC000F803FC031E000E000E001E007C7E7C7EBB
:102FD0001E1C0E1C0E0E1E0FFC07F8010000000048
:102FE00000000000000000000006060606060000C3
:102FF0000000000000000000000000000000381881
:103000000C0C0C0606060606060C0C0C1838000004
:10301000000000000E0C1818183030303030301816
:1030200018180C0E00000000000000000000300026
:10303000B400FE017800FE01B40030000000000082
:103040000000000000000000000000000000000080
:1030500000000000000000000000000000008001EF
:103060008001800180018001FC3FFC3F80018001E4
:1030700080018001800100000000000000000000CD
:103080000000000000000000000000000000060634
:10309000040200000000000000000000000000002A
:1030A0003F3F0000000000000000000000000000A2
:1030B0000000000000000000000006060000000004
:1030C00000000000C04040602030101808080C04C8
:1030D0000602020300000000000000000000F003F0
:1030E000FC0F1E1E0E1C0738073807380738073834
:1030F00007380E1C1E1EFC0FF0030000000000002D
:103100000000000000000E0E0E0E0E0E0E0E0E0E33
:103110000E0E0E0E00000000000000000000000077
:10312000FF03FF07000E000E000E000EFC07FE035B
:103130000F00070007000700FF0FFF0F000000004F
:10314000000000000000000000000000FF01FF037D
:103150008007000700078007FE03FE0380070007C3
:1031600000078007FF03FF010000000000000000CF
:103170000000000000000000001E001F801FC01F94
:10318000E01DF01C781C3C1C1E1CFE7FFE7F001CFA
:10319000001C001C000000000000000000000000F7
:1031A00000000000FF07FF070700070007000700F7
:1031B000FF03FF07000E000E000E000EFF07FF03C7
:1031C00000000000000000000000000000000000FF
:1031D000E01FF81F3C001C000E000E00FE0FFE1F3B
:1031E0000E380E381C383C3CF81FE0070000000089
:1031F000000000000000000000000000FF0FFF0FB3
:10320000000F00078003C003C001E000F000780059
:1032100038003C001E000F0000000000000000000D
:103220000000000000000000FC07FE0F0F1E071C3E
:10323000071C0F1EFE0FFE0F0F1E071C071C0F1E84
:10324000FE0FFC070000000000000000000000006E
:1032500000000000F801FE070F0F070E071C071CF7
:10326000FE1FFC1F001C001C000E000FFE07FE01CD
:10327000000000000000000000000000000000004E
:103280000000000606000000060600000000000026
:103290000000000000000000000606000000060616
:1032A0000402000000000000000000000000000018
:1032B00000000010001E800FE0037C001C007C005A
:1032C000E003800F001E001000000000000000005E
:1032D00000000000000000000000000000000000EE
:1032E0000000FC1FFC1F00000000FC1FFC1F000072
:1032F00000000000000000000000000000000000CE
:103300000000000000000000000004003C00F80085
:10331000E003001F001C001FE003F8003C00040055
:10332000000000000000000000000000000000009D
:10333000FE07FE0F001C001C001C001CF80FFC0701
:103340001E000E000E0000000E000E000000000027
:10335000000000000000000000000000000000006D
:10336000801F00E07F0070E0003880019CB703CC34
:103370001703C61803661803661803668C0166CC2B
:1033800001E6FB00CC79001C000078E000F03F0073
:10339000C00F000000000000000000000000E0017D
:1033A000E003E003F00330073807380E180EFC1F67
:1033B000FC1F0E1C0E3806380778000000000000C5
:1033C00000000000000000000000FE07FE0F0E1CC1
:1033D0000E1C0E1C0E1CFE0FFE0F0E1C0E1C0E1CD7
:1033E0000E1CFE0FFE0700000000000000000000A1
:1033F000000000000000F00FF80F1C001C000E0081
:103400000E000E000E000E000E000C001C00F80F47
:10341000F00F0000000000000000000000000000AD
:103420000000FE07FE0F0E1C0E1C0E380E380E3864
:103430000E380E380E380E1C0E1CFE0FFE07000054
:103440000000000000000000000000000000F00F7D
:10345000F80F1C001C000E000E00FE0FFE0F0E00E9
:103460000E000C001C00F80FF00F00000000000020
:1034700000000000000000000000F00FFC0F1C0026
:103480000E000E000E00FE0FFE0F0E000E000E00CE
:103490000E000E000E000000000000000000000002
:1034A000000000000000F03FF83F3C001C000E0050
:1034B0000E008E3F8E3F0E380E381C383C38F83FD9
:1034C000F03F0000000000000000000000000000CD
:1034D00000000E0E0E0E0E0E0E0E0E0E0E0EFE0F37
:1034E000FE0F0E0E0E0E0E0E0E0E0E0E0E0E000027
:1034F000000000000000000000000E0E0E0E0E0E78
:103500000E0E0E0E0E0E0E0E00000000000000004B
:1035100000000000C001C001C001C001C001C00125
:10352000C001C001C001C001C001E001FF007F0077
:10353000000000000000000000000000000000008B
:103540000E1E0E0F8E078E03CE01EE00FE00FE0053
:10355000EE01CE018E038E070E0F0E1E000000003E
:103560000000000000000000000000000E000E003F
:103570000E000E000E000E000E000E000E000E00DB
:103580000E001E00FC03F803000000000000000015
:1035900000000000000000001EF03EF83EF83EF87B
:1035A0007EFC7EFC6EEC6EEEEEEECEE6CEE6CEE778
:1035B0008EE38EE300000000000000000000000029
:1035C000000000001E1C1E1C3E1C7E1C7E1CEE1CEF
:1035D000CE1CCE1D8E1D8E1F0E1F0E1F0E1E0E1E0C
:1035E00000000000000000000000000000000000DB
:1035F000E007F81F3C3C1C380E700E700E700E7009
:103600000E700E701C383C3CF81FE00700000000F4
:10361000000000000000000000000000FE07FE0F98
:103620000E1E0E1C0E1C0E1C0E1EFE0FFE070E00A4
:103630000E000E000E000E00000000000000000052
:103640000000000000000000E007F81F3C3C1C38B0
:103650000E700E700E700E700E700E701C783C3C6A
:10366000F83FE0F70000000000000000000000004C
:1036700000000000FE07FE0F0E1C0E1C0E1C0E1C90
:10368000FE0FFE070E070E070E0E0E0E0E1C0E3C52
:10369000000000000000000000000000000000002A
:1036A000F81FFC1F1E000E000E000E00FC0FF81F7E
:1036B0000038003800380038FC1FFC0F0000000004
:1036C000000000000000000000000000FF07FF07EE
:1036D000700070007000700070007000700070006A
:1036E000700070007000700000000000000000001A
:1036F00000000000000000000E1C0E1C0E1C0E1C22
:103700000E1C0E1C0E1C0E1C0E1C0E1C0E1C1E1E57
:10371000FC0FF003000000000000000000000000AB
:10372000000000000738071C071C0F1E0E0E1E0F9E
:103730001C071C07B803B803F803F001F001E00010
:103740000000000000000000000000000000000079
:1037500000000000070E1C070F1C061F0E0E1F0E98
:103760000E1B0E8C3B069C3B079C39079C3107F8CF
:10377000F103F8F103F8F103F0E001F0E0010000DB
:103780000000000000000000000000000000000039
:1037900000000F1E0E0F1C07BC03F803F001F00021
:1037A000F001F001B803BC071C070E0F0F1E00004C
:1037B0000000000000000000000000000000030FF7
:1037C00007078E038E03DC01F800F800700070001C
:1037D00070007000700070007000000000000000B9
:1037E00000000000000000000000FE1FFE1F001E81
:1037F000000F8007C003E001E001F00078003C000A
:103800001E00FE1FFE1F0000000000000000000060
:1038100000003E3E060606060606060606060606E4
:103820003E3E00000000000003020206040C0808EF
:1038300010103020604040C00000000000001F1F3A
:103840001818181818181818181818181F1F00001A
:1038500000000000000000000007800FC01DE038DD
:103860007070000000000000000000000000000078
:103870000000000000000000000000000000000048
:103880000000000000000000000000000000000038
:103890000000000000000000000000000000000028
:1038A000000000000000FF03000000001C3060006A
:1038B0000000000000000000000000000000000008
:1038C0000000000000000000000000000000FC01FB
:1038D000FC0300070007FC07FE070E070E07FE07A4
:1038E000FC070000000000000000000000000000D5
:1038F00000000E000E000E000E00FE01FE038E07FB
:103900000E070E070E070E078E03FE03FE010000D2
:1039100000000000000000000000000000000000A7
:10392000000000000000F003FC031C000E000E006D
:103930000E000E001C00FC03F0030000000000005D
:103940000000000000000000000000070007000762
:103950000007F807FC071E070E070E070E070E07E5
:103960001C07FC07F8070000000000000000000032
:103970000000000000000000000000000000F8034C
:10398000FC030E000E00FE03FE030E000E00FC03FF
:10399000F803000000000000000000000000F8FC38
:1039A0001C1CFFFF1C1C1C1C1C1C1C1C0000000001
:1039B0000000000000000000000000000000000007
:1039C000F807FC071C070E070E070E070E071E0759
:1039D000FC07F80700070007FC03FC0100000000DB
:1039E000000000000E000E000E000E00FE01FE039F
:1039F0008E038E038E038E038E038E038E038E033F
:103A0000000000000000000000000000000E0E009A
:103A10000E0E0E0E0E0E0E0E0E0E0000000000001A
:103A20000000000E0E000E0E0E0E0E0E0E0E0E0EEE
:103A30000E0E070700000000000000000E000E0040
:103A40000E000E000E078E03CE01EE007E007E00FB
:103A5000EE00CE018E038E07000000000000000083
:103A6000000000000E0E0E0E0E0E0E0E0E0E0E0EAE
:103A70000E0E00000000000000000000000000002A
:103A8000000000000000FE1FFE3FCE39CE39CE39C7
:103A9000CE39CE39CE39CE39CE3900000000000003
:103AA0000000000000000000000000000000000016
:103AB0000000FE01FE038E038E038E038E038E0331
:103AC0008E038E038E030000000000000000000043
:103AD0000000000000000000000000000000F001F5
:103AE000FC071C070E0E0E0E0E0E0E0E1C07FC071A
:103AF000F0010000000000000000000000000000D5
:103B000000000000000000000000FE01FE038E0324
:103B10000E070E070E070E078E07FE03FE010E00AE
:103B20000E000E000E00000000000000000000006B
:103B3000000000000000F807FC071C070E070E0736
:103B40000E070E071E07FC07F8070007000700070F
:103B5000000700000000000000007EFEEEEE0E0EEA
:103B60000E0E0E0E0000000000000000000000001D
:103B70000000000000000000FC03FE030E000E0029
:103B8000FE03FC0700070007FE07FE03000000001D
:103B900000000000000000001C1C1C1CFFFF1C1C7F
:103BA0001C1C1C1CFCF800000000000000000000B1
:103BB000000000000000000000008E038E038E0352
:103BC0008E038E038E038E038E03FE03F803000024
:103BD00000000000000000000000000000000000E5
:103BE000000000000000070706038E038E039C01FF
:103BF000DC01D800F800F8007000000000000000B0
:103C000000000000000000000000000000000000B4
:103C10000000000000000000000083C301C7C701CE
:103C2000C6C700C6C600EEEE00EC6E006C6C007CF1
:103C30007C00783C003838000000000000000000E4
:103C40000000000000000000000000000000000074
:103C5000000000008703CE01FC00FC007800780023
:103C60007C00FC00CE018703000000000000000083
:103C70000000000000000000000000000000000044
:103C80008E038E038E038E038E038E038E038E03AC
:103C9000FE03FC0380038003FE01FE000000000021
:103CA000000000000000000000000000FE03FE0312
:103CB000C003E001F00078003C001E00FE03FE039C
:103CC000000000000000000000000000E0F03030C4
:103CD000303030301C1C303030303030F0E00000FC
:103CE0000030303030303030303030303030303004
:103CF00030303030000000000E1E18181818181848
:103D000070701818181818181E0E00000000000017
:103D100000000000000000000000000000000000A3
:103D2000F810FC1F040F000000000000000000005D
:103D30000000000000000000000000000000000083
:103D4000FE07020402040204020402040204020444
:103D50000204020402040204020402040204020433
:103D6000FE07000020007F0010000188010003987A
:103D7000010005A8010008B8010007C801000DD81E
:103D800001000AF8010003180200052802000538A6
:103D90000200074802000958020003780200058863
:103DA00002000398020006A8020007B8020007C834
:103DB000020007D8020007E8020007F8020007081F
:103DC000030007180300072803000738030007480B
:103DD00003000358030003680300097803000998EF
:103DE000030009B8030006D8030009E80300090826
:103DF0000400072804000738040008480400065897
:103E00000400066804000778040008880400049889
:103E1000040005A8040007B8040006C804000AD876
:103E2000040007F804000808050007180500082822
:103E30000500083805000748050006580500076812
:103E40000500087805000C88050008A8050008B8DA
:103E5000050006C8050005D8050006E8050005F8B8
:103E6000050009080600082806000538060007486E
:103E7000060007580600066806000778060007884F
:103E800006000598060007A8060007B8060002C845
:103E9000060003D8060006E8060002F806000A0835
:103EA00007000728070007380700074807000758DA
:103EB00007000568070006780700058807000798CF
:103EC000070007A807000AB8070006D8070007E898
:103ED000070006F80700060808000418080006286E
:103EE00008000A3808000B58080000000000000015
:103EF00000000000000000000000000000000606B6
:103F0000060606060006060000000000001B1B1B3C
:103F10001B000000000000000000000000004848F6
:103F2000FEFE247F7F1212000000000008083E4BB6
:103F30000B0B3E6868693E080800000000000000A6
:103F400000001E0033023301B3005E0FA019901968
:103F50008819000F000000000000000000000000B1
:103F600000003C006600660066003C036603C60174
:103F7000C600BC03000000000000000000060606AA
:103F800006000000000000000000000000180C0CFB
:103F9000060606060606060C0C18000000060C0CA9
:103FA000181818181818180C0C06000000185A3C9D
:103FB0005A1800000000000000000000000000008F
:103FC00000000000200020002000FC012000200054
:103FD00020000000000000000000000000000000C1
:103FE00000000000000606030300000000000000BF
:103FF00000001F00000000000000000000000000A2
:104000000000000000060600000000000020201054
:1040100010080804040202010100000000003E63D1
:104020006363636363633E00000000000000181ECA
:104030001818181818187E000000000000003E61D3
:10404000616030180C067F000000000000003E6137
:1040500060603C6060613E0000000000000030389D
:104060003432317F303030000000000000007E0626
:10407000063E606060613E000000000000003C06FB
:10408000033F636363633E000000000000007F6045
:10409000303018180C0C0C000000000000003E63CB
:1040A00063633E6363633E000000000000003E6304
:1040B0006363637E60301E000000000000000000AB
:1040C00006060000000606000000000000000000D8
:1040D00006060000000606030300000000000000C2
:1040E00000000000800160001800060006001800B3
:1040F00060008001000000000000000000000000DF
:10410000000000000000FE0100000000FE010000B1
:10411000000000000000000000000000000000009F
:1041200000000000060018006000800180016000AF
:1041300018000600000000000000000000001E3112
:1041400030180C0C000C0C000000000000000000F7
:1041500000007C00820079016D016D016D016D012F
:10416000D9000200FC000000000000000000000078
:104170000000380038006C006C00C600FE00C6006D
:1041800083018301000000000000000000003F6385
:1041900063633F6363633F000000000000003E4331
:1041A0004303030343433E000000000000003F635D
:1041B000C3C3C3C3C3633F000000000000003F034C
:1041C00003031F0303033F000000000000003F0340
:1041D00003031F03030303000000000000003E432D
:1041E0004303736363637E00000000000000C3C3E9
:1041F000C3C3FFC3C3C3C3000000000000000F0619
:104200000606060606060F000000000000001E1845
:104210001818181818180F00000000000000633369
:104220001B0F070F1B336300000000000000030397
:104230000303030303033F0000000000000000002D
:104240000000870387034D034D033903390311032E
:1042500011030103000000000000000000004747B8
:104260004D4D5959717161000000000000007EC37E
:10427000C3C3C3C3C3C37E000000000000003F638C
:104280006363633F030303000000000000007EC37C
:10429000C3C3C3C3C3C37E60C000000000003F634C
:1042A00063633F1B3363C3000000000000003E4314
:1042B00043033E6061613E000000000000003F0CCF
:1042C0000C0C0C0C0C0C0C000000000000006363D4
:1042D0006363636363633E00000000000000C3C3C8
:1042E000C366663C3C181800000000000000000097
:1042F0000000630C630C630CF30CF6069E079E072C
:104300000C030C0300000000000000000000C3C309
:10431000663C183C66C3C300000000000000C3C335
:1043200066663C18181818000000000000003F30B6
:1043300030180C0603033F0000000000001E0606B4
:1043400006060606060606061E000000000101021B
:10435000020404080810102020000000001E181895
:1043600018181818181818181E000000000000006F
:10437000000030004800840002010000000000003E
:10438000000000000000000000000000000000002D
:104390000000000000000000FF000000000C1800FA
:1043A000000000000000000000000000000000000D
:1043B0003C62607E63637E00000000000003030334
:1043C0003B67636363633F00000000000000000080
:1043D0001E23030303231E00000000000060606032
:1043E0007E63636363736E000000000000000000E2
:1043F0003E63637F03433E0000000000001C06068E
:104400000F06060606060600000000000000000079
:104410007E63636363736E60613E000000030303A9
:104420003B676363636363000000000000030300F5
:10443000030303030303030000000000000606005B
:104440000706060606060606060300000003030329
:10445000331B0F070F1B3300000000000003030392
:104460000303030303030300000000000000000037
:10447000000000000000DF01330333033303330384
:1044800033033303000000000000000000000000C0
:104490003B6763636363630000000000000000008B
:1044A0003E63636363633E000000000000000000A1
:1044B0003B67636363633F03030300000000000086
:1044C0007E63636363736E606060000000000000E1
:1044D0001B1F030303030300000000000000000093
:1044E0001E23071E38311E000000000000000606D3
:1044F0001F06060606061C00000000000000000063
:104500006363636363736E000000000000000000DB
:1045100063636336361C1C000000000000000000CE
:1045200000000000000033033303B601B601CE01E2
:10453000CC00CC00000000000000000000000000E3
:1045400033331E0C1E333300000000000000000057
:1045500063636336361C1C180C0C0000000000005E
:104560003F30180C06033F000000000000380C0C20
:104570000C0C070C0C0C0C0C38000000000C0C0C84
:104580000C0C0C0C0C0C0C0C0C00000000070C0CA0
:104590000C0C380C0C0C0C0C070000000000000088
:1045A00000000000000000001E023F02F103E101D4
:1045B00000000000000000000000000000000000FB
:1045C000FE070204020402040204020402040204BC
:1045D0000204FE0700000000000047505320636CF7
:1045E00069636B204578616D706C6500596F7572F9
:1045F000206C617469747564652069733A00596F41
:104600007572206C6F6E6769747564652069733AA2
:1046100000244750474C4C00004000400300400538
:10462000010000000010A0004001DF5A5F4A7F4AED
:104630007F4A7F4A7F4A7F4A7F4A7F4A7F4A7F4A32
:104640007F4A7F4A7F4A7F523F4A5F4A7F4A7F4A7A
:104650007F4A7F4A7F4A7F4A7F4A7F4A7F4A7F4A12
:104660007F4A7F4A7F4A7F4A7F4A7F4A7F4A7F4A02
:104670007F4A7F4A7F4A7F4A7F4A7F4A7F523F4A2A
:104680005F4A7F4A7F4A7F4A7F4A7F4A7F4A7F4A02
:104690007F4A7F4A7F4A7F4A7F4A7F4A7F4A7F4AD2
:1046A0007F4A7F4A7F4A7F4A7F4A7F4A7F4A7F4AC2
:1046B0007F4A7F4A3F4A7F4A7F4A7F4A7F4A7F4AF2
:1046C0007F4A7F4A7F4A7F4A7F4A7F4A7F4A7F4AA2
:1046D0007F4A7F4A7F4A7F4A7F4A7F4A7F4A7F4A92
:1046E0007F4A7F4A7F4A7F4A5F4A3F4A7F527F4ADA
:1046F0007F4A7F4A7F4A7F4A7F4A7F4A7F4A7F4A72
:104700007F4A7F4A7F4A7F4A7F4A7F4A7F4A7F4A61
:104710007F4A7F4A7F4A7F4A7F4A7F4A7F525F4A69
:104720003F4A7F527F4A7F4A7F4A7F4A7F4A7F4A79
:104730007F4A7F4A7F4A7F4A7F4A7F4A7F4A7F4A31
:104740007F4A7F4A7F4A7F4A7F4A7F4A7F4A7F4A21
:104750007F4A7F523F4A7F4A7F4A7F4A7F4A7F4A49
:104760007F4A7F4A7F4A7F4A7F4A7F4A7F4A7F4A01
:104770007F4A7F4A7F4A7F4A7F4A7F4A7F4A7F4AF1
:104780007F4A7F4A7F4A7F4A7F4A3F4A7F4A7F4A21
:104790007F4A7F4A7F4A7F4A7F4A7F4A7F4A7F4AD1
:1047A0007F4A7F4A7F4A7F4A7F4A7F4A7F4A7F4AC1
:1047B0007F4A7F4A7F4A7F4A7F4A7F4A7F4A7F4AB1
:1047C0003F4A7F527F4A7F4A7F4A7F4A7F4A7F4AD9
:1047D0007F4A7F4A7F4A7F4A7F4A7F4A7F4A7F4A91
:1047E0007F4A7F4A7F4A7F4A7F4A7F4A7F4A7F4A81
:1047F0007F4A7F523F4A3F4A7F527F4A7F4A7F4AE1
:104800007F4A7F4A7F4A7F4A7F4A7F4A7F4A7F4A60
:104810007F4A7F4A7F4A7F4A7F4A7F4A7F4A7F4A50
:104820007F4A7F4A7F4A7F4A7F523F425F4A7F4AA0
:104830007F4A7F4A7F4A7F4A7F4A7F4A7F4A7F4A30
:104840007F4A7F4A7F4A7F4A7F4A7F4A7F4A7F4A20
:104850007F4A7F4A7F4A7F4A7F4A7F4A7F4A7F4A10
:104860003F4A7F4A7F4A7F4A7F4A7F4A7F4A7F4A40
:104870007F4A7F4A7F4A7F4A7F4A7F4A7F4A7F4AF0
:104880007F4A7F4A7F4A7F4A7F4A7F4A7F4A7F4AE0
:104890007F4A7F4A7F4A3F4A7F4A7F4A7F4A7F4A10
:1048A0007F4A7F4A7F4A5F4ADF5A7F4AFF41FF4182
:1048B000FF41FF41FF41FF41FF41FF41FF41FF41F8
:1048C000FF41FF41FF41FF41BF39DF39FF41FF4158
:1048D000FF41FF41FF41FF41FF41FF41FF41FF41D8
:1048E000FF41FF41FF41FF41FF41FF41FF41FF41C8
:1048F000FF41FF41FF41FF41FF41FF41FF41BF3900
:10490000DF39FF41FF41FF41FF41FF41FF41FF41CF
:10491000FF41FF41FF41FF41FF41FF41FF41FF4197
:10492000FF41FF41FF41FF41FF41FF41FF41FF4187
:10493000FF41FF41BF39FF41FF41FF41FF41FF41BF
:10494000FF41FF41FF41FF41FF41FF41FF41FF4167
:10495000FF41FF41FF41FF41FF41FF41FF41FF4157
:10496000FF41FF41FF41FF41DF39BF39FF41FF41B7
:10497000FF41FF41FF41FF41FF41FF41FF41FF4137
:10498000FF41FF41FF41FF41FF41FF41FF41FF4127
:10499000FF41FF41FF41FF41FF41FF41FF41DF393F
:1049A000DF39FF41FF41FF41FF41FF41FF41FF412F
:1049B000FF41FF41FF41FF41FF41FF41FF41FF41F7
:1049C000FF41FF41FF41FF41FF41FF41FF41FF41E7
:1049D000FF41FF41BF39FF39FF41FF41FF41FF4127
:1049E000FF41FF41FF41FF41FF41FF41FF41FF41C7
:1049F000FF41FF41FF41FF41FF41FF41FF41FF41B7
:104A0000FF41FF41FF41FF41FF41BF39FF39FF41F6
:104A1000FF41FF41FF41FF41FF41FF41FF41FF4196
:104A2000FF41FF41FF41FF41FF41FF41FF41FF4186
:104A3000FF41FF41FF41FF41FF41FF41FF41FF397E
:104A4000BF39FF41FF41FF41FF41FF41FF41FF41AE
:104A5000FF41FF41FF41FF41FF41FF41FF41FF4156
:104A6000FF41FF41FF41FF41FF41FF41FF41FF4146
:104A7000FF41FF41DF39DF39FF41FF41FF41FF4186
:104A8000FF41FF41FF41FF41FF41FF41FF41FF4126
:104A9000FF41FF41FF41FF41FF41FF41FF41FF4116
:104AA000FF41FF41FF41FF41FF41DF39DF39FF4156
:104AB000FF41FF41FF41FF41FF41FF41FF41FF41F6
:104AC000FF41FF41FF41FF41FF41FF41FF41FF41E6
:104AD000FF41FF41FF41FF41FF41FF41FF41FF41D6
:104AE000BF39FF41FF41FF41FF41FF41FF41FF410E
:104AF000FF41FF41FF41FF41FF41FF41FF41FF41B6
:104B0000FF41FF41FF41FF41FF41FF41FF41FF41A5
:104B1000FF41FF41FF41BF39FF41FF41FF41FF41DD
:104B2000FF41FF41FF41FF417F4A7F4AFF41FF4173
:104B3000FF41FF41FF41FF41FF41FF41FF41FF4175
:104B4000FF41FF41FF41FF41BF39DF39FF41FF41D5
:104B5000FF41FF41FF41FF41FF41FF41FF41FF4155
:104B6000FF41FF41FF41FF41FF41FF41FF41FF4145
:104B7000FF41FF41FF41FF41FF41FF41FF41BF397D
:104B8000DF39FF41FF41FF41FF41FF41FF41FF414D
:104B9000FF41FF41FF41FF41FF41FF41FF41FF4115
:104BA000FF41FF41FF41FF41FF41FF41FF41FF4105
:104BB000FF41FF41BF39FF41FF41FF41FF41FF413D
:104BC000FF41FF41FF41FF41FF41FF41FF41FF41E5
:104BD000FF41FF41FF41FF41FF41FF41FF41FF41D5
:104BE000FF41FF41FF41FF41DF39BF39FF41FF4135
:104BF000FF41FF41FF41FF41FF41FF41FF41FF41B5
:104C0000FF41FF41FF41FF41FF41FF41FF41FF41A4
:104C1000FF41FF41FF41FF41FF41FF41FF41DF39BC
:104C2000DF39FF41FF41FF41FF41FF41FF41FF41AC
:104C3000FF41FF41FF41FF41FF41FF41FF41FF4174
:104C4000FF41FF41FF41FF41FF41FF41FF41FF4164
:104C5000FF41FF41BF39FF39FF41FF41FF41FF41A4
:104C6000FF41FF41FF41FF41FF41FF41FF41FF4144
:104C7000FF41FF41FF41FF41FF41FF41FF41FF4134
:104C8000FF41FF41FF41FF41FF41BF39FF39FF4174
:104C9000FF41FF41FF41FF41FF41FF41FF41FF4114
:104CA000FF41FF41FF41FF41FF41FF41FF41FF4104
:104CB000FF41FF41FF41FF41FF41FF41FF41FF39FC
:104CC000BF39FF41FF41FF41FF41FF41FF41FF412C
:104CD000FF41FF41FF41FF41FF41FF41FF41FF41D4
:104CE000FF41FF41FF41FF41FF41FF41FF41FF41C4
:104CF000FF41FF41DF39DF39FF41FF41FF41FF4104
:104D0000FF41FF41FF41FF41FF41FF41FF41FF41A3
:104D1000FF41FF41FF41FF41FF41FF41FF41FF4193
:104D2000FF41FF41FF41FF41FF41DF39DF39FF41D3
:104D3000FF41FF41FF41FF41FF41FF41FF41FF4173
:104D4000FF41FF41FF41FF41FF41FF41FF41FF4163
:104D5000FF41FF41FF41FF41FF41FF41FF41FF4153
:104D6000BF39FF41FF41FF41FF41FF41FF41FF418B
:104D7000FF41FF41FF41FF41FF41FF41FF41FF4133
:104D8000FF41FF41FF41FF41FF41FF41FF41FF4123
:104D9000FF41FF41FF41BF39FF41FF41FF41FF415B
:104DA000FF41FF41FF41FF417F4A7F4AFF41FF41F1
:104DB000FF41FF41FF41FF41FF41FF41FF41FF41F3
:104DC000FF41FF41FF41FF41BF39DF39FF41FF4153
:104DD000FF41FF41FF41FF41FF41FF41FF41FF41D3
:104DE000FF41FF41FF41FF41FF41FF41FF41FF41C3
:104DF000FF41FF41FF41FF41FF41FF41FF41BF39FB
:104E0000DF39FF41FF41FF41FF41FF41FF41FF41CA
:104E1000FF41FF41FF41FF41FF41FF41FF41FF4192
:104E2000FF41FF41FF41FF41FF41FF41FF41FF4182
:104E3000FF41FF41BF39FF41FF41FF41FF41FF41BA
:104E4000FF41FF41FF41FF41FF41FF41FF41FF4162
:104E5000FF41FF41FF41FF41FF41FF41FF41FF4152
:104E6000FF41FF41FF41FF41DF39BF39FF41FF41B2
:104E7000FF41FF41FF41FF41FF41FF41FF41FF4132
:104E8000FF41FF41FF41FF41FF41FF41FF41FF4122
:104E9000FF41FF41FF41FF41FF41FF41FF41DF393A
:104EA000DF39FF41FF41FF41FF41FF41FF41FF412A
:104EB000FF41FF41FF41FF41FF41FF41FF41FF41F2
:104EC000FF41FF41FF41FF41FF41FF41FF41FF41E2
:104ED000FF41FF41BF39FF39FF41FF41FF41FF4122
:104EE000FF41FF41FF41FF41FF41FF41FF41FF41C2
:104EF000FF41FF41FF41FF41FF41FF41FF41FF41B2
:104F0000FF41FF41FF41FF41FF41BF39FF39FF41F1
:104F1000FF41FF41FF41FF41FF41FF41FF41FF4191
:104F2000FF41FF41FF41FF41FF41FF41FF41FF4181
:104F3000FF41FF41FF41FF41FF41FF41FF41FF3979
:104F4000BF39FF41FF41FF41FF41FF41FF41FF41A9
:104F5000FF41FF41FF41FF41FF41FF41FF41FF4151
:104F6000FF41FF41FF41FF41FF41FF41FF41FF4141
:104F7000FF41FF41DF39DF39FF41FF41FF41FF4181
:104F8000FF41FF41FF41FF41FF41FF41FF41FF4121
:104F9000FF41FF41FF41FF41FF41FF41FF41FF4111
:104FA000FF41FF41FF41FF41FF41DF39DF39FF4151
:104FB000FF41FF41FF41FF41FF41FF41FF41FF41F1
:104FC000FF41FF41FF41FF41FF41FF41FF41FF41E1
:104FD000FF41FF41FF41FF41FF41FF41FF41FF41D1
:104FE000BF39FF41FF41FF41FF41FF41FF41FF4109
:104FF000FF41FF41FF41FF41FF41FF41FF41FF41B1
:10500000FF41FF41FF41FF41FF41FF41FF41FF41A0
:10501000FF41FF41FF41BF39FF41FF41FF41FF41D8
:10502000FF41FF41FF41FF417F4A7F4AFF41FF416E
:10503000FF41FF41FF41FF41FF41FF41FF41FF4170
:10504000FF41FF41FF41FF41BF39DF39FF41FF41D0
:10505000FF41FF41FF41FF41FF41FF41FF41FF4150
:10506000FF41FF41FF41FF41FF41FF41FF41FF4140
:10507000FF41FF41FF41FF41FF41FF41FF41BF3978
:10508000DF39FF41FF41FF41FF41FF41FF41FF4148
:10509000FF41FF41FF41FF41FF41FF41FF41FF4110
:1050A000FF41FF41FF41FF41FF41FF41FF41FF4100
:1050B000FF41FF41BF39FF41FF41FF41FF41FF4138
:1050C000FF41FF41FF39FF41FF39FF39DF39FF3928
:1050D000FF39FF39DF39FF39FF39FF39FF39FF3930
:1050E000FF39FF39FF41FF41DF39BF39FF41FF4140
:1050F000FF41FF41FF41FF41FF41FF41FF41FF41B0
:10510000FF41DF39DF39DF39DF39DF39FF39FF3977
:10511000DF39DF39DF39DF39DF39DF39FF39BF39CF
:10512000BF39DF39DF39DF39DF39FF39FF39FF4177
:10513000FF41FF41FF41FF41FF41FF41FF41FF416F
:10514000FF41FF41FF41FF41FF41FF41FF41FF415F
:10515000FF41FF41BF39FF39FF41FF41FF41FF419F
:10516000FF41FF41FF41FF41FF41FF41FF41FF413F
:10517000FF41FF41FF41FF41FF41FF41FF41FF412F
:10518000FF41FF41FF41FF41FF41BF39FF39FF416F
:10519000FF41FF41FF41FF41FF41FF41FF41FF410F
:1051A000FF41FF41FF41FF41FF41FF41FF41FF41FF
:1051B000FF41FF41FF41FF41FF41FF41FF41FF39F7
:1051C000BF39FF41FF41FF41FF41FF41FF41FF4127
:1051D000FF41FF41FF41FF41FF41FF41FF41FF41CF
:1051E000FF41FF41FF41FF41FF41FF41FF41FF41BF
:1051F000FF41FF41DF39DF39FF41FF41FF41FF41FF
:10520000FF41FF41FF41FF41FF41FF41FF41FF419E
:10521000FF41FF41FF41FF41FF41FF41FF41FF418E
:10522000FF41FF41FF41FF41FF41DF39DF39FF41CE
:10523000FF41FF41FF41FF41FF41FF41FF41FF416E
:10524000FF41FF41FF41FF41FF41FF41FF41FF415E
:10525000FF41FF41FF41FF41FF41FF41FF41FF414E
:10526000BF39FF41FF41FF41FF41FF41FF41FF4186
:10527000FF41FF41FF41FF41FF41FF41FF41FF412E
:10528000FF41FF41FF41FF41FF41FF41FF41FF411E
:10529000FF41FF41FF41BF39FF41FF41FF41FF4156
:1052A000FF41FF41FF41FF417F4A7F4AFF41FF41EC
:1052B000FF41FF41FF41FF41FF41FF41FF41FF41EE
:1052C000FF41FF41FF41FF41BF39DF39FF41FF414E
:1052D000FF41FF41FF41FF41FF41FF41FF41FF41CE
:1052E000FF41FF41FF41FF41FF41FF41FF41FF41BE
:1052F000FF41FF41FF41FF41FF41FF41FF41BF39F6
:10530000DF39FF41FF41FF41FF41FF41FF41FF41C5
:10531000FF41FF41FF41FF41FF41FF41FF41FF418D
:10532000FF41FF41FF41FF41FF41FF41FF41FF417D
:10533000FF41FF39BF39FF39FF39FF39FF39DF3905
:10534000DF39DF391F42FF415F4A5F4A9F527F4A80
:105350005F4A5F4A9F525F4A7F527F4A7F527F4A2D
:105360003F4A3F4AFF41DF39DF39BF39FF39DF3973
:10537000DF39DF39FF39DF39DF39DF39DF39DF394D
:10538000FF397F4A1F633F6B1F6B1F6B7F527F523A
:105390003F8C1E9DDAC4D9CC37DC98DC78DC78D41D
:1053A0003DADDE94DE941F847F4AFF39FF41FF410B
:1053B000FF41FF41FF41FF39DF39DF39FF39FF3955
:1053C000FF41FF41FF41FF41FF41FF41FF41FF41DD
:1053D000FF41FF41BF39FF39FF41FF41FF41FF411D
:1053E000FF41FF41FF41FF41FF41FF41FF41FF41BD
:1053F000FF41FF41FF41FF41FF41FF41FF41FF41AD
:10540000FF41FF41FF41FF41FF41BF39FF39FF41EC
:10541000FF41FF41FF41FF41FF41FF41FF41FF418C
:10542000FF41FF41FF41FF41FF41FF41FF41FF417C
:10543000FF41FF41FF41FF41FF41FF41FF41DF3994
:10544000BF39FF41FF39FF39FF41FF41FF41FF41B4
:10545000FF41FF41FF41FF41FF41FF41FF41FF414C
:10546000FF41FF41FF41FF41FF41FF41FF41FF413C
:10547000FF41FF41DF39DF39FF41FF41FF41FF417C
:10548000FF41FF41FF41FF41FF41FF41FF41FF411C
:10549000FF41FF41FF41FF41FF41FF41FF41FF410C
:1054A000FF41FF41FF41FF41FF41DF39DF39FF414C
:1054B000FF41FF41FF41FF41FF41FF41FF41FF41EC
:1054C000FF41FF41FF41FF41FF41FF41FF41FF41DC
:1054D000FF41FF41FF41FF41FF41FF41FF41FF41CC
:1054E000BF39FF41FF41FF41FF41FF41FF41FF4104
:1054F000FF41FF41FF41FF41FF41FF41FF41FF41AC
:10550000FF41FF41FF41FF41FF41FF41FF41FF419B
:10551000FF41FF41FF41BF39FF41FF41FF41FF41D3
:10552000FF41FF41FF41FF417F4A7F4AFF41FF4169
:10553000FF41FF41FF41FF41FF41FF41FF41FF416B
:10554000FF41FF41FF41FF41BF39DF39FF41FF41CB
:10555000FF41FF41FF41FF41FF41FF41FF41FF414B
:10556000FF41FF41FF41FF41FF41FF41FF41FF413B
:10557000FF41FF41FF41FF41FF41FF41FF41BF3973
:10558000DF39FF41FF41FF41FF41FF41FF41FF4143
:10559000FF41FF41FF41FF41FF41FF41FF41FF410B
:1055A000FF41FF41FF41FF41FF41FF41DF39DF394B
:1055B000FF415F4A1F427F4A3E63DE5A1E631CA5BD
:1055C0003D84D8DC97B4B594B27D30666F668E4E5C
:1055D0002F66D2758E562F66AD4E5066D385306ECF
:1055E0000F66937DD8DBFE9C5F4A3F421F631E849B
:1055F000DC941CA5DF5A7F735F6B3FA517DCFBAC07
:105600003BCDD6D4D7CC706EAF5E5176B48DF275EB
:105610000C4F4B378A2F4B472C470C4F506E506E18
:10562000ED5EAF66AF669076D694B69497AC7F7316
:10563000FF41FF41FF415F4A7F4A7F4A5F4A3F4245
:10564000FF41FF41FF41FF41FF41FF41FF41FF415A
:10565000FF41FF41BF39FF39FF41FF41FF41FF419A
:10566000FF41FF41FF41FF41FF41FF41FF41FF413A
:10567000FF41FF41FF41FF41FF41FF41FF41FF412A
:10568000FF41FF41FF41FF41FF41BF39FF39FF416A
:10569000FF41FF41FF41FF41FF41FF41FF41FF410A
:1056A000FF41FF41FF41FF39DF39FF39FF41FF4132
:1056B000FF41FF41FF41DF39DF39DF39FF393F4A21
:1056C000BF39FF413F4AFF39DF39FF39FF41FF4111
:1056D000FF41FF41FF41FF41FF41FF41FF41FF41CA
:1056E000FF41FF41FF41FF41FF41FF41FF41FF41BA
:1056F000FF41FF41DF39DF39FF41FF39DF39DF3952
:10570000DF39DF39FF41FF41FF41FF41FF41FF41E9
:10571000FF41FF41FF41FF41FF41FF41FF41FF4189
:10572000FF41FF41FF41FF41FF41DF39DF39FF41C9
:10573000FF41FF41FF41FF41FF41FF41FF41FF4169
:10574000FF41FF41FF41FF41FF41FF41FF41FF4159
:10575000FF41FF41FF41FF41FF41FF41FF41FF4149
:10576000BF39FF41FF41FF41FF41FF41FF41FF4181
:10577000FF41FF41FF41FF41FF41FF41FF41FF4129
:10578000FF41FF41FF41FF41FF41FF41FF41FF4119
:10579000FF41FF41FF41BF39FF41FF41FF41FF4151
:1057A000FF41FF41FF41FF417F4A7F4AFF41FF41E7
:1057B000FF41FF41FF41FF41FF41FF41FF41FF41E9
:1057C000FF41FF41FF41FF41BF39DF39FF41FF4149
:1057D000FF41FF41FF41FF41FF41FF41FF41FF41C9
:1057E000FF41FF41FF41FF41FF41FF41FF41FF41B9
:1057F000FF41FF41FF41FF41FF41FF41FF41BF39F1
:10580000DF39FF41FF41FF41FF41FF41FF41FF41C0
:10581000FF41FF41FF41FF41FF41FF41FF41FF4188
:10582000FF41FF39FF39FF41FF41DF39BF5298D4B3
:10583000B9CC3F849BDD95D4F59C93853286CD5EB3
:105840008F66EC562B3F8F661176358D4F5E89271C
:10585000692F692F692F8927C827A92FEC46306641
:10586000D275569C38DCFAC4D7D3AD4ECE56CE5E38
:105870006B37A9278E568E560C47ED564B3F89271E
:105880004A370C476E5E0B37492F4A2F692F692F15
:105890004A2F2B372A372A37492F0B3F6F5E8E56F8
:1058A0000C47EC466F6E5176106E6F66F385F6D33B
:1058B000F58C368C36948E5EAD56306EDAD31F84FE
:1058C000FF41FF41FF41FF41FF41FF41FF41FF41D8
:1058D000FF41FF41BF39FF39FF41FF41FF41FF4118
:1058E000FF41FF41FF41FF41FF39DF39DF39DF3938
:1058F000FF39FF39DF39DF39FF39DF39DF39FF3968
:10590000FF39FF41FF41FF41FF41BF39FF39FF41EF
:10591000FF41FF41FF41FF41FF41FF41FF41FF4187
:10592000FF41FF41FF417F4ABF527F52FF41FF3994
:10593000FF39FF41FF417F73DF9CBFC5DF9CFF5AEA
:105940003F4ABF52BF7BFF9CFE7B3F4AFF39FF416E
:10595000FF41FF41FF41FF41FF41FF41FF41FF394F
:10596000FF411F42FF41FF41FF41FF41FF41FF4116
:10597000FF41FF41DF39FF41DF393F421D84FCA475
:105980001CA5FE5AFF41FF39FF41FF41FF41FF4186
:10599000FF41FF41FF41FF41FF41FF41FF41FF4107
:1059A000FF41FF41FF41FF41FF41DF39DF39FF4147
:1059B000FF41FF41FF41FF41FF41FF41FF41FF41E7
:1059C000FF41FF41FF41FF41FF41FF41FF41FF41D7
:1059D000FF41FF41FF41FF41FF41FF41FF41FF41C7
:1059E000BF39FF41FF41FF41FF41FF41FF41FF41FF
:1059F000FF41FF41FF41FF41FF41FF41FF41FF41A7
:105A0000FF41FF41FF41FF41FF41FF41FF41FF4196
:105A1000FF41FF41FF41BF39FF41FF41FF41FF41CE
:105A2000FF41FF41FF41FF417F4A7F4AFF41FF4164
:105A3000FF41FF41FF41FF41FF41FF41FF41FF4166
:105A4000FF41FF41FF41FF41BF39DF39FF41FF41C6
:105A5000FF41FF41FF41FF41FF41FF41FF41FF4146
:105A6000FF41FF41FF41FF41FF41FF41FF41FF4136
:105A7000FF41FF41FF41FF41FF41FF41FF41BF396E
:105A8000DF39FF41FF41FF41FF41FF41FF39DF396E
:105A9000DF39FF41FF41FF41FF41FF39FF41DF395E
:105AA000DF391F427F4ADF39FF391F42F8DBE72722
:105AB0006A372F66927D758C1CA57EB5F49532767B
:105AC000759DB4A55176506E316E5066ED46A82F87
:105AD0002B47ED46EC46D8ABDC941E637F73B8DCF5
