:020000040800F2
:10000000FCFF002059120000C1140000C1140000C0
:10001000C1140000C1140000C1140000C11400008C
:10002000C1140000C1140000C1140000C11400007C
:10003000C1140000C1140000C1140000C11400006C
:10004000C1140000C1140000C1140000C11400005C
:10005000C1140000C1140000C1140000C11400004C
:10006000C1140000C1140000C1140000C11400003C
:10007000C1140000C1140000C1140000C11400002C
:10008000C1140000C1140000C1140000C11400001C
:10009000C1140000C1140000C1140000C11400000C
:1000A000C1140000C1140000C1140000C1140000FC
:1000B0001D130000C1140000C1140000C114000091
:1000C000C1140000C1140000C1140000C1140000DC
:1000D000C1140000C1140000C1140000C1140000CC
:1000E00099140000C1140000C1140000C1140000E4
:1000F000C1140000C1140000C1140000C1140000AC
:10010000C1140000C1140000C1140000C11400009B
:10011000C1140000C1140000C1140000C11400008B
:10012000C1140000C1140000C1140000C11400007B
:10013000C1140000C1140000C1140000C11400006B
:10014000C1140000C1140000C1140000C11400005B
:1001500081B000F20C02116000F208021368C3F3D0
:10016000000202B9F8E700F20C02126890B201B086
:100170007047FFFF81B0CDF800E0002252B207497E
:100180000A6000F063F8002000F060F8012252B22B
:1001900002490A60DDF800E001B07047B4812242F4
:1001A00081B0CDF800E00720FFF7E4FFDDF800E0C4
:1001B00001B0704783B0CDF800E000F0FF031A09EA
:1001C000104603F00F02134614E0194A02921FE092
:1001D000184A02921CE0184A029219E0174A029249
:1001E00016E0174A029213E0164A029210E0164AED
:1001F00002920DE00028E8D00128E9D00228EAD0D8
:100200000328EBD00428ECD00528EDD00628EED04A
:10021000012212B29A40ADF8042002980A46BDF8B5
:10022000041000F093FCDDF800E003B0704700BF5D
:1002300000080140000C0140001001400014014082
:1002400000180140001C01400020014081B0CDF8A1
:1002500000E000F065F8C0B2DDF800E001B07047E2
:1002600081B0CDF800E081B20348FFF771FFDDF8FF
:1002700000E001B0704700BF003C004081B0CDF805
:1002800000E081B20348FFF763FFDDF800E001B052
:10029000704700BF0038004081B0CDF800E081B267
:1002A0000348FFF755FFDDF800E001B0704700BFDD
:1002B0000030014081B0CDF800E000F21101C8B279
:1002C000FFF758FFDDF800E001B0704710B90022D9
:1002D0000A7001E001220A707047FFFF81B000231D
:1002E0000360CB009BB242EA030304689BB244EA7A
:1002F00003030360051D13141C462B6864F382037B
:100300002B6000F21C0500242B6864F3CB232B60C8
:100310000124036864F38613036001B07047FFFF94
:1003200081B0CDF800E0034C2468A047DDF800E080
:1003300001B070475400002081B0194900EA010162
:10034000084600220EE0042022E0082020E01020D1
:100350001EE020201CE040201AE0802018E040F23F
:10036000001015E00F498842EDD00F498842ECD0CB
:100370000E498842EBD00E498842EAD00D498842A6
:10038000E9D00D498842E8D00C498842E7D01046B0
:100390000B49096841EA000209490A6001B0704747
:1003A00000FCFFFF00080140000C0140001001406C
:1003B0000014014000180140001C014000200140D1
:1003C0001810024083B0CDF800E08DF8081000232B
:1003D0005BB20A4A1360FFF739FF8DF804009DF8FD
:1003E0000800FFF733FF01235BB2044A13609DF856
:1003F0000400DDF800E003B0704700BFB481224282
:1004000081B0CDF800E0FFF7CBFE00F00E00C0B2E7
:100410004008DDF800E001B07047FFFF81B004281C
:1004200006D11949096841F4803217490A6028E069
:10043000052806D11449096841F4003212490A60BE
:100440001FE0062806D11049096841F480220E49B0
:100450000A6016E00F2806D10C49096841F0020233
:100460000A490A600DE010280BD3A0F210046109BC
:100470008A0007498B1804F01F024FF001019140D8
:10048000196001B0704700BF24ED00E010E000E00B
:1004900000E100E086B0CDF800E002918DF80C207C
:1004A000002464B2124B1C60FFF7D0FE8DF80500EB
:1004B0000025E9B29DF80C3099420FD2029B5B18DF
:1004C00005938DF804100020FFF7C0FE9DF804107E
:1004D000059B18704B1CDDB2E9B2EBE7012464B256
:1004E000034B1C609DF80500DDF800E006B0704786
:1004F000B481224281B0CDF800E0012252B23E49DF
:100500000A6000F268010B686FF0006103EA010203
:10051000144603F00061C90E0B4602F00041B1F130
:10052000004F02D135490A6801E035490A6804F4F0
:100530007021090C0E464FF6FF7104EA01010D46C9
:1005400004F44011B1F5401F0DD16FF0706102EA63
:1005500001010E462A490A686FF070610A40284975
:100560000A60324617E004F48011B1F5801F09D10A
:100570004FF00301B140C94302EA010141F070614B
:100580000A4608E0610D090105FA01F1C94302EAD2
:10059000010141F070622BB1610D090105FA01F111
:1005A0000A43FFE704F00041B1F1004F02D11349C3
:1005B0000A6001E012490A6040F2000A81464FEAEF
:1005C0008A0109EB01010968B1F1FF3F10D009F17F
:1005D00034014FEA8A03C91809680A4609EB030186
:1005E000096808461146FFF7E5FD0AF1010AE6E74A
:1005F000DDF800E001B07047000342421C000140FA
:100600000400014084B0CDF800E002918DF80C2088
:10061000002464B2134B1C60FFF718FE8DF8040031
:1006200000238DF805309DF80C409DF80530A3425D
:100630000DD2029B1B78D8B2FFF708FE029B5B1C11
:1006400002939DF805305B1C8DF80530EBE7012423
:1006500064B2044B1C609DF80400DDF800E004B0B7
:10066000704700BFB481224283B0CDF800E08DF81E
:10067000081000235BB20A4A1360FFF751FE8DF8A1
:1006800004009DF80800FFF74BFE01235BB2044A0B
:1006900013609DF80400DDF800E003B0704700BF70
:1006A000B481224282B0CDF800E000218DF8041020
:1006B00001A9FFF70BFE3B49097801F00F01C9B210
:1006C000002936D19DF8041001291FD19DF804108E
:1006D0000A0192B29DF80410490189B20A4392B20C
:1006E0009DF80410890189B20A4392B29DF8041062
:1006F000C90189B242EA010189B20A0292B22A49C9
:10070000096841EA020228490A6005E026490968A9
:1007100001F4706224490A600420082808D24200CB
:1007200022498A189DF804101170401CC0B2F4E7E9
:1007300034E09DF8041001291ED19DF804104A00F0
:1007400092B29DF8041041EA020292B29DF80410A0
:10075000890089B20A4392B29DF80410C90089B297
:1007600042EA010189B20A0292B20F49096841EADC
:1007700002020D490A6005E00B49096801F4704264
:1007800009490A600020042808D2420007498A1853
:100790009DF804101170401CC0B2F4E7DDF800E0D1
:1007A00002B070470B0000200C1801402B00002005
:1007B00082B0CDF800E000218DF8041001A9FFF708
:1007C00085FD2649097801F00F01C9B2C1F1070280
:1007D00012B2D0B2C1F10301CBB2D1B24A0020496A
:1007E0008A189DF8041011705A001D498A189DF846
:1007F00004101170012109B201FA00F212B20121B4
:1008000009B2994009B242EA010109B209028CB267
:100810009DF80410012914D19DF8041001FA00F28A
:1008200092B29DF80410994089B242EA010189B25E
:100830000A0292B20B49096841EA020209490A60B8
:1008400007E0E24392B20749096801EA020205495A
:100850000A60DDF800E002B0704700BF0B00002026
:100860002B0000200C18014082B0CDF800E00021E0
:100870008DF8041001A9FFF729FD0020082825D2D2
:10088000420014498A189DF8041011709DF8041054
:1008900001290CD19DF80410814089B20A0292B25C
:1008A0000D49096841EA02020B490A600BE09DF814
:1008B0000410814089B20A0292B20749096801EA2C
:1008C000020205490A60401CC0B2D7E7DDF800E02B
:1008D00002B070472B0000200C18014081B0CDF809
:1008E00000E01720FFF746FCDDF800E001B070479C
:1008F00083B0CDF800E00290FFF782FD8DF805008F
:10090000FFF7D8FC8DF80400C2B202996120FFF70E
:10091000C1FD9DF805100A0292B29DF8041051180D
:1009200088B2DDF800E003B07047FFFF82B0CDF879
:1009300000E000218DF8041001A9FFF7C7FC184B57
:10094000197801F00F01C9B2491E09B24A001549D0
:100950008A189DF8041011701946097801F00F01EA
:10096000C9B24A1E12B2012109B2914009B209026C
:1009700088B29DF8041041B9C24392B20A4909688D
:1009800001EA020208490A6005E00749096841EAEC
:10099000000205490A60DDF800E002B0704700BFC0
:1009A0000B0000202B0000200C18014081B0EFF359
:1009B000108C604662B601B07047FFFF81B0CDF881
:1009C00000E0C1B22720FFF7FDFCDDF800E001B038
:1009D0007047FFFF83B0CDF800E08DF8040002916E
:1009E0000B4C0C4B1C600C4C0C4B1C60012464B277
:1009F0000B4B1C601046FFF77DFD029A9DF804101A
:100A00000848FFF76BFCDDF800E003B0704700BF5B
:100A10006102000054000020FFFFFFFF580000208B
:100A2000BC034242003C004081B0EFF3108C6046B2
:100A300072B601B07047FFFF81B0CDF800E0012130
:100A400049B20D480160002149B20C480160002103
:100A50000B48016040F280410A48016040F22C00DE
:100A6000FFF7DCFC012149B207480160034801603F
:100A7000DDF800E001B07047800342420000004210
:100A8000280000402C0000408001004281B0CDF8D9
:100A900000E0012149B20D48016040F200310C48EC
:100AA000016000210B48016040F200410A480160EA
:100AB0000A48006840F480610848016040F238004C
:100AC000FFF7ACFCDDF800E001B0704700034242E4
:100AD00010000140080401400C04014000040140E2
:100AE00010E0002252B20B490A6011E0012252B21A
:100AF00008490A600CE0012252B206490A60064920
:100B00000A6005E00028ECD00128EFD00228F2D0DE
:100B1000704700BF880122420000004281B0CDF83A
:100B200000E00021E120FFF74DFCDDF800E001B01E
:100B30007047FFFF81B0CDF800E00021E220FFF711
:100B400041FCDDF800E001B07047FFFF81B0CDF857
:100B500000E08CB21546774B00EA03031E461846A8
:100B6000FFF7EAFBB4F1FF0F0CD1734B9D4203D1A9
:100B70004FF033333360D9E0422D03D14FF044338B
:100B80003360D3E04FF6FF739C4214D16A4B9D4211
:100B900007D14FF033333360341D4FF033332360CC
:100BA000C4E0422D07D14FF044333360341D4FF081
:100BB00044332360BAE00021002005F001030BB1AB
:100BC00000211DE005F0020333B105F4C0730BB141
:100BD000082100E0042113E005F0040333B105F01F
:100BE00020030BB1042100E0002109E005F0080317
:100BF00033B105F020030BB10C2100E00821FFE721
:100C00004E4B05EA03030BB1032009E005F4007322
:100C10000BB1022004E005F480630BB10120FFE773
:100C200005F00C030BB10143FFE704F0FF039BB297
:100C3000002B3BD0376800201FFA84F832462E463E
:100C400008282CD24FF0010303FA00F408EA040349
:100C5000A34222D185004FF00F03AB40DB4307EAEC
:100C6000030401FA05F344EA03031D4606F4817305
:100C7000B3F5817F05D102F214044FF001038340E4
:100C8000236006F08203822B05D102F210044FF09C
:100C90000103834023602F46FFE7401CD0E7176025
:100CA0001FFA88F00F463146164602E00F462946E5
:100CB000A0B2B0F1FF0F39D9331DD3F80080002264
:100CC000082A30D202F208044FF0010303FA04F4B8
:100CD00000EA0403A34224D195004FF00F03AB4078
:100CE000DB4308EA030407FA05F344EA030801F4C6
:100CF0008173B3F5817F07D106F2140502F208046F
:100D00004FF00103A3402B6001F08203822B07D137
:100D100006F2100502F208044FF00103A3402B6015
:100D2000FFE7521CCCE7331DC3F80080DDF800E07C
:100D300001B0704700FCFFFF140008000008080025
:100D400081B0CDF800E04FF0420289B2FFF7FEFE1D
:100D5000DDF800E001B0704781B0CDF800E0044A52
:100D600089B2FFF7F3FEDDF800E001B0704700BF85
:100D70001400080081B04FF000094FF0000CBDEBEB
:100D80000A0F04DCBDEB0B0F01DBD446EA464BF83F
:100D9000049BBBEB0A0FFAD1BCEB0A0F05DDE24660
:100DA000D9F800B00BF1040BF1E701B07047FFFF79
:100DB000002149B20248016002480160704700BF4B
:100DC000000000428801224281B0CDF800E0FFF728
:100DD0002BFE27217020FFF747FC00F07002D2B2F3
:100DE0000BE010210B4801700DE020210948017033
:100DF00009E040210748017005E0102AF1D0202ABF
:100E0000F3D0402AF5D0FFF7D1FDDDF800E001B0C6
:100E1000704700BF4100002081B01CF8019B0BF817
:100E2000019BBBEB0A0FF8D101B070470022082AE2
:100E30000CD25100064841180020087051000448A7
:100E40004018401C0270521CD2B2F0E7704700BF3D
:100E50002B000020FFFFFFFF83B0CDF800E08DF8EE
:100E6000082043181BB25B1C8DF80430FFF7DCFD33
:100E70000124384B1C700020FFF732FEFFF74EFEB6
:100E8000FFF758FE7020FFF799FD0024324B1C70CD
:100E90003F212120FFF796FA3F212220FFF792FA07
:100EA0009DF808102520FFF78DFA9DF804102620E4
:100EB000FFF788FA0F212020FFF784FA052227493F
:100EC0002A20FFF79FFB052225492B20FFF79AFBDD
:100ED00003212C20FFF776FA04212D20FFF772FA68
:100EE00005212E20FFF76EFA06212F20FFF76AFA60
:100EF00020213120FFF766FA20213220FFF762FA25
:100F000020213320FFF75EFA20213420FFF75AFA20
:100F100020213520FFF756FA20213620FFF752FA1C
:100F200049F6FF67C0F224077F1EFDD100BF00BF56
:100F300000BF00BF00BF002464B20A4B1C600A4B14
:100F40001C60FFF733FD0120FFF7CAFDDDF800E06C
:100F500003B0704700000020410000200100002085
:100F60000600002000020042000000420548007810
:100F700018B10548007800B101E0002000E0012030
:100F8000704700BF000000204100002082B0CDF873
:100F900000E0044600212170A21C00211180221DC6
:100FA00000211170621D0021117004F2080200215D
:100FB00011605F49097801B9B6E0FFF735FD9EE0A1
:100FC0002346FFE701935B48FFF792FC5A490880EC
:100FD000FFF784FC019B00F00101C9B20029F1D0A8
:100FE000022256490A7001934020FFF7E7FC019B5B
:100FF0004F49097819709A1C4F490988118003F2EA
:1010000008024C4911608AE002224C490A7001949E
:101010002020FFF7D3FC1020FFF7D0FC0820FFF7BB
:1010200015F9019C464B188020212170621D19463C
:10103000098801F00F011170221D1946098801F07D
:10104000F00189B20909117069E03E4B1A7819461E
:101050000978491C1970032A02D1042237490A7001
:1010600001940820FFF786F8019C354B1880102169
:101070002170621D1946098801F00F011170221DAF
:101080001946098801F0F00189B20909117021E0BF
:101090001020FFF793FC012228490A702AE0102053
:1010A000FFF78CFC0220FFF71BFD032223490A7087
:1010B00020E01020FFF782FC0220FFF711FD032241
:1010C0001E490A7016E01020FFF778FC02221B4927
:1010D0000A700FE0194909780229D9D0174909780F
:1010E0000129DCD0154909780329E2D01349097890
:1010F0000429E8D013E07020FFF760FC0FE00C49F2
:10110000097840293FF45CAF0949097820293FF468
:101110007BAF0749097810293FF497AFEBE700222E
:1011200003490A70FFF742FCDDF800E002B07047A7
:10113000410000200B000020420000205000002051
:10114000520000205100002081B0CDF800E041F2B3
:101150000C40C4F201004FF001014FEA4131FFF7AA
:10116000FBFD41F20C00C4F201004FF001014FEA17
:101170008101FFF7F1FD41F20840C4F201004FF098
:1011800001014FEA8121FFF7DBFDDDF800E001B04E
:101190007047FFFF83B0CDF800E01E49097801F0E9
:1011A000F0018DF808101FE00120FFF75DFB2DE036
:1011B0000120FFF7BBFB29E00120FFF7F9FA25E04A
:1011C0000120FFF76FFA21E00020FFF74DFB1DE043
:1011D0000020FFF7ABFB19E00020FFF7E9FA15E06C
:1011E0000020FFF75FFA11E09DF808101029DBD00E
:1011F0002029DDD03029DFD04029E1D05029E3D0AB
:101200006029E5D07029E7D08029E9D0DDF800E039
:1012100003B070470B00002081B0CDF800E0002142
:1012200049B20A480160012149B209480160FFF74B
:1012300003FCFFF72BFC074A40F204310320FFF7C1
:10124000C9FBDDF800E001B0704700BF8801224211
:10125000B4812242C814000083B000F081F800F08D
:10126000B7F900F073F800F073F94FF600712148F8
:10127000FFF772FD002120480160FFF7D7FDF02144
:101280001E48017005211E48017040211D48029032
:10129000017006211C480190017000211B4800903C
:1012A0000170FFF751FFFFF7B7FF44F67F77C0F2F9
:1012B00012077F1EFDD100BF00BF00BF00BF00BFEF
:1012C0000121134801700298027801980178009872
:1012D0000078FFF7C1FDFFF749FE48B10D48FFF761
:1012E00055FE0C480078402802D10B48FFF752FF0A
:1012F000F1E7FEE7001801400C1801403B00002018
:101300003C0000203D0000203E0000203F00002067
:1013100040000020440000200B00002081B0CDF8E8
:1013200000E0002149B20748016007480160FFF76B
:101330003FFD002149B204480160DDF800E001B042
:10134000704700BF000200420000004281B0024925
:101350000248016001B07047401901005C000020A4
:1013600081B0444A444B454C45494BF6803081425C
:1013700006D94448006840F002014248016011E08B
:1013800045F6C050814206D93E48006840F0010150
:101390003C48016006E03B4801686FF007000140EF
:1013A000384801603848036038480460384802EA29
:1013B00000013848016002F0010040B1194635488B
:1013C000006800F00200002800D1F8E700E01946AC
:1013D00002F4803040B10B462E48006800F4003023
:1013E000002800D1F8E700E00B4602F0805068B119
:1013F0002848006840F08051264801602548006870
:1014000000F00050002800D1F8E7FFE702F080600C
:1014100078B12048006840F080611E4801601146A4
:101420001A461C48006800F00060002800D1F8E768
:1014300001E011461A4601F0807070B1154800684D
:1014400040F080711348016011461248006800F0B6
:10145000007000B9F9E70A46FFE70B48006800F0A2
:101460000C01900000F00C00814200D0F5E701B0C3
:10147000704700BF8100010502841D004406010081
:101480004019010000200240041002402C100240CC
:10149000FFFF0F00001002404DF8044D81B0CDF861
:1014A00000E0012149B205480160FFF78DFCDDF83D
:1014B00000E001B05DF8044B704700BFA8822042F5
:1014C00081B0FEE701B070472A0000002B00000049
:1014D0002C000000FFFFFFFF0000000000000000E4
:1014E00000000000000000000000000000000000FC
:1014F00000000000000000000000000018080000CC
:10150000180800001808000000000000000000009B
:1015100000000000000000000000000000000000CB
:1015200000000000000000000000000000000000BB
:101530000011200800000000000000000000000072
:1015400000000000023443101001B3B4B5B602FF2E
:1015500000B540F2000BC2F2000B40F20B0AC2F2DF
:10156000000A41F2445CC0F2000CFFF755FC00BDDC
:101570007047FFFFFFFFFFFFFFFFFFFFFFFFFFFFC2
:10158000FFFFFFFFFFFFFFFFFFFFFFFFFFFFFFFF6B
:10159000FFFFFFFFFFFFFFFFFFFFFFFFFFFFFFFF5B
:1015A000FFFFFFFFFFFFFFFFFFFFFFFFFFFFFFFF4B
:1015B000FFFFFFFFFFFFFFFFFFFFFFFFFFFFFFFF3B
:1015C000FFFFFFFFFFFFFFFFFFFFFFFFFFFFFFFF2B
:1015D00000B540F2000BC2F2000B40F2600AC2F20A
:1015E000000AFFF7C7FB00BD7047FFFFFFFFFFFFCB
:00000001FF
