:100000000C94C19C0C9400000C9400000C94000013
:100010000C9400000C9400000C9400000C94000060
:100020000C9400000C9400000C94179E0C9400009B
:100030000C9400000C9400000C9400000C94000040
:100040000C9400000C9400000C9400000C94000030
:100050000C9400000C9400000C9400000C94000020
:100060000C9400000C9400000C9400000C94000010
:100070000C9400000C9400000C9400000C94000000
:100080000C9400000C9400000C9400000C940000F0
:100090000C9400000C9400000C9400000C940000E0
:1000A0000C9400000C9400000C9400000C940000D0
:1000B0000C9400000C9400000C9400000C940000C0
:1000C0000C9400000C9400000C9400000C940000B0
:1000D0000C9400000C9400000C9400000C940000A0
:1000E0000C9400000C9400000C9400000C94000090
:1000F0000C9400000C9400000C9400000C94000080
:100100000C9400000C9400000C9400000C9400006F
:100110000C9400000C9400000C9400000C9400005F
:100120000C9400000C9400000C9400000C9400004F
:100130000C9400000C9400000C9400000C9400003F
:100140000C9400000C9400000C9400000C9400002F
:100150000C9400000C9400000C9400000C9400001F
:100160000C9400000C9400000C9400000C9400000F
:100170000C9400000C9400000C9400000C940000FF
:100180000C9400000C9400000C9400000C940000EF
:100190000C9400000C94000000000000000000001F
:1001A0000C9400000C9400000C9400000C940000CF
:1001B0000C9400000C9400000C9400000C940000BF
:1001C0000C9400000C9400000C9400000C940000AF
:1001D0000C9400000C9400000C9400000C9400009F
:1001E0000C9400000C9400000C9400000C9400008F
:0401F0000C9400006B
:020000040001F9
:10398200BFEFBDBFBFE3BEBF0E94389E2F923F92E2
:103992004F925F926F927F928F929F920E940193B9
:1039A200B0E24B2EB0E05B2EB0E12B2EB0E03B2E0E
:1039B200C2D8B2E0B0930402B0EF4B2EB0E05B2E5F
:1039C200B0E42B2EB1E03B2E5AD8B2E07B2EB1E010
:1039D2006B2EB0EF4B2EB0E05B2EB0E42B2EB1E09D
:1039E2003B2E42DDBCEB2B2EB2E03B2E97DFB0E448
:1039F2008B2EB7E09B2EB8E86B2EB0E07B2EB0E5A5
:103A02004B2EB7E05B2EBAEB2B2EB0E03B2E8BDFBA
:103A1200B1E05B2EB0E06B2EB1E04B2EB8EE2B2E58
:103A2200B3E03B2E91DFCED80E947E7BB2E0B09312
:103A3200A200BFB7B068BFBF4424B3E03B2EB0E1E1
:103A42002B2E9DD886D80ADA40DD002309F4FCCF5C
:103A520040DB0091932010919420113009F4083139
:103A620039F469D9B8E2B0939320B0E0B0939420CE
:103A720010911F2020912020009185231017B0E083
:103A82002B0741F0AFD80091852300931F20B0E0AF
:103A9200B093202010911D2020911E200091882398
:103AA2001017B0E02B0709F4BFC0009188230093E0
:103AB2001D20B0E0B0931E2048DD0091322010910D
:103AC2003320009307211093082100912B2110919C
:103AD2002C2120912D2130912E210E94F89240E03C
:103AE20050E060E870E40E94937B40E050E068ECB4
:103AF20072E40E949E7BA801B90100E010E02AE76F
:103B020033E40E944F760E9429760093322010936C
:103B120033200091502010915120009331211093B5
:103B220032210091B6231091B7232091B82330910E
:103B3200B9230E94F89240E050E060E273E40E94F0
:103B4200937B40E050E46CE176E40E949E7BA80106
:103B5200B90100E010E022E533E40E944F760E94B2
:103B62002976009350201093512020919320309178
:103B7200942008E210E002171307D4F5B2E04B2EAE
:103B8200B0E02B2EB8EF3B2E0E94FD8D00919320CA
:103B92001091942001501040809032209090332058
:103BA20060909320709094204090072150900821BB
:103BB20018010E948369B2E04B2EBFE12B2EB0E0C8
:103BC2003B2E0E94FD8D0091932010919420015074
:103BD20010408090502090905120609093207090DF
:103BE2009420409031215090322118010E94836923
:103BF2006090B6237090B7238090B8239090B92339
:103C020020902B2130902C2140902D2150902E215C
:103C12000E940F9300919320109194200F5F1F4FE9
:0C3C2200009393201093942014CFFFCF48
:10260200B2E0B0935000B0915100B1FD01C0FBCFD8
:0C261200B8EDB4BFB1E0B09340000895F3
:102B3800B9EFB0930E21B1E8B0930F2120920102B2
:0C2B480040920202B1E0B0930002089538
:102A80002F923F924F925F926F927F928F9200911E
:102A9000952010919620103009F4013091F0B8E3A0
:102AA000B0939423B2E6B0939523BAE1B093972301
:102AB000B2E6B0939823B5E6B0934121BFE5B09359
:102AC000422120925A2130925B2140920C21509257
:102AD0000D214214530420F4B0E0B093092103C047
:102AE000BAE5B0930921B1E04B2E2224332485D8D6
:102AF0007724882466245524332444242224B0E0F7
:102B0000BF93BF930E94BB80ADB7BEB71296ADBF57
:102B1000BEBF44245524222433240E941D8DB0E0DE
:102B2000B09393230E943B8B8F907F906F905F9028
:082B30004F903F902F90089593
:101BFA0020925E2130925F21B0E04B1621F4B1E0D1
:0C1C0A00B093962302C0409296230895E8
:10017600CF93DF93CDB7DEB72696088119812092FB
:100186005C21309248214092492150925D21609233
:100196004321709246218092472100934A21109371
:0801A6004B21DF91CF91089578
:101A3A0020926021309261214092372150923821C0
:021A4A000895FD
:101676002F923F92B0910407BD7FB0930407B091BB
:101686000007B260B0930007B0910407B061B09351
:101696000407B0910007B061B0930007B09104074A
:1016A600B062B0930407B0910007B062B093000730
:1016B600B0910007B460B0930007B0910007B8601E
:1016C600B0930007B0910407B460B0930407B091DB
:1016D6000407B860B0930407BFEFB09320070E94D9
:1016E6007E7BB0910407B260B09304070E947E7BB4
:1016F6000E947E7B3324BAEE2B2E0E94647BB0E2DE
:101706003B2EBBEE2B2E0E94647BBCE03B2EBCEE38
:101716002B2E0E94647BB4EC3B2EBDEE2B2E0E943A
:10172600647BB0E43B2EB8EE2B2E0E94647BB8E3BC
:101736003B2EB9EE2B2E0E94647BB1E03B2EB1EF1F
:101746002B2E0E94647BB0E13B2EB2EF2B2E0E9423
:10175600647BB3EA3B2EB7E22B2E0E94647B3324D4
:10176600B0E42B2E0E94647B3324B1E42B2E0E941E
:10177600647BB1E03B2EB2E42B2E0E94647BB3E186
:101786003B2EB3E42B2E0E94647BB0E13B2EB4E4E7
:101796002B2E0E94647BB6E23B2EB5E42B2E0E94D4
:1017A600647BB8E03B2EB6E42B2E0E94647BB1E549
:1017B6003B2EB7E42B2E0E94647BB2E03B2EB8E4AE
:1017C6002B2E0E94647BB2E13B2EB9E42B2E0E94A5
:1017D600647BB8E13B2EBAE42B2E0E94647BB9E110
:1017E6003B2EBBE42B2E0E94647BB4E13B2EBCE473
:1017F6002B2E0E94647BB9E13B2EB0E52B2E0E9476
:10180600647BBFE23B2EB1E52B2E0E94647BBCE2DB
:101816003B2EB2E52B2E0E94647BBEE33B2EB3E546
:101826002B2E0E94647BBFE33B2EB4E52B2E0E9439
:10183600647BBFE33B2EB5E52B2E0E94647BBEE2A4
:101846003B2EB6E52B2E0E94647BB7E73B2EB7E511
:101856002B2E0E94647BBBE03B2EB8E52B2E0E940C
:10186600647BB6E03B2EB9E52B2E0E94647BB7E085
:101876003B2EBAE52B2E0E94647BBDE03B2EBBE5DA
:101886002B2E0E94647BBDE13B2EBCE52B2E0E94D5
:10189600647BBCEC3B2EBDE52B2E0E94647B009145
:1018A60009210A35C1F43324B4E02B2E0E94647B4F
:1018B600BFEE3B2EB5E02B2E0E94647BB1E03B2EA3
:1018C600B8E02B2E0E94647BBFE33B2EB9E02B2EA3
:1018D6000E94647B17C0B1E03B2EB4E02B2E0E9421
:1018E600647BBFE33B2EB5E02B2E0E94647B332442
:1018F600B8E02B2E0E94647BBFEE3B2EB9E02B2E68
:101906000E94647B009109210A3591F400913820E8
:10191600013039F4B8EC3B2EB6E12B2E0E94647BE5
:1019260006C0B8E03B2EB6E12B2E0E94647B11C0A8
:1019360000913820013039F4B8EA3B2EB6E12B2E5F
:101946000E94647B06C0B8E63B2EB6E12B2E0E94B1
:10195600647BBBE13B2EBBE12B2E0E94647BB1E096
:101966003B2EBAE12B2E0E94647BBFE23B2EB4E2F3
:101976002B2E0E94647BB7E53B2EB5E22B2E0E94F0
:10198600647BBDE83B2EB3E22B2E0E94647BB6E35C
:101996003B2EB8E12B2E0E94647BB1E03B2EB9E1D1
:1019A6002B2E0E94647B3324B1E02B2E0E94647B95
:1019B600B8E83B2EBFE12B2E0E94647B0E945C7B25
:1019C600B0E83B2EBFE12B2E0E94647B0E945C7B1D
:1019D600B0E93B2EBFE12B2E0E94647B0E945C7B0C
:1019E600B0ED3B2EBFE12B2E0E94647B0E945C7BF8
:1019F600B5E03B2EB7E12B2E0E94647B3324B6E381
:101A06002B2E0E94647BB8E33B2EB8E22B2E0E945D
:101A1600647B0E94887B0E94887B0E94887B0E9450
:101A2600887BBCE33B2EB8E22B2E0E94647B3F9062
:041A36002F90089550
:020000040000FA
:10F6FC0021E11CE30CEC0A95F1F71A95E1F72A9538
:04F70C00D1F7089594
:10F6C8002F92B0910407BF7DB09304073F92E09159
:10F6D8009423F091952309953F90232CE09197234B
:10F6E800F09198230995B0910407B062B09304078C
:04F6F8002F900895B2
:10B8A4002092C308B091C208B7FD01C0FBCF089530
:00B8B40094
:10BAB8002092C309B091C209B7FD01C0FBCF089518
:00BAC8007E
:10BAA8002092C30AB091C20AB7FD01C0FBCF089526
:00BAB8008E
:10C9D0002092C30BB091C20BB7FD01C0FBCF0895ED
:00C9E00057
:10C47000B0910407BF7EB093040720922407B091C7
:10C480000407B77FB0930407B0910407B860B09376
:04C490000407089500
:10C43400B0910407B061B093040720922407B0912F
:10C444000407B77FB0930407B0910407B860B093B2
:04C45400040708953C
:10F6B80010ED0AEC0A95F1F71A95E1F700000895A4
:00F6C80042
:10F7100022E010EA03E90A95F1F71A95E1F72A9534
:06F72000D1F7000008957E
:020000040001F9
:10346A00B091C007B460B093C007B091C007B8600C
:10347A00B093C007B0910006BB7FB0930006B0912D
:10348A000006BD7FB0930006B4E8B0933321B3E0E1
:10349A00B09334212092A5233092A6234092A223EE
:1034AA005092A3236092C0237092C523B0E0B093D8
:1034BA00C623B093C723B0E0B093C823B093C923FF
:0234CA00089563
:0A391E0020923321309234210895E5
:1039280020920121309202214092052150920621D5
:10393800609203217092042180920A2190920B21B7
:023948000895E0
:10394A00B0E06B1611F4B1E05B1629F4B0910204F1
:10395A00B260B0930204B1E04B1641F44F923F9229
:10396A002F920E94E4802F903F904F90B0E04B1628
:08397A0011F40E945090089521
:1001C80000908200112700FC13950091010401237F
:1001D80009F0F6CF810120E0322FB7DA3F922F9253
:1001E80040E050E06AEF72E4A5DA40E050E060E0F9
:1001F80075E495DA40E050E060E87FE30E944F76CE
:100208002F903F900E94297600930A0410930B04C4
:10021800B0E0B0930804B0930904B0E0B0930C04C4
:10022800B0930D0421E11CE30CEC0A95F1F71A9543
:10023800E1F72A95D1F7B0914300B260B09343003B
:10024800B0914300BB7FB0934300B0914300B860C6
:0C025800B0934300B2E0B093000408959E
:020000040000FA
:08F7520068940E942C620895E6
:10C4580047E1662755272EF033231AF40E944659E0
:08C4680060E80E9403590895E9
:10B28C0000951095209530950F5F1F4F2F4F3F4F16
:02B29C00089513
:10B20600CFDF11F19F938F938EE790E0332351F0B8
:10B21600369527951795079548175907B4F44F5F44
:10B226005F4FF4CF80959095019622239AF0000FF8
:10B23600111F221F481759071CF041505040F5CFE7
:10B24600002711272227332708C033270FEF102F97
:0CB256002FE7322F8F919F91C3DE0895E7
:10B1A600002329F4112319F4222309F433230895E3
:00B1B60099
:10AFE600DFD039F041585F4F342F220F3695279521
:04AFF600362B089559
:10F73C00042E152E262E372E0E948864002E112E94
:06F74C00222E332E089569
:10C910003F932F931F930F93002D112D222D332D15
:10C920000E94315909F44EC0E62ED52EC42EB32EE6
:10C93000A22E912E802E0F911F912F913F910E9438
:10C94000315969F16E254C195D094038530744F59A
:10C9500041387FEF57078CF180E27724632E522E07
:10C96000412E302F222711270027000F111F221FD1
:10C97000331F441C551C661C771C28F048185908A6
:10C980006A087B0804C0480C591C6A1C7B1C0AF00E
:10C9900001608A9551F7415050400E94035917C0D9
:10C9A0000FEF102F2FE73FE76623C9F30E94D358FC
:10C9B000B1F3342D30E83425F2CF0027102F202F8B
:10C9C000302FEDCF0F900F900F900F90E9CF08957B
:00C9D00067
:10B26200A1DF79F0632F6078220F331F432F5FE74E
:10B27200451B55275040269530E8232B33279894B9
:0AB2820003C04427552766270895EE
:10F72600042E152E262E372E0E944A62002E112EEA
:06F73600222E332E08957F
:10C494000E94315991F1E62ED52EC42EB32EA22E30
:10C4A400912E802E002D112D222D332D0E943159D5
:10C4B40021F16E254C0D5D1D40385307FCF44138C5
:10C4C4007FEF570704F188279927AA27BB2770E233
:10C4D400B695A795979587953795279517950795B9
:10C4E40020F4880D991DAA1DBB1D7A9589F7032F89
:10C4F4003A2F292F182F0E9403590AC00FEF102F2B
:10C504002FE73FE7FACF0027102F202F302FF5CF4A
:02C51400089588
:10EC9E00042E152E262E372E0E941E61002E112EAA
:06ECAE00222E332E089512
:06C23C006894ADD90895DD
:10B59A002FDD09F441C0E62ED52EC42EB32EA22EDD
:10B5AA00912E802E002D112D222D332D21DD09F40F
:10B5BA003DC0842F952F8C199D09B9F072F490958E
:10B5CA00809501964C2D5D2D883180F5359527950E
:10B5DA00179507950197D1F708C08831E8F4B59413
:10B5EA00A794979487940197D1F766272EF0080DB0
:10B5FA00191D2A1D3B1D09C0801A910AA20AB30A05
:10B60A00082D192D2A2D3B2D332312F43ADE60E83A
:10B61A00F5DD01C0E3DC16C0002D112D222D332DDE
:10B62A00D6F7BCDDC1F340E83427F5CF082D192D34
:10B63A002A2D3B2D4C2D5D2D6E2D33235AF721DEFD
:06B64A0060E8E8CF08955E
:0EAFFA0033D121F0662309F044D198940895D4
:10EC52000E943159F1F05523C2F04F31A8F44731E7
:10EC6200C1F050F44195495E05C035952795179539
:10EC720007954A95D1F70DC04751000F111F221F6A
:10EC8200331F4A95D1F705C03FE7232F132F032FD8
:0CEC920004C0662311F00E94465908954A
:020000040001F9
:1020A00000908200112700FC139500910104012388
:1020B00009F0F6CF810120E0322F0E94A97B3F92E8
:1020C0002F924FE652E163E87FE30E94937B40E06A
:1020D00050E060E87FE30E944F762F903F900E948F
:1020E000297600930A0410930B04B0E0B09308041F
:1020F000B0930904B0E0B0930C04B0930D0421E157
:102100001CE30CEC0A95F1F71A95E1F72A95D1F743
:10211000B0914300BD7FB0934300B0914300B460E1
:10212000B0934300B0914300B77FB0934300B091A8
:102130005000B460B093500021E11CE30CEC0A9510
:10214000F1F71A95E1F72A95D1F7B1E0B0930004C1
:022150000895F0
:102BC60000908200112700FC139500910104012357
:102BD60009F0F6CFB0914300B160B0934300089579
:002BE600EF
:102B8000BBEDB0931021B8E5B0931121BCE5B09333
:102B90009D23BDE5B0939E23B0EBB0936106B0E4F6
:102BA000B0936206B0E0B093C109032D037004290D
:102BB000022900640093C00932FAB091C009B7F944
:062BC000B093C009089566
:102B5400BBEDB0938223B7E0B0938323B6E0B09388
:102B64008423B9E1B0938523BBE0B0938623BFE00F
:0C2B7400B0938723B0E0B093882308954D
:102E5E002F923F924F925F926F927F928F929F929C
:102E6E00B1E04B2EBFEF2B2E3B2E0E94FD8DBFEF00
:102E7E007B2E8B2EB1E06B2E5524BFEF3B2E4B2EAF
:102E8E00B1E02B2EBFEFBF93BF930E94BB80ADB7B7
:102E9E00BEB71296ADBFBEBFBDE28B2EB0E09B2E6D
:102EAE00B0E46B2EB1E07B2E44245524222433242F
:102EBE0049D9B1E04B2EB5E92B2EBAE23B2E0E943A
:102ECE00FD8DB5E97B2EBAE28B2EB1E06B2E55242B
:102EDE00B5E93B2EBAE24B2EB1E02B2EBAE2BF93F0
:102EEE00B5E9BF930E94BB80ADB7BEB71296ADBF1A
:102EFE00BEBFB0EF8B2EB0E09B2EB0E46B2EB1E0D8
:102F0E007B2EBEE24B2EB0E05B2E222433241AD948
:102F1E000DE61BE020E030E08824B0E06B2EB8EF29
:102F2E007B2E180129010E949E8EBCE06B2EB0E014
:102F3E007B2EBBE44B2EB0E05B2EB0EF2B2EB0E21F
:102F4E003B2E0E94F78E00EE1FE120E030E0882439
:102F5E00BFEF6B2E7B2E180129010E949E8EB8E3C7
:102F6E006B2EB0E07B2EB7E34B2EB0E05B2EB5EEB2
:102F7E002B2EB0E23B2E0E94F78E04E51DE520E0DD
:102F8E0030E08824BFEF6B2E7B2E180129010E94A2
:102F9E009E8EBBE76B2EB0E07B2EB6E74B2EB0E0DD
:102FAE005B2EB1E22B2EB0E23B2E0E94F78EB7E9DC
:102FBE006B2EB0E07B2EB8E74B2EB0E05B2EBEE062
:102FCE002B2EB0E23B2E0E94F78E03E213E720E099
:102FDE0030E038014901B9E74B2EB0E05B2EB4E189
:102FEE002B2EB0E03B2EB1E0BF930E94708FADB799
:102FFE00BEB71196ADBFBEBFB1E04B2EBFEF2B2EAD
:10300E003B2E0E94FD8DBFEF7B2E8B2EB1E06B2EE3
:10301E005524BFEF3B2E4B2EB1E02B2EBFEFBF93AF
:10302E00BF930E94BB80ADB7BEB71296ADBFBEBFF9
:10303E00B6EE8B2EB0E09B2EB3EE6B2EB0E07B2E59
:10304E00B1EC4B2EB0E05B2EBBE62B2EB0E03B2E50
:10305E00B0E0BF93B7E0BF930E94D182ADB7BEB7C9
:10306E001296ADBFBEBF07E01EE920E030E0882417
:10307E00B5E96B2EBAE27B2E180129010E949E8EB5
:10308E00B8EC6B2EB0E07B2EBCE84B2EB0E05B2E86
:10309E00B8E02B2EB0E23B2E0E94F78E88246624D9
:1030AE007724B4EF2B2EB1E03B2EB0E04B2E542CF8
:1030BE000E949E8E9F908F907F906F905F904F900A
:0630CE003F902F900895D1
:10215200CF93DF93CDB7DEB72997CDBFDEBF2196F0
:102162000091962306959101201BB0E03B0BA9013B
:1021720000E010E0201731071CF440E050E00FC0EF
:1021820000915A2110915B214017510740F00091B4
:102192005A2110915B2101501040A80100C000910A
:1021A200962310E001501040159507959801260DD1
:1021B200371D2F83388700E010E02017310724F401
:1021C200B0E0BF83B88711C02F81388500915A21B2
:1021D20010915B212017310740F000915A21109194
:1021E2005B21015010400F8318875F934F939F929A
:1021F2008F927F926F925F924F923F922F92320113
:102202004F8058841A010E9481752F903F904F9001
:102212005F906F907F908F909F904F915F919F9270
:102222008F927F926F925F924F923F922F923401E0
:102232004F8058841A010E9481752F903F904F90D1
:102242005F906F907F908F909F909F928F927F92DE
:102252006F925F924F923F922F92310112012401AD
:102262000E945A762F903F904F905F906F907F9090
:102272008F909F909F928F927F926F925F924F92D8
:102282003F922F92120124010E945A762F903F9082
:102292004F905F906F907F908F909F9000915C2104
:1022A200002309F417C100915E2110915F210C8374
:1022B2001D83009196230E830091962310E00F5FF9
:1022C2001F4F9801359527958901020D131D18019D
:1022D2008901040D151D28010091962310E00E5F5F
:1022E2001F4F9801359527958301021B130B380167
:1022F2008401021B130B480100915D21002309F4A4
:10230200AEC000914321003009F054C04A825B8282
:102312000A811B818016910608F44BC0940124198E
:1023220035090A811B81041915099F928F927F92A8
:102332006F925F924F923F922F92490138014090E3
:102342004A2150904B2120904621309047210E94F3
:10235200B07A2F903F904F905F906F907F908F90C8
:102362009F905F924F923F922F92B1E04B2E1801B5
:1023720043DC2F903F904F905F909F928F927F927D
:102382006F925F924F923F922F9223016A807B80DD
:102392000E9481752F903F904F905F906F907F9039
:1023A2008F909F900A811B810F5F1F4F0A831B83AF
:1023B200AFCF54C028823982088119816016710614
:1023C20008F44CC0930122193309088119810219BA
:1023D20013099F928F927F926F925F924F923F92D8
:1023E2002F924901380140904A2150904B21209070
:1023F2004621309047210E94B07A2F903F904F9013
:102402005F906F907F908F909F905F924F923F92DC
:102412002F92B1E04B2E1801EFDB2F903F904F909F
:102422005F909F928F927F926F925F924F923F92B4
:102432002F9268807980120124010E945A762F908F
:102442003F904F905F906F907F908F909F90088108
:1024520019810F5F1F4F08831983AECF32C05F927D
:102462004F923F922F92B1E04B2E20904821309014
:102472004921C2DB2F903F904F905F904A825B824E
:102482000A811B8180169106E0F09F928F927F92C3
:102492006F925F924F923F922F9223016A807B80CC
:1024A2000E9481752F903F904F905F906F907F9028
:1024B2008F909F900A811B810F5F1F4F0A831B839E
:1024C200DFCF0C811D8100935E2110935F210E816D
:1024D200009396232896CDBFDEBFDF91CF9108955A
:0024E200FA
:020000040000FA
:10EB0200CF93DF93CDB7DEB72197CDBFDEBF21967E
:10EB1200421453041CF481011201280100E010E0A8
:10EB2200201631061CF42224332408C000915A21F5
:10EB320010915B212016310608F085C000E010E03C
:10EB4200401651060CF47FC000915A2110915B21AE
:10EB52004016510638F000915A2110915B21015064
:10EB620010402801B1E0B883188100919623011763
:10EB720008F469C0288130E08901017010701030FA
:10EB820009F4003031F400E010E0021B130B98018D
:10EB920000C0890115950795A8019801260D371D1A
:10EBA20000E010E0201731075CF09A01260D371DB6
:10EBB20000910C2110910D212017310708F401C09A
:10EBC2003EC0B0910407BF7DB09304078A01060DD1
:10EBD200171D7F926F925F924F923F922F92280160
:10EBE2000E945A5C2F903F904F905F906F907F9061
:10EBF200910142165306F0F03F932F937F926F924A
:10EC02005F924F923F922F9220905E2130905F212F
:10EC1200E0914121F091422109952F903F904F9030
:10EC22005F906F907F902F913F9189010F5F1F4FEF
:10EC32009801DFCFB0910407B062B0930407088156
:10EC42000F5F088391CFCDBFDEBFDF91CF910895D3
:00EC5200C2
:10B8B4002F923F925F924F923F922F92B2E02B2EA3
:10B8C400E0919423F091952309952F903F90032DB7
:10B8D40010E03F922F92202EE0919723F09198232D
:10B8E4000995B3E02B2EE0919423F09195230995CB
:10B8F4002F903F90E0919723F09198230995B6E01B
:10B904002B2EE0919423F091952309954F905F900D
:10B91400052D10E05F924F92202EE0919723F09135
:10B9240098230995B7E02B2EE0919423F091952369
:10B9340009954F905F90242CE0919723F0919823E0
:10B944000995B2E22B2EE0919423F0919523099569
:06B954003F902F900895C2
:10BECA00B0910407B061B0930407032D10E000930A
:10BEDA002407B0910407B77FB0930407B091040711
:10BEEA00B860B093040720922407B0910407B77F83
:10BEFA00B0930407B0910407B860B093040708959B
:00BF0A0037
:10ECB400CF93DF93CDB7DEB72197CDBFDEBF2196CB
:10ECC400421453041CF481011201280100E010E0F5
:10ECD400201631061CF42224332408C000910C2190
:10ECE40010910D212016310608F071C000E010E0EB
:10ECF400401651060CF46BC000910C2110910D21AB
:10ED04004016510638F000910C2110910D2101504C
:10ED140010402801B1E0B8831881009196230117AF
:10ED240008F455C0288130E089010170107010305A
:10ED340009F4003031F400E010E0021B130B9801D9
:10ED440000C0890115950795A8019801260D371D66
:10ED540000E010E0201731075CF09A01260D371D02
:10ED640000915A2110915B212017310708F401C04A
:10ED74002AC081019A01A8014416550620F189018F
:10ED8400060D171D3F932F935F934F937F926F92BE
:10ED94005F924F923F922F9260905E2170905F211C
:10EDA4002A0118010E942F5F2F903F904F905F908F
:10EDB4006F907F904F915F912F913F918A010F5FE8
:10EDC4001F4FA801D9CF08810F5F0883A5CFCDBFFE
:08EDD400DEBFDF91CF9108952D
:10BE5E002F923F9200E010E02016310644F0009140
:10BE6E005A2110915B212016310608F401C023C01F
:10BE7E0000E010E04016510644F000910C211091A4
:10BE8E000D214016510608F401C015C0B0910407EB
:10BE9E00BF7DB09304077F926F9205DD6F907F9008
:10BEAE001301E0914121F09142210995B0910407CF
:0CBEBE00B062B09304073F902F900895ED
:10F56000CF93DF93CDB7DEB72897CDBFDEBF21960F
:10F570002F923F924F925F92B0E07B1611F4B0E071
:10F580006B1611F481018EC06814790411F48201A4
:10F5900089C0AE014A5F5F4F9E012D5F3F4F8E01D4
:10F5A0009F928F927F926F925F924F924A013901A0
:10F5B00028010E94855F4F905F90AE01495F5F4FC9
:10F5C0009E012C5F3F4F8E010F5F1F4F4A01390193
:10F5D000120128010E94855F6F907F908F909F900D
:10F5E000A30160E0762F098110E00880B0E01B2EB7
:10F5F0000019110920E017FD2FEF322F0E94095E3C
:10F600009F928F927F926F92A40160E0762F0E946A
:10F61000EE5E89019A016F907F908F909F90488154
:10F62000040F0A83A30160E0762F0C8110E00B80A9
:10F63000B0E01B2E0019110920E017FD2FEF322F2B
:10F640000E94095E9F928F927F926F92A40160E068
:10F65000762F0E94EE5E89019A016F907F908F90C5
:10F660009F904B81040F0D83A30160E0762F0F81E3
:10F6700010E00E80B0E01B2E0019110920E017FDEC
:10F680002FEF322F0E94095EA40160E0762F0E94C6
:10F69000EE5E89019A014E81040F402E3D802A8042
:10F6A0000E94275E5F904F903F902F902796CDBF8E
:08F6B000DEBFDF91CF91089548
:10BF0A00BBE0810116950795BA95E1F7000F000F7E
:10BF1A00000FF2010083B5E0810116950795BA95E5
:10BF2A00E1F7000F000FF3010083022D000F000F4D
:08BF3A00000FF40100830895DB
:10BC4E00022D069506950695202EBBE0202F30E09E
:10BC5E00220F331FBA95E1F7032D06950695302E68
:10BC6E00B5E010E0000F111FBA95E1F7202B312B34
:10BC7E00042D069506950695402E10E0022B132BEB
:02BC8E00089517
:10BC1200049FD001159FF001249FE00DF11D069FA6
:10BC2200E00DF11D349FF00D259FF00D169FF00DD4
:10BC3200079FF00D3327149FB00DE11DF31F059FE1
:0CBC4200B00DE11DF31F8D019F0108955E
:10BDDC00C9019A01AB01B80197FB092E05260ED0BB
:10BDEC0057FD04D014D00AD0001C38F4509540955F
:10BDFC00309521953F4F4F4F5F4F0895F6F7909533
:10BE0C008095709561957F4F8F4F9F4F0895A1E25C
:10BE1C001A2EAA1BBB1BFD010DC0AA1FBB1FEE1FB8
:10BE2C00FF1FA217B307E407F50720F0A21BB30B03
:10BE3C00E40BF50B661F771F881F991F1A9469F77F
:10BE4C0060957095809590959B01AC01BD01CF01DB
:02BE5C00089547
:020000040001F9
:101D3C0020928F23309290234092912350929223A1
:101D4C00810192010E5F1F4F2F4F3F4F2BBBF801AC
:101D5C004691810192010D5F1F4F2F4F3F4F2BBBBF
:101D6C00F8010691102F0027040FB0E01B1F009301
:101D7C00802310938123810192010C5F1F4F2F4F01
:101D8C003F4F2BBBF8014691810192010B5F1F4F16
:101D9C002F4F3F4F2BBBF8010691102F0027040F3C
:101DAC00B0E01B1F0093892310938A2381019201B9
:101DBC000A5F1F4F2F4F3F4F2BBBF801069100932B
:101DCC008D23B0E0B0938E2360929B2370929C2362
:101DDC0080929F23B1E0B093C320B0E0B0939323E3
:021DEC00089558
:101DEE004F925F9200915A2110915B21401651063D
:101DFE0008F058C000910C2110910D21601671064B
:101E0E0008F050C020E030E03F922F9212012301E3
:101E1E000DDE2F903F90F901E20DF31D008100239E
:101E2E0009F440C0009193230023F1F0F901E20D73
:101E3E00F31D00813F932F937F926F925F924F928B
:101E4E003F922F92202EB0E03B2E0E9472782F9060
:101E5E003F904F905F906F907F902F913F918901AF
:101E6E000F5F1F4F98011DC0F901E20DF31D008198
:101E7E003F932F937F926F925F924F923F922F924A
:101E8E00202EB0E03B2E0E94EE762F903F904F908A
:101E9E005F906F907F902F913F9189010F5F1F4F41
:0A1EAE009801B9CF5F904F9008959E
:020000040000FA
:10F0E400CF93DF93CDB7DEB76797CDBFDEBF219651
:10F0F4002F923F924F925F926F927F928F929F9244
:10F10400B0E0BC8BBD8BB0E0BE8B0091802310912E
:10F1140081232016310608F413C20091892310912B
:10F124008A230215130508F40BC200908023109063
:10F134008123810100191109A801440F551F440FAF
:10F14400551F00915621109157212091582130913B
:10F154005921085F1F4F2F4F3F4F040F151FB0E079
:10F164002B1F3B1FB4E06B2EB0E07B2E180129014E
:10F174000E94F45BBCE4B98BB1E2BA8BE989FA89E9
:10F1840080818B8B09891A89F80131960081402F7F
:10F1940050E0652F752F09891A89F801329600818C
:10F1A400102F002720E0322F400F511F621F731FC2
:10F1B40009891A89F80133960081B0E110E0000F43
:10F1C400111FBA95E1F720E0322F400F511F621F43
:10F1D400731F00915621109157212091582130918D
:10F1E4005921040F151F261F371F0D831E832F83DC
:10F1F4003887082F06950695069510E040918D23D3
:10F2040050918E230E948B620B871C870B89077099
:10F21400002351F02B853C8500918D2310918E2382
:10F22400020F131F0B871C870B851C850F87188BF8
:10F234008E01075F1F4F48016B847C842D803E80C4
:10F244004F805884E0914421F09145210995098B20
:10F254001A8B4D815E816F81788509851A8520E03E
:10F26400322F040F151F261F371F0D831E832F8374
:10F27400388709841A840B851C85001911090B87AA
:10F284001C87B0E0BD87BE8700919F23003009F042
:10F29400ACC000913721109138210A831B83B0E060
:10F2A400B983098120918D2330918E2310E00217B8
:10F2B400130708F091C000916021109161210C8B1B
:10F2C4001D8BB0E0BC83B0E0B88318810B891017A4
:10F2D40008F078C00C81003009F055C00D851E85FA
:10F2E4000F5F1F4F0D871E8729853A850F85188963
:10F2F40020173107E0F52D853E8509851A8502170B
:10F304001307A8F5B1E0BD87B0E0BE878E01075FA3
:10F314001F4F3F922F9248016B847C842D803E8046
:10F324004F805884E0914421F091452109952F9014
:10F334003F90098B1A8B0B851C850F87188B4D8189
:10F344005E816F81788509851A8520E0322F040F4C
:10F35400151F261F371F0D831E832F8338870984AB
:10F364001A840B851C85001911090B871C87E989F0
:10F37400FA8900810E8B09891A890F5F1F4F098B47
:10F384001A8BB1E0BC831E890C81012371F03F927A
:10F394002F9260909B2370909C234A805B802C88E2
:10F3A4003D880E942F5F2F903F900C891D890F5F2D
:10F3B4001F4F0C8B1D8B0C81000F0C8308810F5F7A
:10F3C400088383CF0A811B810F5F1F4F0A831B832E
:10F3D40009810F5F098365CF0C891D890F5F1F4F5A
:10F3E4000093602110936121ABC0009160211091C2
:10F3F40061210A831B83B0E0B983098120918D23A5
:10F4040030918E2310E00217130708F091C0009189
:10F414003721109138210C8B1D8BB0E0BC83B0E0F8
:10F42400B88318810B89101708F078C00C8100305C
:10F4340009F055C00D851E850F5F1F4F0D871E8770
:10F4440029853A850F85188920173107E0F52D8520
:10F454003E8509851A8502171307A8F5B1E0BD8713
:10F46400B0E0BE878E01075F1F4F3F922F92480185
:10F474006B847C842D803E804F805884E0914421AD
:10F48400F091452109952F903F90098B1A8B0B859C
:10F494001C850F87188B4D815E816F817885098566
:10F4A4001A8520E0322F040F151F261F371F0D83E6
:10F4B4001E832F83388709841A840B851C850019C1
:10F4C40011090B871C87E989FA8900810E8B098948
:10F4D4001A890F5F1F4F098B1A8BB1E0BC831E89F9
:10F4E4000C81012371F03F922F9260909B237090C6
:10F4F4009C234C885D882A803B800E942F5F2F903C
:10F504003F900C891D89015010400C8B1D8B0C8180
:10F51400000F0C8308810F5F088383CF0A811B814E
:10F524000F5F1F4F0A831B8309810F5F098365CF18
:10F534000C891D8901501040009337211093382104
:10F544009F908F907F906F905F904F903F902F90FF
:0CF554006696CDBFDEBFDF91CF91089519
:10B7E800CF93DF93CDB7DEB72497CDBFDEBF2196C9
:10B7F8008F929F92BCE4BA83B1E2BB8300E010E071
:10B808000615170508F042C08E017F926F925F926D
:10B818004F923F922F924801E0914421F0914521A7
:10B8280009952F903F904F905F906F907F90B8014F
:10B8380020E030E0AB010881198120173107A8F416
:10B84800FA010081EA81FB8100830A811B810F5F75
:10B858001F4F0A831B838A010F5F1F4FB80189019D
:10B868000F5F1F4FAB019801E6CF08801980830155
:10B878000019110938010881198120E0322F020DC1
:10B88800131D241D351D18012901B8CF9F908F90D5
:0CB898002396CDBFDEBFDF91CF91089555
:10C516009801249F8001259F100D349F100D0895CA
:00C5260015
:10EDDC00CF93DF93CDB7DEB72C97CDBFDEBF219697
:10EDEC004F925F926F927F928F92B0E0B987BA8701
:10EDFC00B0E0BB870091C320003091F404EF11E028
:10EE0C003F922F928824662477241801B0E04B2E71
:10EE1C00542C0E949E8E2F903F90B1E0B093C32053
:10EE2C0000918023109181232016310608F449C1EA
:10EE3C000091892310918A230215130508F441C10E
:10EE4C000090802310908123810100191109A801E1
:10EE5C00440F551F440F551F00918F231091902381
:10EE6C002091912330919223085F1F4F2F4F3F4FDA
:10EE7C002A01B0E06B2E762C400E511E621E731EC2
:10EE8C006BBAF20106910887820193010F5F1F4F45
:10EE9C002F4F3F4F2BBBF8010691402F50E0652FB1
:10EEAC00752F820193010E5F1F4F2F4F3F4F2BBBCE
:10EEBC00F8010691102F002720E0322F400F511F30
:10EECC00621F731F820193010D5F1F4F2F4F3F4F26
:10EEDC002BBBF8010691B0E110E0000F111FBA95A1
:10EEEC00E1F720E0322F400F511F621F731F00917A
:10EEFC008F23109190232091912330919223040F12
:10EF0C00151F261F371F0C831D832E833F830091F3
:10EF1C009F23003009F06BC00091372110913821EC
:10EF2C0009831A8370E020918D2330918E23072F53
:10EF3C0010E00217130708F051C0009160211091E6
:10EF4C00612109871A87B0E0BB83B0E0B883472FF3
:10EF5C00188108851017C0F50B810030A1F40E81C3
:10EF6C000BBBEC81FD8106910B870C811D812E81E1
:10EF7C003F810F5F1F4F2F4F3F4F0C831D832E83FD
:10EF8C003F83B1E0BB831B850B81012381F04F9341
:10EF9C003F922F9260909B2370909C2349805A80C3
:10EFAC0029843A840E942F5F2F903F904F910985BE
:10EFBC001A850F5F1F4F09871A870B81000F0B8370
:10EFCC0008810F5F0883C4CF09811A810F5F1F4F1F
:10EFDC0009831A83042F0F5F702FA5CF09851A851B
:10EFEC000F5F1F4F00936021109361216AC0009145
:10EFFC0060211091612109831A8370E020918D2387
:10F00C0030918E23072F10E00217130708F051C020
:10F01C00009137211091382109871A87B0E0BB8302
:10F02C00B0E0B883472F188108851017C0F50B8105
:10F03C000030A1F40E810BBBEC81FD8106910B8796
:10F04C000C811D812E813F810F5F1F4F2F4F3F4F32
:10F05C000C831D832E833F83B1E0BB831B850B8107
:10F06C00012381F04F933F922F9260909B237090DD
:10F07C009C2349845A8429803A800E942F5F2F90C8
:10F08C003F904F9109851A850150104009871A87C6
:10F09C000B81000F0B8308810F5F0883C4CF09819C
:10F0AC001A810F5F1F4F09831A83042F0F5F702F74
:10F0BC00A5CF09851A850150104000933721109374
:10F0CC0038218F907F906F905F904F902B96CDBF93
:08F0DC00DEBFDF91CF91089522
:020000040001F9
:101EE000CF93DF93CDB7DEB72696488100915A2174
:101EF00010915B212016310608F03EC000910C21A4
:101F000010910D214016510608F036C0830194014E
:101F10000F5F1F4F2F4F3F4F2BBBF801069124C07F
:101F20004F930E94157FADB7BEB71196ADBFBEBF30
:101F300023C04F930E94777DADB7BEB71196ADBF5A
:101F4000BEBF1AC04F930E94AD7BADB7BEB711960E
:101F5000ADBFBEBF11C04F930E945174ADB7BEB7A5
:101F60001196ADBFBEBF08C00130D1F2043009F3F5
:0E1F7000083041F3003179F3DF91CF910895ED
:020000040000FA
:10FE2A00CF93DF93CDB7DEB76E97CDBFDEBF2196F6
:10FE3A000BA10BA3162D272D382D492D1E5F2F4FF1
:10FE4A003F4F4F4F3BBBE12FF22F06910D83B0E09E
:10FE5A00BE83512F622F732F842F5F5F6F4F7F4FA7
:10FE6A008F4F7BBBE52FF62F0691302F22270D816E
:10FE7A001E81020F131F0D831E83152F262F372F66
:10FE8A00482F1F5F2F4F3F4F4F4F3BBBE12FF22FA2
:10FE9A0006910B83B0E0BC83512F622F732F842FFE
:10FEAA005F5F6F4F7F4F8F4F7BBBE52FF62F06911A
:10FEBA00302F22270B811C81020F131F0B831C83F7
:10FECA00052F162F272F382F0F5F1F4F2F4F3F4F0A
:10FEDA000E8B1F8B288F398FAE014F5E5F4F2BBB66
:10FEEA00F8010691FA010193B0E0B1930E891F89D6
:10FEFA00288D398D0F5F1F4F2F4F3F4F0E8B1F8B52
:10FF0A00288F398FAE014F5E5F4F2BBBF8010691E8
:10FF1A00302F2227FA0101911191020F131FFA01C2
:10FF2A00019311930E891F89288D398DA801B90172
:10FF3A004F5F5F4F6F4F7F4F4E8B5F8B688F798F0D
:10FF4A008E010F5E1F4F98012E5F3F4F6BBBFA0168
:10FF5A000691F9010193B0E0B1930E891F89288DAA
:10FF6A00398DA801B9014F5F5F4F6F4F7F4F4E8B9D
:10FF7A005F8B688F798F8E010F5E1F4FC8010296C3
:10FF8A006BBBFA010691302F2227FC0101911191D6
:10FF9A00020F131FFC01019311930E891F89288DEB
:10FFAA00398D0F5F1F4F2F4F3F4F0E8B1F8B288F9F
:10FFBA00398F00915A2110915B21021913090F837D
:10FFCA00188700910C2110910D2104191509098730
:10FFDA001A87B0910407BF7DB0930407B0E0BD87CC
:10FFEA00BE872D853E850D811E812017310708F0B9
:06FFFA00B2C00E891F8950
:020000040001F9
:10000000288D398D0A8F1B8F2C8F3D8F2D853E8536
:1000100009851A850217130708F49BC000910C216B
:1000200010910D214016510608F093C0B0E0B88B36
:1000300018890BA1101708F08CC00A8D1B8D2C8D10
:100040003D8D0E8B1F8B288F398F9F928F927F92C1
:100050006F925F924F923F922F920E945A5C2F9024
:100060003F904F905F906F907F908F909F90B0E007
:10007000BD8BB0E0BB87BC872B853C850B811C8189
:100080002017310708F05DC00D890030A1F4088DFC
:100090000BBBEE89FF8906910A830E891F89288D83
:1000A000398D0F5F1F4F2F4F3F4F0E8B1F8B288FA8
:1000B000398FB0E8BD8B1D890A81012351F08E0173
:1000C0000F5E1F4FF8013296019111910883198339
:1000D00006C0FE01719601911191088319832B8549
:1000E0003C850F8118850217130708F1B0E0BF8720
:1000F0001F850BA11017D8F49F928F927F926F9259
:100100005F924F923F922F9228803980E091412157
:10011000F091422109952F903F904F905F906F9002
:100120007F908F909F900F850F5F0F87E1CF0D8994
:1001300006950D8B0B851C850F5F1F4F0B871C874A
:100140009BCF82010F5F1F4F280108890F5F088B2B
:100150006FCF0D851E850F5F1F4F0D871E8746CF02
:10016000B0910407B062B09304076D96CDBFDEBFB7
:06017000DF91CF9108951C
:020000040000FA
:10FAEE00CF93DF93CDB7DEB7EA97CDBFDEBF2196BA
:10FAFE000FAD0FAF162D272D382D492D1E5F2F4F11
:10FB0E003F4F4F4F3BBBE12FF22F06910A83B0E0E0
:10FB1E00BB83512F622F732F842F5F5F6F4F7F4FE9
:10FB2E008F4F7BBBE52FF62F0691302F22270A81B0
:10FB3E001B81020F131F0A831B83152F262F372FAE
:10FB4E00482F1F5F2F4F3F4F4F4F3BBBE12FF22FE1
:10FB5E0006910883B0E0B983512F622F732F842F43
:10FB6E005F5F6F4F7F4F8F4F7BBBE52FF62F069159
:10FB7E00302F222708811981020F131F0883198342
:10FB8E00052F162F272F382F0F5F1F4F2F4F3F4F49
:10FB9E000AAB1BAB2CAB3DAB00915A2110915B21F4
:10FBAE00021913090A871B8700910C2110910D2150
:10FBBE00041915090C871D87B0E0B8ABB9AB08A9BD
:10FBCE0019A9103009F4003108F04AC09E01205FD7
:10FBDE003F4F08A919A9000F111F200F311F0CA9A3
:10FBEE000BBBEAA9FBA90691F9010193B0E0B19311
:10FBFE000AA91BA92CA93DA9B801C9016F5F7F4FA6
:10FC0E008F4F9F4F6AAB7BAB8CAB9DAB9E01205F42
:10FC1E003F4F08A919A9000F111FA801420F531F2A
:10FC2E008BBBFB010691302F2227FA010191119116
:10FC3E00020F131FFA01019311930AA91BA92CA9F4
:10FC4E003DA90F5F1F4F2F4F3F4F0AAB1BAB2CAB86
:10FC5E003DAB08A919A90F5F1F4F08AB19ABAFCF6A
:10FC6E00B0910407BF7DB0930407B0E0B887B987A1
:10FC7E00288539850A811B812017310708F0C3C0FA
:10FC8E000AA91BA92CA93DA90EAB1FAB28AF39AFF2
:10FC9E00288539850C851D850217130708F4ACC01D
:10FCAE0000910C2110910D214016510608F0A4C0B0
:10FCBE0010E0412F0FAD401708F09EC00EA91FA9EE
:10FCCE0028AD39AD0AAB1BAB2CAB3DAB4F939F921E
:10FCDE008F927F926F925F924F923F922F920E94DD
:10FCEE005A5C2F903F904F905F906F907F908F90C7
:10FCFE009F904F91B0E0BE83BF83542F2E813F81E2
:10FD0E00088119812017310708F06DC00E811F81FF
:10FD1E0000FF10C00E850F709E01205F3F4F10E058
:10FD2E00000F111F020F131FF801019111910C8387
:10FD3E001D8324C00CA90BBBEAA9FBA946914E87D3
:10FD4E000AA91BA92CA93DA90F5F1F4F2F4F3F4F8B
:10FD5E000AAB1BAB2CAB3DAB042F06950695069557
:10FD6E0006959E01205F3F4F10E0000F111F020FFE
:10FD7E00131FF801019111910C831D832E813F8178
:10FD8E000A851B850217130728F1B0E0BF87252FC0
:10FD9E001F850FAD1017E8F42F939F928F927F92CD
:10FDAE006F925F924F923F922F922C803D80E09106
:10FDBE004121F091422109952F903F904F905F90F5
:10FDCE006F907F908F909F902F910F850F5F0F8771
:10FDDE00DFCF01C0252F0E811F810F5F1F4F0E83B6
:10FDEE001F83522F8BCF82010F5F1F4F2801052FCC
:10FDFE000F5F102F412F5ECF088519850F5F1F4FA4
:10FE0E000887198735CFB0910407B062B093040705
:0CFE1E00E996CDBFDEBFDF91CF910895C3
:10F75A00CF93DF93CDB7DEB7CA51D240CDBFDEBF5C
:10F76A002196FE01E15EFD4F0081FE01E15EFD4F43
:10F77A000083162D272D382D492D1E5F2F4F3F4F01
:10F78A004F4F3BBBE12FF22F06910C83B0E0BD83B4
:10F79A00512F622F732F842F5F5F6F4F7F4F8F4FD1
:10F7AA007BBBE52FF62F0691302F22270C811D8176
:10F7BA00020F131F0C831D83152F262F372F482F57
:10F7CA001F5F2F4F3F4F4F4F3BBBE12FF22F069149
:10F7DA000A83B0E0BB83512F622F732F842F5F5FA0
:10F7EA006F4F7F4F8F4F7BBBE52FF62F0691302F40
:10F7FA0022270A811B81020F131F0A831B83052FED
:10F80A00162F272F382F0F5F1F4F2F4F3F4FFE0105
:10F81A00EE5EFD4F019311932193319300915A218A
:10F82A0010915B21021913090A871B8700910C2189
:10F83A0010910D21041915090C871D87FE01E05F3F
:10F84A00FD4FB0E0B193B193FE01E05FFD4F01912E
:10F85A001191113009F4003008F069C09E01205F4F
:10F86A003F4FFE01E05FFD4F01911191000F111F03
:10F87A00200F311FFE01EC5EFD4F00810BBBFE0124
:10F88A00EE5EFD4F01901190F0010691F90101938E
:10F89A00B0E0B193FE01EE5EFD4F0191119121910D
:10F8AA003191B801C9016F5F7F4F8F4F9F4FFE01A2
:10F8BA00EE5EFD4F61937193819391939E01205F58
:10F8CA003F4FFE01E05FFD4F01911191000F111FA3
:10F8DA00A801420F531F8BBBFB010691302F222731
:10F8EA00FA0101911191020F131FFA010193119369
:10F8FA00FE01EE5EFD4F01911191219131910F5F51
:10F90A001F4F2F4F3F4FFE01EE5EFD4F01931193A4
:10F91A0021933193FE01E05FFD4F019111910F5F39
:10F92A001F4FFE01E05FFD4F019311938DCFB09100
:10F93A000407BF7DB0930407B0E0B887B98728856C
:10F94A0039850C811D812017310708F0BFC0FE01DF
:10F95A00EE5EFD4F0191119121913191FE01EA5E16
:10F96A00FD4F0193119321933193288539850C8595
:10F97A001D850217130708F4A2C000910C211091EB
:10F98A000D214016510608F09AC0B0E0BF871F85C6
:10F99A00FE01E15EFD4F0081101708F090C0FE01E4
:10F9AA00EA5EFD4F0191119121913191FE01EE5EC6
:10F9BA00FD4F01931193219331939F928F927F92DE
:10F9CA006F925F924F923F922F920E945A5C2F90B1
:10F9DA003F904F905F906F907F908F909F90B0E094
:10F9EA00BE83BF832E813F810A811B812017310785
:10F9FA0008F05DC0FE01EC5EFD4F00810BBBFE010D
:10FA0A00EE5EFD4F01901190F00106919E01205F7C
:10FA1A003F4F10E0000F111F020F131FF801019151
:10FA2A00119108831983FE01EE5EFD4F0191119138
:10FA3A00219131910F5F1F4F2F4F3F4FFE01EE5E15
:10FA4A00FD4F01931193219331932E813F810A85B2
:10FA5A001B850217130720F1B0E0BE871E85FE0141
:10FA6A00E15EFD4F00811017D8F49F928F927F922A
:10FA7A006F925F924F923F922F9228803980E09145
:10FA8A004121F091422109952F903F904F905F902C
:10FA9A006F907F908F909F900E850F5F0E87DECFBD
:10FAAA000E811F810F5F1F4F0E831F839BCF820121
:10FABA000F5F1F4F28010F850F5F0F8768CF0885DB
:10FACA0019850F5F1F4F0887198739CFB09104072F
:10FADA00B062B0930407C75EDD4FCDBFDEBFDF91D2
:04FAEA00CF9108951B
:10E8A200CF93DF93CDB7DEB76897CDBFDEBF21969A
:10E8B2000D8D0D8F162D272D382D492D1E5F2F4FB3
:10E8C2003F4F4F4F3BBBE12FF22F06910A83B0E03F
:10E8D200BB83512F622F732F842F5F5F6F4F7F4F48
:10E8E2008F4F7BBBE52FF62F0691302F22270A810F
:10E8F2001B81020F131F0A831B83152F262F372F0D
:10E90200482F1F5F2F4F3F4F4F4F3BBBE12FF22F3F
:10E9120006910883B0E0B983512F622F732F842FA1
:10E922005F5F6F4F7F4F8F4F7BBBE52FF62F0691B7
:10E93200302F222708811981020F131F08831983A0
:10E94200052F162F272F382F0F5F1F4F2F4F3F4FA7
:10E95200088B198B2A8B3B8B00915A2110915B21DA
:10E96200021913090C871D8700910C2110910D21AA
:10E97200041915090E871F87B0910407BF7DB09354
:10E982000407B0E0BE83BF832E813F810A811B81D1
:10E992002017310708F0A9C0088919892A893B89FB
:10E9A2000C8B1D8B2E8B3F8B2E813F810E851F85FD
:10E9B2000217130708F492C000910C2110910D2147
:10E9C2004016510608F08AC0B0E0BB871B850D8D4A
:10E9D200101708F083C00C891D892E893F89088B86
:10E9E200198B2A8B3B8B9F928F927F926F925F92B1
:10E9F2004F923F922F920E945A5C2F903F904F90DD
:10EA02005F906F907F908F909F90B0E0BC83BD83AA
:10EA12002C813D81088119812017310708F056C0E9
:10EA22000A890BBBE889F98906910887B0E0B987A2
:10EA3200088919892A893B89A801B9014F5F5F4F6B
:10EA42006F4F7F4F6BBBFA010691302F222708854B
:10EA52001985020F131F088719878A019B010F5F0F
:10EA62001F4F2F4F3F4F088B198B2A8B3B8B2C81CB
:10EA72003D810C851D850217130708F1B0E0BA87A6
:10EA82001A850D8D1017D8F49F928F927F926F92F4
:10EA92005F924F923F922F9228843984E0914121D4
:10EAA200F091422109952F903F904F905F906F9087
:10EAB2007F908F909F900A850F5F0A87E1CF0C812C
:10EAC2001D810F5F1F4F0C831D83A2CF82010F5F39
:10EAD2001F4F28010B850F5F0B8778CF0E811F8197
:10EAE2000F5F1F4F0E831F834FCFB0910407B06299
:10EAF200B09304076796CDBFDEBFDF91CF91089533
:00EB020013
:020000040001F9
:1005A200CF93DF93CDB7DEB76497CDBFDEBF219681
:1005B200098D1A8D098F1A8F910126193709A90100
:1005C20000E010E02017310774F420E030E0241B33
:1005D200350B098D1A8D000F111F2017310710F4EA
:1005E2000C94358B09C0098D1A8D000F111F40170D
:1005F200510710F40C94358B920128193909A9017D
:1006020000E010E02017310774F420E030E0241BF2
:10061200350B098D1A8D000F111F2017310710F4A9
:100622000C94358B09C0098D1A8D000F111F4017CC
:10063200510710F40C94358B0091482110914921F7
:10064200098B1A8B00915D210B8B00915E21109119
:100652005F210093482110934921B0E0B0935D21BE
:10066200098D1A8D9801240D351D098C1A8CB30140
:10067200601971098901061B170B0E831F83098DEF
:100682001A8DA801420D531D8901041B150B088701
:100692001987098C1A8C9401201931098901041BCC
:1006A200150B0A871B878901061B170B0C871D87F1
:1006B20000915C21002309F449C500915E2110914B
:1006C2005F210E871F8700919623088BB0E0BC83C1
:1006D200BD83098D1A8D0A831B83098D1A8D000F24
:1006E200111F080103E010E00019110908831983A2
:1006F2000A811B8198012F5F3F4F0C811D810217D8
:1007020013070CF02AC40B89002309F431C30091AA
:100712004321003009F09CC1A40144195509098CF8
:100722001A8C9401201931090A811B81020F131FAF
:10073200041915099F928F927F926F925F924F9246
:100742003F922F924A01380140904A2150904B210A
:1007520020904621309047210E94B07A2F903F90FE
:100762004F905F906F907F908F909F905F924F928B
:100772003F922F92B1E04B2E18010E94FD8D2F90D7
:100782003F904F905F90098C1A8C94012019310987
:100792000A811B81A801420F531F098C1A8C9301F5
:1007A200201931090C811D81200F311F098D1A8DED
:1007B200020D131D0C801D80001911099F928F924A
:1007C2007F926F925F924F923F922F923A0129014C
:1007D20018010E9481752F903F904F905F906F900B
:1007E2007F908F909F90940124193509098D1A8D5D
:1007F200040D151D0A801B80001911090419150921
:100802009F928F927F926F925F924F923F922F921E
:100812004901380140904A2150904B2120904621B5
:10082200309047210E94B07A2F903F904F905F9076
:100832006F907F908F909F905F924F923F922F92F6
:10084200B1E04B2E18010E94FD8D2F903F904F90EA
:100852005F90098D1A8D040D151D0A801B80A80159
:1008620040195109098C1A8C9301201931090C8104
:100872001D81200F311F098D1A8D020D131D0C8051
:100882001D80001911099F928F927F926F925F9241
:100892004F923F922F923A01290118010E948175CD
:1008A2002F903F904F905F906F907F908F909F908E
:1008B200A40144195509098C1A8C94012019310993
:1008C2000C811D81020F131F041915099F928F922B
:1008D2007F926F925F924F923F922F924A0138011C
:1008E20040904A2150904B21209046213090472140
:1008F2000E94B07A2F903F904F905F906F907F90C0
:100902008F909F905F924F923F922F92B1E04B2E29
:1009120018010E94FD8D2F903F904F905F90098C9F
:100922001A8CB401601971090C811D81A801460F4E
:10093200571F0A801B808B01001911090A841B842E
:100942009801201931090A811B81060F171F0C8497
:100952001D84001911099F928F927F926F925F926C
:100962004F923F922F923A01290118010E948175FC
:100972002F903F904F905F906F907F908F909F90BD
:10098200940124193509098D1A8D040D151D0C8049
:100992001D8000191109041915099F928F927F92E7
:1009A2006F925F924F923F922F924901380140908D
:1009B2004A2150904B2120904621309047210E949D
:1009C200B07A2F903F904F905F906F907F908F9072
:1009D2009F905F924F923F922F92B1E04B2E18015F
:1009E2000E94FD8D2F903F904F905F90098D1A8D40
:1009F200B801640D751D0C801D80AB0140195109B1
:100A02000A811B81060F171F0E801F809801201973
:100A120031090A801B808B0100191109088419848D
:100A2200001911099F928F927F926F925F924F925B
:100A32003F922F923A01290118010E9481752F904D
:100A42003F904F905F906F907F908F909F908FC15B
:100A5200A30142195309098C1A8C930120193109F7
:100A62000C811D81020F131F021913099F928F928D
:100A72007F926F925F924F923F922F924A0138017A
:100A820040904A2150904B2120904621309047219E
:100A92000E94B07A2F903F904F905F906F907F901E
:100AA2008F909F905F924F923F922F92B1E04B2E88
:100AB20018010E94FD8D2F903F904F905F90098CFE
:100AC2001A8C9301201931090C811D81A801420F52
:100AD200531F098C1A8C9401201931090A811B8138
:100AE200200F311F098D1A8D040D151D0A801B80E0
:100AF200001911099F928F927F926F925F924F928B
:100B02003F922F923A01290118010E945A762F90A2
:100B12003F904F905F906F907F909301221933091D
:100B2200098D1A8D020D131D0C801D8000191109EB
:100B3200021913097F926F925F924F923F922F9206
:100B42004901380140904A2150904B212090462182
:100B5200309047210E94B07A2F903F904F905F9043
:100B62006F907F908F909F905F924F923F922F92C3
:100B7200B1E04B2E18010E94FD8D2F903F904F90B7
:100B82005F90098D1A8D020D131D0C801D80A80126
:100B920040195109098C1A8C9401201931090A81D2
:100BA2001B81200F311F098D1A8D040D151D0A801E
:100BB2001B80001911099F928F927F926F925F9210
:100BC2004F923F922F923A01290118010E945A76C0
:100BD2002F903F904F905F906F907F90A3014219AA
:100BE2005309098C1A8C9301201931090A811B813E
:100BF200020F131F021913097F926F925F924F9295
:100C02003F922F924A01380140904A2150904B2145
:100C120020904621309047210E94B07A2F903F9039
:100C22004F905F906F907F908F909F905F924F92C6
:100C32003F922F92B1E04B2E1801DED72F903F90BA
:100C42004F905F90098C1A8CC301801991090A8117
:100C52001B81B801680F791F0C811D819801280F33
:100C6200391F0C851D85A801420F531F0C801D8062
:100C72009C01201931090E811F81020F131F9F92BF
:100C82008F927F926F925F924F923F922F923B018F
:100C92002A0118010E945A762F903F904F905F9040
:100CA2006F907F90930122193309098D1A8D020DDD
:100CB200131D0A801B8000191109021913097F9262
:100CC2006F925F924F923F922F924901380140906A
:100CD2004A2150904B2120904621309047210E947A
:100CE200B07A2F903F904F905F906F907F908F904F
:100CF2009F905F924F923F922F92B1E04B2E18013C
:100D02007BD72F903F904F905F90098D1A8DC8012D
:100D1200820D931D0A801B80BC01601971090C8031
:100D22001D809C012019310908851985A801420FEF
:100D3200531F0C811D819801280F391F0A851B85BD
:100D4200020F131F9F928F927F926F925F924F9228
:100D52003F922F923B012A0118010E945A762F904E
:100D62003F904F905F906F907F908F909F90BEC00A
:100D720009891A8900935E2110935F21B1E0B09333
:100D82009623098C1A8C9401201931090A811B813E
:100D9200A801420F531F098C1A8C930120193109A3
:100DA2000C811D81200F311F098D1A8D020D131D1B
:100DB2000C801D80001911099F928F927F926F9271
:100DC2005F924F923F922F923A01290118010E949D
:100DD20081752F903F904F905F906F907F90098D1B
:100DE2001A8D040D151D0A801B80A8014019510996
:100DF200098C1A8C9301201931090C811D81200F55
:100E0200311F098D1A8D020D131D0C801D800019D2
:100E120011097F926F925F924F923F922F923A0105
:100E2200290118010E9481752F903F904F905F9089
:100E32006F907F908F909F90098C1A8CB4016019EB
:100E420071090C811D81A801460F571F0A801B8062
:100E52008B01001911090A841B8498012019310998
:100E62000A811B81060F171F0C841D8400191109AA
:100E72009F928F927F926F925F924F923F922F92A8
:100E82003A01290118010E9481752F903F904F90DD
:100E92005F90098D1A8DB801640D751D0C801D803F
:100EA200AB01401951090A811B81060F171F0E80E1
:100EB2001F809801201931090A801B808B010019BB
:100EC200110908841984001911095F924F923F9207
:100ED2002F923A01290118010E9481752F903F90AB
:100EE2004F905F906F907F908F909F902881398173
:100EF20000E010E02017310784F40C811D81000FFF
:100F0200111F000F111F98012A5F3F4F088119819D
:100F1200020F131F0883198319C00A801B800C81DA
:100F22001D8100191109000F111F000F111F9801D7
:100F3200265F3F4F08811981020F131F088319830F
:100F42000A811B81015010400A831B830C811D8181
:100F52000F5F1F4F0C831D83CBCB0B89002309F43A
:100F6200C0C000914321003009F05DC0098D1A8D87
:100F7200040D151D0A831B83098C1A8C94012019F8
:100F820031090A811B812017310708F44BC09401F3
:100F9200241935090A811B81041915099F928F9220
:100FA2007F926F925F924F923F922F924901380146
:100FB20040904A2150904B21209046213090472169
:100FC2000E94B07A2F903F904F905F906F907F90E9
:100FD2008F909F905F924F923F922F92B1E04B2E53
:100FE20018010AD62F903F904F905F909F928F9258
:100FF2007F926F925F924F923F922F9223016A806B
:101002007B800E9481752F903F904F905F906F90F0
:101012007F908F909F900A811B810F5F1F4F0A83E1
:101022001B83AACF5DC0098D1A8D020D131D0C837F
:101032001D83098C1A8C9301201931090C811D81A1
:101042002017310708F44CC09301221933090C818F
:101052001D81021913099F928F927F926F925F9264
:101062004F923F922F924901380140904A2150906D
:101072004B2120904621309047210E94B07A2F9038
:101082003F904F905F906F907F908F909F905F9274
:101092004F923F922F92B1E04B2E1801ADD52F9077
:1010A2003F904F905F909F928F927F926F925F924C
:1010B2004F923F922F926C807D80120124010E94F8
:1010C2005A762F903F904F905F906F907F908F90C5
:1010D2009F900C811D810F5F1F4F0C831D83A9CF31
:1010E2002CC0098D1A8D040D151D0A831B83098CD2
:1010F2001A8C9401201931090A811B8120173107AA
:10110200E0F09F928F927F926F925F924F923F9206
:101112002F9223016A807B800E9481752F903F90DD
:101122004F905F906F907F908F909F900A811B816C
:101132000F5F1F4F0A831B83DACF0E851F85009333
:101142005E2110935F21088900939623B0E0BC834F
:10115200BD83098D1A8D0A831B83098D1A8D000F99
:10116200111F080103E010E0001911090883198317
:101172000A811B8198012F5F3F4F0C811D8102174D
:1011820013070CF0A2C10091962310E00150104009
:10119200A80155954795098C1A8C9401201931099B
:1011A2000A811B81200F311F098D1A8D020D131D1B
:1011B2000C801D80001911099F928F927F926F926D
:1011C2005F924F923F922F92B1E08B2E3A0129010A
:1011D20018010E9425652F903F904F905F906F906D
:1011E2007F908F909F900091962310E001501040C5
:1011F200B80175956795098C1A8C940120193109EB
:101202000A811B81A801420F531F098C1A8C93017A
:10121200201931090C811D81020F131F9F928F9299
:101222007F926F925F924F923F922F92B1E08B2EFC
:101232003B012A0118010E9425652F903F904F9093
:101242005F900091962310E001501040A80155953F
:101252004795098D1A8D040D151D0A801B80980172
:1012620020193109098D1A8D020D131D0C801D8064
:10127200001911095F924F923F922F92B1E08B2E8B
:101282003A01290118010E9425652F903F904F9045
:101292005F906F907F900091962310E00150104074
:1012A200B80175956795098D1A8D040D151D0A8073
:1012B2001B80A80140195109098C1A8C930120192D
:1012C20031090C811D81020F131F7F926F925F9271
:1012D2004F923F922F92B1E08B2E3B012A011801CF
:1012E2000E9425652F903F904F905F906F907F9066
:1012F2008F909F900091962310E001501040B8010A
:1013020075956795098C1A8CA401401951090C81B5
:101312001D819801240F351F0A811B81040F151F9F
:101322000C841D84001911099F928F927F926F92F3
:101332005F924F923F922F92B1E08B2E3B01290197
:1013420018010E9425652F903F904F905F906F90FB
:101352007F908F909F900091962310E00150104053
:10136200B80175956795098C1A8CA4014019510929
:101372000C811D819801240F351F0A801B808A0170
:10138200001911090A841B84001911099F928F9276
:101392007F926F925F924F923F922F92B1E08B2E8B
:1013A2003B01290118010E9425652F903F904F9023
:1013B2005F900091962310E001501040A8015595CE
:1013C2004795098D1A8D040D151D0C801D809801FD
:1013D200201931090A801B80001911090884198417
:1013E200001911095F924F923F922F92B1E08B2E1A
:1013F2003A01290118010E9425652F903F904F90D4
:101402005F900091962310E001501040B80175954D
:101412006795098D1A8DA801440D551D0C801D80FC
:101422009A01201931090A811B81040F151F0E80B0
:101432001F80001911095F924F923F922F92B1E0E3
:101442008B2E3B01290118010E9425652F903F90A8
:101452004F905F906F907F908F909F9028813981FD
:1014620000E010E02017310784F40C811D81000F89
:10147200111F000F111F98012A5F3F4F0881198128
:10148200020F131F0883198319C00A801B800C8165
:101492001D8100191109000F111F000F111F980162
:1014A200265F3F4F08811981020F131F088319839A
:1014B2000A811B81015010400A831B830C811D810C
:1014C2000F5F1F4F0C831D8353CE098C1A8C93011F
:1014D20020193109098D1A8D020D131D9F928F92C9
:1014E2007F926F925F924F923F922F924201390107
:1014F20018010E9483692F903F904F905F906F90E8
:101502007F908F909F900091962300FF1FC0098CBF
:101512001A8C930120193109098D1A8D020D131DA0
:101522009F928F927F926F925F924F923F922F92F1
:101532002401390118010E9483692F903F904F9036
:101542005F906F907F908F909F9022C0A4014F5F19
:101552005F4F098C1A8C930120193109098D1A8D5C
:10156200020D131D9F928F927F926F925F924F9204
:101572003F922F924A0139012A0118010E94836980
:101582002F903F904F905F906F907F908F909F90A1
:10159200098C1A8C940120193109098D1A8D040DB8
:1015A200151D9F928F927F926F925F924F923F9200
:1015B2002F924901310128010E9483692F903F90A7
:1015C2004F905F906F907F908F909F9000919623A5
:1015D20000FF1FC0098C1A8C940120193109098D52
:1015E2001A8D040D151D9F928F927F926F925F92BA
:1015F2004F923F922F924901130128010E94836961
:101602002F903F904F905F906F907F908F909F9020
:1016120022C0098C1A8CA4014019510993012F5F31
:101622003F4F098D1A8D040D151D9F928F927F9247
:101632006F925F924F923F922F924A013901280195
:1016420019010E9483692F903F904F905F906F9095
:101652007F908F909F9009891A8900934821109357
:1016620049210B8900935D216396CDBFDEBFDF91D7
:04167200CF91089577
:020000040000FA
:10CA4A00CF93DF93CDB7DEB76397CDBFDEBF219615
:10CA5A009F9200919623088B00915E2110915F218D
:10CA6A00098B1A8BB1E0B09396230091482110915B
:10CA7A00492100935E2110935F218101061917094C
:10CA8A000F5F1F4F088719878301020D131D01507D
:10CA9A0010400A871B878201061917090F5F1F4F6B
:10CAAA000C871D878301040D151D015010400E8748
:10CABA001F87B0E0BC83BD838201021913090E836C
:10CACA001F836A827B828301000F111F080103E022
:10CADA0010E000191109088319830A811B81980142
:10CAEA002F5F3F4F0C811D81021713070CF0F6C30D
:10CAFA0000915D21002309F4B6C200914321003060
:10CB0A0009F05BC10C841D842E853F8520193109EB
:10CB1A000A811B81040D151D0C841D84001911093D
:10CB2A008F927F926F925F924F923F922F9249011A
:10CB3A00380140904A2150904B2120904621309054
:10CB4A0047210E94B07A2F903F904F905F906F904C
:10CB5A007F908F905F924F923F922F92B1E04B2E2F
:10CB6A0018010E94FD8D2F903F904F905F900A818F
:10CB7A001B81A801440D551D0C801D8091012019AF
:10CB8A0031090C811D81020D131D8F927F926F92C4
:10CB9A005F924F923F922F923A01290118010E9407
:10CBAA0081752F903F904F905F900C841D842E8545
:10CBBA003F85201931090A801B8082010019110959
:10CBCA000C841D84001911095F924F923F922F9293
:10CBDA004901380140904A2150904B21209046212A
:10CBEA00309047210E94B07A2F903F904F905F90EB
:10CBFA006F907F908F905F924F923F922F92B1E009
:10CC0A004B2E18010E94FD8D2F903F904F905F9000
:10CC1A000A801B80A201401951090C801D809101D4
:10CC2A00201931090C811D81020D131D8F927F92EB
:10CC3A006F925F924F923F922F923A012901180107
:10CC4A000E9481752F903F904F905F900C841D84B5
:10CC5A002E853F85201931090C811D81040D151D72
:10CC6A000C841D84001911095F924F923F922F92F2
:10CC7A004901380140904A2150904B212090462189
:10CC8A00309047210E94B07A2F903F904F905F904A
:10CC9A006F907F908F905F924F923F922F92B1E068
:10CCAA004B2E18010E94FD8D2F903F904F905F9060
:10CCBA000C811D81A801440D551D0A801B8082012B
:10CCCA00001911090E801F809801201931090A8163
:10CCDA001B81040D151D0E801F80001911098F92EA
:10CCEA007F926F925F924F923F922F923A0129015F
:10CCFA0018010E9481752F903F904F905F900C848D
:10CD0A001D842E853F85201931090C801D808201E2
:10CD1A00001911090C841D84001911095F924F92A0
:10CD2A003F922F924901380140904A2150904B215D
:10CD3A0020904621309047210E94B07A2F903F9050
:10CD4A004F905F906F907F908F905F924F923F923B
:10CD5A002F92B1E04B2E18010E94FD8D2F903F902B
:10CD6A004F905F900C801D80A201401951090A80E2
:10CD7A001B808201001911090E801F809801201959
:10CD8A0031090A811B81040D151D0E801F800019AF
:10CD9A0011098F927F926F925F924F923F922F92D8
:10CDAA003A01290118010E9481752F903F904F90F6
:10CDBA005F906F907F908F9055C1088419842A855F
:10CDCA003B85201931090C811D81020D131D088430
:10CDDA001984001911098F927F926F925F924F9274
:10CDEA003F922F924901380140904A2150904B219D
:10CDFA0020904621309047210E94B07A2F903F9090
:10CE0A004F905F906F907F908F905F924F923F927A
:10CE1A002F92B1E04B2E18010E94FD8D2F903F906A
:10CE2A004F905F900C811D81A801420D531D0A800D
:10CE3A001B809201201931090A811B81040D151DDD
:10CE4A008F927F926F925F924F923F922F923A0106
:10CE5A00290118010E945A762F903F90088419845C
:10CE6A002A853B85201931090C801D808101001912
:10CE7A00110908841984001911093F922F92490156
:10CE8A00380140904A2150904B2120904621309001
:10CE9A0047210E94B07A2F903F904F905F906F90F9
:10CEAA007F908F905F924F923F922F92B1E04B2EDC
:10CEBA0018010E94FD8D2F903F904F905F900C803B
:10CECA001D80A101401951090A801B809201201975
:10CEDA0031090A811B81040D151D8F927F926F9271
:10CEEA005F924F923F922F923A01290118010E94B4
:10CEFA005A762F903F904F905F90088419842A8524
:10CF0A003B85201931090A811B81040D151D0E80EC
:10CF1A001F800019110908841984001911095F92E8
:10CF2A004F923F922F924901380140904A215090E6
:10CF3A004B2120904621309047210E94B07A2F90B1
:10CF4A003F904F905F906F907F908F905F924F923B
:10CF5A003F922F92B1E04B2E18010E94FD8D2F9027
:10CF6A003F904F905F900A811B81040D151D0E8022
:10CF7A001F80A801401951090C801D8092012019B7
:10CF8A0031090C811D81040D151D8F927F926F92BC
:10CF9A005F924F923F922F923A01290118010E9403
:10CFAA005A762F903F904F905F90088419842A8573
:10CFBA003B85201931090A801B8082010019110959
:10CFCA000E801F800019110908841984001911099B
:10CFDA005F924F923F922F924901380140904A2125
:10CFEA0050904B2120904621309047210E94B07AE0
:10CFFA002F903F904F905F906F907F908F905F92AD
:10D00A004F923F922F92B1E04B2E18010E94FD8D54
:10D01A002F903F904F905F900A801B8082010019E9
:10D02A0011090E801F80A801401951090C801D802A
:10D03A009201201931090C811D81040D151D8F9251
:10D04A007F926F925F924F923F922F923A012901FB
:10D05A0018010E945A762F903F904F905F906F90E0
:10D06A007F908F9004C1B0E08B1609F07CC00C81D0
:10D07A001D81A801420D531D0A801B8092012019AF
:10D08A0031090A811B81040D151D8F927F926F92BF
:10D09A005F924F923F922F923A01290118010E9402
:10D0AA005A762F903F904F905F900C801D80A1017F
:10D0BA00401951090A801B809201201931090A81FD
:10D0CA001B81040D151D5F924F923F922F923A01D8
:10D0DA00290118010E945A762F903F904F905F9035
:10D0EA000A811B81040D151D0E801F80A80140199D
:10D0FA0051090C801D809201201931090C811D8172
:10D10A00040D151D5F924F923F922F923A01290109
:10D11A0018010E945A762F903F904F905F900A8094
:10D12A001B808201001911090E801F80A801401975
:10D13A0051090C801D809201201931090C811D8131
:10D14A00040D151D5F924F923F922F923A012901C9
:10D15A0018010E945A762F903F904F905F906F90DF
:10D16A007F908F9084C00A811B81A801440D551DB0
:10D17A000C801D809101201931090C811D81020D3D
:10D18A00131D8F927F926F925F924F923F922F92CE
:10D19A003A01290118010E9481752F903F904F9002
:10D1AA005F900A801B80A201401951090C801D80E2
:10D1BA009101201931090C811D81020D131D5F9205
:10D1CA004F923F922F923A01290118010E948175CC
:10D1DA002F903F904F905F900C811D81A801440DC4
:10D1EA00551D0A801B808201001911090E801F80BB
:10D1FA009801201931090A811B81040D151D0E8021
:10D20A001F80001911095F924F923F922F923A01A3
:10D21A00290118010E9481752F903F904F905F90CD
:10D22A000C801D80A201401951090A801B808201CD
:10D23A00001911090E801F809801201931090A81ED
:10D24A001B81040D151D0E801F80001911095F92A4
:10D25A004F923F922F923A01290118010E9481753B
:10D26A002F903F904F905F906F907F908F90288182
:10D27A00398100E010E02017310784F40C811D8108
:10D28A00000F111F000F111F98012A5F3F4F0881DD
:10D29A001981020F131F0883198319C00A801B8082
:10D2AA000C811D8100191109000F111F000F111F98
:10D2BA009801265F3F4F08811981020F131F0883C7
:10D2CA0019830A811B81015010400A831B830C8138
:10D2DA001D810F5F1F4F0C831D83FFCB08890093AD
:10D2EA00962309891A8900935E2110935F219F90E2
:0CD2FA006296CDBFDEBFDF91CF9108959A
:10D30600CF93DF93CDB7DEB76397CDBFDEBF219650
:10D316002F923F924F925F926F927F925F924F92BF
:10D326003F922F92240113010E941D8D2F903F9052
:10D336004F905F902614370431F431011201240115
:10D346000E945A7690C14814590441F47F926F9214
:10D3560032014F905F900E94817585C1B0E0BA8717
:10D36600BB879301221933092883398300E010E033
:10D37600201731077CF40880198000E010E00019BE
:10D386001109088319830A851B85015010400A87F5
:10D396001B8706C00A851B850F5F1F4F0A871B87E1
:10D3A600B0E0BC87BD879401241935092A833B83E5
:10D3B60000E010E0201731077CF40A801B8000E0B3
:10D3C60010E0001911090A831B830C851D85015085
:10D3D60010400C871D8706C00C851D850F5F1F4FEB
:10D3E6000C871D87B0E0BE87BF87288139810A81F7
:10D3F6001B81201731070CF057C00E851F850F5F64
:10D406001F4F0E871F87288139810A811B81088358
:10D4160019832A833B838101120128012A853B85D2
:10D426000C851D850A871B872C873D87B1E0B88B45
:10D436001889009196230117B0F10889098BB0E08D
:10D44600BA8B09891A8901701070103009F40030FE
:10D4560041F409881A8800E010E000191109098BC7
:10D466001A8B09891A8915950795040D151D9F9222
:10D476008F927F926F925F924F923F922F9260901F
:10D486005E2170905F21210118010E942F5F2F906D
:10D496003F904F905F906F907F908F909F900889FC
:10D4A6000F5F088BC5CF3CC0B1E0B88B18890091DF
:10D4B60096230117A8F10889098BB0E0BA8B098970
:10D4C6001A8901701070103009F4003041F409888F
:10D4D6001A8800E010E000191109098B1A8B0989D6
:10D4E6001A8915950795040D151D9F928F927F92A7
:10D4F6006F925F924F923F922F9260905E21709052
:10D506005F2128010E942F5F2F903F904F905F90E0
:10D516006F907F908F909F9008890F5F088BC6CF82
:10D5260008811981000F111F088719870A811B813D
:10D53600000F111F0E831F8308801980001911091F
:10D546000C831D83288139812150304028833983FB
:10D5560000E010E0201731070CF485C02C813D81D6
:10D5660000E010E0201731076CF00C851D85040DD6
:10D57600151D2801088419840C811D8100191109C3
:10D586000C831D830A851B85020D131D18012C8132
:10D596003D810E811F81020F131F0C831D83B1E095
:10D5A600B88B188900919623011708F45BC0088987
:10D5B600098BB0E0BA8B09891A8901701070103096
:10D5C60009F4003041F409881A8800E010E00019D7
:10D5D6001109098B1A8B09891A8915950795098BE3
:10D5E6001A8B0E851F85B02FB12BE9F009891A8990
:10D5F600040D151D9F928F927F926F925F924F92AC
:10D606003F922F9260905E2170905F212101180158
:10D616000E942F5F2F903F904F905F906F907F906A
:10D626008F909F901BC009891A89040D151D9F9222
:10D636008F927F926F925F924F923F922F9260905D
:10D646005E2170905F2128010E942F5F2F903F90EE
:10D656004F905F906F907F908F909F9008890F5F9B
:10D66600088B9FCF6FCF7F906F905F904F903F90CA
:0ED676002F906296CDBFDEBFDF91CF91089559
:020000040001F9
:1034CC00CF93DF93CDB7DEB72197CDBFDEBF21966B
:1034DC002F92B091C407BB7FB093C407B091C407BF
:1034EC00B77FB093C4070E94D7802090C523E0918A
:1034FC000E21F0910F210995209133213091342127
:10350C002017310700E00CF401E008830E94D780FB
:10351C002090C523E0910E21F0910F210995209167
:10352C003321309134212017310710E00CF411E0D5
:10353C00088101232F90CDBFDEBFDF91CF9108957D
:00354C007F
:1001AE000E94426B0E94426B0E94426B0E94426B05
:0A01BE000E94426B0E94426B0895FC
:020000040000FA
:0ED6840013E003E10A95F1F71A95E1F7089516
:020000040001F9
:1003F200022D0370202F30E0220F331F220F331FF4
:10040200220F331F00E212E0020F131FA801F801AE
:10041200B1E0B083FA013196022D000F000F000FF8
:100422000083FA013296B0E0B083FA0100810068DD
:10043200FA010083FA0133960081013009F0FACF04
:10044200FA013396B1E0B083FA0134960081202F8D
:1004520030E0FA0135960081102F0027022B132B72
:020462000895FB
:10038000022D0370202F30E0220F331F220F331F66
:10039000220F331F00E612E0020F131FA801F8011D
:1003A000B1E0B083FA013196022D000F000F000F6B
:1003B0000083FA013296B0E0B083FA010081006850
:1003C000FA010083FA0133960081013009F0FACF77
:1003D000FA013396B1E0B083FA0134960081202F00
:1003E00030E0FA0135960081102F0027022B132BE5
:0203F00008956E
:1030D4002F923F924F925F926F927F928F929F9224
:1030E4002090CB203090CC200E94588EB1E04B2E03
:1030F400BFEF2B2EBFE03B2E0E94FD8DBFEF7B2E3A
:103104008B2EB1E06B2E5524BFEF3B2E4B2EB1E03E
:103114002B2EBFEFBF93BF930E94BB80ADB7BEB74A
:103124001296ADBFBEBFB2ED8B2EB0E09B2EB8E1C0
:103134006B2EB1E07B2EB2E34B2EB0E05B2EB8E2F7
:103144002B2EB0E03B2E03D8BAE56B2EB0E07B2EDD
:10315400B8E14B2EB1E05B2EB8E22B2EB0E03B2E53
:103164000E948175B2E86B2EB0E07B2EB8E14B2E45
:10317400B1E05B2EB8E22B2EB0E03B2E0E948175AD
:10318400BAEA6B2EB0E07B2EB8E14B2EB1E05B2E99
:10319400B8E22B2EB0E03B2E0E948175B4E66B2E74
:1031A400B0E07B2EB2ED4B2EB0E05B2EB2E32B2EC3
:1031B400B0E03B2E0E945A76B0EA6B2EB0E07B2E34
:1031C400B2ED4B2EB0E05B2EB2E32B2EB0E03B2EE3
:1031D4000E945A76BCED6B2EB0E07B2EB2ED4B2EE6
:1031E400B0E05B2EB2E32B2EB0E03B2E0E945A7669
:1031F400BAE06B2EB0E07B2EBFE04B2EB0E05B2E2E
:10320400B4EC2B2EB0E23B2E0E94F78EB9E16B2E6C
:10321400B0E07B2EBFE04B2EB0E05B2EBCEB2B2E40
:10322400B0E23B2E0E94F78EBAE06B2EB0E07B2E0C
:10323400B6E94B2EB0E05B2EB0E02B2EB0E23B2E75
:103244000E94F78EB9E16B2EB0E07B2EB6E94B2ECF
:10325400B0E05B2EBDEC2B2EB0E23B2E0E94F78E2D
:103264008824B0E06B2EB8EF7B2EB4EF2B2EB1E0A8
:103274003B2EB0E04B2E542C0E949E8EBDEC6B2E48
:10328400B0E07B2EBFE04B2EB0E05B2EB6ED2B2ED4
:10329400B0E23B2E0E94F78EB5EA6B2EB0E07B2E97
:1032A400BFE04B2EB0E05B2EB1E42B2EB0E23B2E00
:1032B4000E94F78EBDE76B2EB0E07B2EBFE04B2E55
:1032C400B0E05B2EBDE32B2EB0E23B2E0E94F78EC6
:1032D400B5E56B2EB0E07B2EBFE04B2EB0E05B2E4D
:1032E400B5E42B2EB0E23B2E0E94F78EBDE26B2E8E
:1032F400B0E07B2EBFE04B2EB0E05B2EBCE42B2E67
:10330400B0E23B2E0E94F78E8824BFE16B2EB0E022
:103314007B2EB4EF2B2EB1E03B2EB0E04B2E542C81
:103324000E949E8EBDEC6B2EB0E07B2EBDE14B2E39
:10333400B1E05B2EB9E42B2EB0E23B2E0E94F78E57
:10334400B5EA6B2EB0E07B2EBDE14B2EB1E05B2ED7
:10335400B9E32B2EB0E23B2E0E94F78EBDE76B2E15
:10336400B0E07B2EBDE14B2EB1E05B2EB4E32B2EFF
:10337400B0E23B2E0E94F78EB5E56B2EB0E07B2EBB
:10338400BDE14B2EB1E05B2EBAE92B2EB0E23B2E11
:103394000E94F78EBDE26B2EB0E07B2EBDE14B2E7A
:1033A400B1E05B2EBCED2B2EB0E23B2E0E94F78EDB
:1033B400882466247724B4EF2B2EB1E03B2EB0E0B2
:1033C4004B2E542C0E949E8EB2ED6B2EB0E07B2EC1
:1033D400BFE54B2EB0E05B2EB1E32B2EB0E03B2ECD
:1033E4000E94338EB2ED6B2EB0E07B2EBBE94B2EE8
:1033F400B0E05B2EB2E32B2EB0E03B2E0E94338E66
:10340400B2ED6B2EB0E07B2EB7ED4B2EB0E05B2E11
:10341400B3E32B2EB0E03B2E0E94338EB2ED6B2E25
:10342400B0E07B2EB3E14B2EB1E05B2EB4E32B2E48
:10343400B0E03B2E0E94338EB2ED6B2EB0E07B2EBB
:10344400B7E34B2EB0E05B2EB1EE2B2EB0E23B2E59
:103454000E94F78E9F908F907F906F905F904F9017
:063464003F902F90089537
:101CB0004F925F92B0910407BF7DB09304073F92AB
:101CC0002F9244245524222433240E945A5C2F90BE
:101CD0003F9020E030E000910C2110910D21201761
:101CE000310720F540E050E000915A2110915B212E
:101CF00040175107B0F43F932F935F934F933F9258
:101D00002F92E0914121F091422109952F903F902F
:101D10004F915F912F913F918A010F5F1F4FA80153
:101D2000E3CF89010F5F1F4F9801D5CFB091040712
:0C1D3000B062B09304075F904F900895DC
:101C66004F925F9200915A2110915B2140165106C6
:101C760008F018C000910C2110910D216016710614
:101C860008F010C03F922F9212012301D3DE2F904D
:101C96003F9000919323002319F00E94727802C0AE
:0A1CA6000E94EE765F904F900895C3
:102D38002F923F924F925F926F927F928F929F92C3
:102D4800B1E04B2EBFEF2B2EBFE03B2E0E94FD8D36
:102D5800B2ED8B2EB0E09B2EB8E16B2EB1E07B2E4E
:102D6800B2E34B2EB0E05B2EB8E22B2EB0E03B2E48
:102D7800ECD9BFEF7B2E8B2EB1E06B2E5524BFEF25
:102D88003B2E4B2EB1E02B2EBFEFBF93BF930E947B
:102D9800BB80ADB7BEB71296ADBFBEBFBAE56B2E4E
:102DA800B0E07B2EB8E14B2EB1E05B2EB8E22B2EC3
:102DB800B0E03B2E0E948175B2E86B2EB0E07B2E0E
:102DC800B8E14B2EB1E05B2EB8E22B2EB0E03B2EE3
:102DD8000E948175BAEA6B2EB0E07B2EB8E14B2ECB
:102DE800B1E05B2EB8E22B2EB0E03B2E0E9481753D
:102DF800B4E66B2EB0E07B2EB2ED4B2EB0E05B2E2E
:102E0800B2E32B2EB0E03B2E0E945A76B0EA6B2E2E
:102E1800B0E07B2EB2ED4B2EB0E05B2EB2E32B2E52
:102E2800B0E03B2E0E945A76BCED6B2EB0E07B2EB4
:102E3800B2ED4B2EB0E05B2EB2E32B2EB0E03B2E72
:102E48000E945A769F908F907F906F905F904F90DE
:062E58003F902F90089549
:102BE600CF93DF93CDB7DEB76597CDBFDEBF219616
:102BF6002F923F924F925F928E01015F1F4F2801E5
:102C0600209082233090832369DC8E0198012D5F0A
:102C16003F4F8E01015F1F4FF80134960081F90185
:102C260000838E0198012E5F3F4F8E01015F1F4F7B
:102C3600F80133960081F90100838E0198012F5F18
:102C46003F4F8E01015F1F4FF80132960081F90157
:102C560000839E018E01015F1F4FF80131960081AE
:102C6600F90100838E01015F1F4F302E412E209007
:102C760084237ADC8E0198012B5F3F4F8E01015F22
:102C86001F4FF80132960081F90100838E019801E9
:102C96002C5F3F4F8E01015F1F4FF8013196008177
:102CA600F90100838E01015F1F4F302E412E2090C7
:102CB60085235ADC8E019801295F3F4F8E01015F03
:102CC6001F4FF80132960081F90100838E019801A9
:102CD6002A5F3F4F8E01015F1F4FF8013196008139
:102CE600F90100838E01F8013896BEE2B0838E01A9
:102CF600F8013996B4E7B0838E01F8013A96B8E741
:102D0600B0838E01F8013B96B4E7B0838E01F801DB
:102D16003C96B0E0B0838E0118010E940B8E5F9046
:102D26004F903F902F906496CDBFDEBFDF91CF913D
:022D36000895FE
:1024E200CF93DF93CDB7DEB72297CDBFDEBF219664
