:040000009EEF07F078
:1000080000C016F001C015F0E1CF17F0E2CF18F0EC
:100018009EAA1CD0740E47240301AA6F000E482024
:10002800AB6F2FEC06F0AAC3E1FFABC3E2FF00C041
:10003800E6FF474A482A4850030A02E1000E4718DB
:1000480004E1476A486A010E3B6E9E9A16C000F0AA
:0E00580015C001F017C0E1FF18C0E2FF110053
:0C0066001A0E0D6E0D2EFED700001200C9
:0C007200020E0D6E0D2EFED700001200D5
:0A007E00F3DF8A88F1DF8A98120090
:100088007F0E0301A915006E00C0A9F38A948A9611
:10009800BF0E001600C0A9F3008C00C0A9F300C071
:0600A80083FFE9DF1200F6
:1000AE00FF0E956EDFDFDEDF8A848A988A868A8865
:1000BE00D3DF83CFA9F38A988A96D4DFD3DF956AEC
:0600CE00A9C300F01200BE
:0E00D4008A988A848A96A9C383FFCFDF120020
:1000E200F250026EF29E0500FF6A0150FE6E005051
:0800F200FD6E02BEF28E120049
:1000FA007F0E0301A915016E01C0A9F301AC03D05B
:0C010A008A808A9202D08A908A821200B9
:100116008A948A96B80E0301A911836EADDF120088
:10012600000E03019B5D0AE39B517F0807E3000E67
:100136009C5D04E39C513F0801E301D04AD09BC378
:10014600A9F3D8DF9CC3A9F3A933A99FA933A99F13
:10015600A933A99FDDDF9BC3A9F393DFA5DF00C009
:10016600A0F3A2DF00C0A0F39CC3A9F3A933A99F03
:10017600A933A99FA933A99FCBDF9BC3A9F381DF2D
:10018600070E9C15006E00C09EF300C001F0010E24
:10019600006E015004E000360090FF0FFBD700C050
:1001A6009EF3001C9F6F09D09F51A0170FD09E5140
:1001B600A0130CD09E51A01B09D09D51000AF4E05B
:1001C6009D51010AF4E09D51020AF4E0A0C3A9F38F
:0401D6007EDF1200B6
:1001DA000134083609360450085E0550D8A0053C9B
:1001EA00095E003601360F0E0C6E013408360936E8
:1001FA00045000A006D0085E0550D8A0053C095E50
:10020A0005D008260550D8B0053C09260036013627
:10021A000C2EEBD700B006D0045008260550D8B0F3
:08022A00053C0926000012004A
:100232004A0E0301A76F000EA86F000E006EA051B8
:10024200005C02E19F51000843E242C0E1FF43C06B
:10025200E2FF9BC3E6FF9CC3E6FF9DC3E6FF9EC38E
:10026200E6FF9FC3E6FFA0C3E6FFA30EE66E030E02
:10027200E66E40C000F041C001F032DF00C0A5F3DD
:1002820001C0A6F30301A16BA26BA451A25D02E11E
:10029200A351A15D11E2A5C3E9FFA6C3EAFFA7C36B
:1002A200E1FFA8C3E2FFEECFE6FFA74BA82BA54BC9
:1002B200A62BA14BA22BE9D7A3519F5FA451A05B10
:1002C200A3519B27A4519C23000E9D239E23B5D7A7
:0202D200120018
:1002D4000B6A0A6A096A00500402F4CF09F0F3CFEA
:1002E40008F001500502F4CF0BF0F3CF0AF00050F0
:1002F4000502F3500926F4500A22E86A0B22015041
:100304000402F3500926F4500A22E86A0B2208C0BA
:1003140000F009C001F00AC002F00BC003F01200A3
:100324009BC365F09CC366F09DC367F0020E030196
:100334009B25F66E000E9C21F76E000E9D21F86E33
:100344000900F5CF04F0030E9B25F66E000E9C21E8
:10035400F76E000E9D21F86E0900F5CF03F003C07F
:1003640001F0006A045000240001686F000E0120AF
:10037400696F040E03019B25F66E000E9C21F76E37
:10038400000E9D21F86E0900F5CF04F0050E9B25A3
:10039400F66E000E9C21F76E000E9D21F86E09008A
:1003A400F5CF03F003C001F0006A045000245E6E30
:1003B400000E01205F6E060E9B25F66E000E9C213A
:1003C400F76E000E9D21F86E0900F5CF72F0000E55
:1003D4000001736F9EC352F0000E536E9FC360F012
:0A03E400010E206E456A466A120001
:1003EE00086A096A100E0C6E01340836093604507C
:1003FE00085E0550D8A0053C095ED8B007D0045061
:10040E0008260550D8B0053C0926D890003601368E
:06041E000C2EEAD71200CB
:100424000450000A08E10550000A05E1FF0E006EC1
:100434007F0E016E57D00D6A096A086A01500010D8
:10044400D8B4000C015005180A6E0ABE0D1E0B6AC2
:1004540005AE05D0041E051E042AD8B4052A01AE33
:1004640005D0001E011E002AD8B4012A015005102F
:100474000A6E0ABE10D0AFDE0BB020D00DAE000C59
:10048400001E011E002AD8B4012A081E091E082ACB
:10049400D8B4092A000C05AE0DD001BE07D0015016
:1004A400096E0050086E016A006AE8D7016A006AA2
:1004B400002A000C011E001E0B2ADDD7082AD8B41E
:1004C400092A0450085CD8A4D9D70550095CD8A4DB
:1004D400D5D7096A086A002AD8B4012A01AECED752
:0604E4000000FF0C1200F5
:1004EA0082C302F083C303F002C000F003C001F02C
:1004FA00024A032A00C0E9FF01C0EAFFEE5201E006
:10050A00F3D703018251025C006E83510358016ED6
:0A051A00010E005E000E015A1200EF
:100524000301976B986B996B9A6B000169510301F6
:10053400835D04E1000168510301825D01E2C8D1D9
:1005440083515F5C02E182515E5C01E2C1D1000132
:1005540068510301825D036E0001695103018359EF
:10056400046E03C000F004C001F0003600900136B0
:10057400003600900136080E3C249B6F000E3D208F
:100584009C6F000E3E209D6F000E3F209E6F00501A
:100594009B2701509C23000E9D239E23040E9F6FD6
:1005A400000EA06F44DE4A0E956F000E966F95C341
:1005B400E9FF96C3EAFFEECF08F008C097F3010EF7
:1005C4009525E96E000E9621EA6EEECF04F0000E3A
:1005D400056E066E076E020E9525E96E000E9621D5
:1005E400EA6EEECF03F003C001F0006A000E026E63
:1005F400036E0450002605500122065002220750C3
:10060400032200503C24896F01503D208A6F025020
:100614003E208B6F03503F208C6F08C000F00032E7
:10062400009E0032009E0032009E000E016E72C0D9
:1006340004F073C005F04CDE00C08FF301C090F3EA
:10064400070E9715006E08E00001725103018F2711
:1006540000017351030190238FC393F390C394F368
:1006640042C0E1FF43C0E2FF89C3E6FF8AC3E6FF5D
:100674008BC3E6FF8CC3E6FF8FC3E6FF90C3E6FFA0
:100684008D0EE66E030EE66E40C000F041C001F030
:1006940026DD00C095F301C096F303018D5189272F
:1006A4008E518A23000E8B238C238D518F5F8E51A4
:1006B400905B916B926B00016051000AD8A483D0C7
:1006C40076C386F377C387F30301856B000E006E50
:1006D40000017351005C03E172510301855D6BE21B
:1006E40003015CC098F35DC099F3886B846B9751E8
:1006F400845D5DE28851000A49E1914B922B94514B
:100704008E5D02E193518D5D37E292518E5D02E17F
:1007140091518D5D31E2010E916F000E926F42C0D6
:10072400E1FF43C0E2FF89C3E6FF8AC3E6FF8BC350
:10073400E6FF8CC3E6FF8FC3E6FF90C3E6FF8D0E92
:10074400E66E030EE66E40C000F041C001F0C7DC67
:1007540000C095F301C096F38FC393F390C394F351
:1007640003018D5189278E518A23000E8B238C23FC
:100774008D518F5F8E51905B95C3E9FF96C3EAFF5D
:10078400EECF9AF3954B962B010E886F88519A15EC
:10079400006E07E098C39BF386C39CF352C09DF39D
:1007A400C0DC984B992B88378891842BA0D7864B33
:1007B400872B852B8BD70301010E98255C6E000EC9
:1007C40099215D6E85D003015CC086F35DC087F31B
:1007D400856B000E006E00017351005C03E17251E1
:1007E4000301855DD8B06DD0030176C398F377C358
:1007F40099F3886B846B9751845D5FE28851000A9A
:1008040049E1914B922B94518E5D02E193518D5DA0
:1008140037E292518E5D02E191518D5D31E2010E1C
:10082400916F000E926F42C0E1FF43C0E2FF89C3A3
:10083400E6FF8AC3E6FF8BC3E6FF8CC3E6FF8FC3E4
:10084400E6FF90C3E6FF8D0EE66E030EE66E40C033
:1008540000F041C001F043DC00C095F301C096F301
:100864008FC393F390C394F303018D5189278E5161
:100874008A23000E8B238C238D518F5F8E51905BC6
:1008840095C3E9FF96C3EAFFEECF9AF3954B962BF7
:10089400010E886F88519A15006E07E086C39BF39A
:1008A40098C39CF352C09DF33CDC010E985F000E8C
:1008B400995B88378891842B9ED7864B872B852B11
:1008C40088D70301010E985D766F000E9959776FF2
:0208D400120010
:1008D60082C35CF083C35DF084C376F385C377F38C
:0208E6001200FE
:1008E80082C3E9FF83C3EAFFEE500301841905E1DF
:1008F80082C300F083C301F010D082C300F083C329
:1009080001F0824B832B00C0E9FF01C0EAFFEECF64
:0C09180000F00052E5E1006A016A1200E4
:1009240086C300F003018607005228E082C3E9FF72
:1009340083C3EAFFEE50000A0CE082C3E9FF83C3DD
:10094400EAFF84C3D9FF85C3DAFFEE50DE1801E164
:100954000FD082C3E9FF83C3EAFF84C3D9FF85C3F1
:10096400DAFFDE50EE5C006E016A000E015A08D018
:100974000301824B832B844B852BD2D7006A016AF7
:0209840012005F
:1009860003018A6B8B6B8C6B2050000A0CE1520EB4
:100996009B6F110E9C6F000E9D6F010E9E6F9F6BDD
:1009A600BEDC010E206E0001000E006E6951005C77
:1009B60003E168510301825D01E2FCD0000E5F5C39
:1009C60003E1030182515E5C01E2F4D0000168514B
:1009D6000301825D016E69C002F0000E025601C07D
:1009E60003F002C004F00336039004360336039086
:1009F6000436080E00016525006E000E6621016EA4
:100A0600000E6721026E000E056E0050032601508F
:100A160004220250052203C0F6FF04C0F7FF05C0FA
:100A2600F8FF0900F5CF8AF3010E0324F66E000ED7
:100A36000420F76E000E0520F86E0900F5CF00F0D1
:100A460000C006F0000E076E086E096E020E032443
:100A5600F66E000E0420F76E000E0520F86E0900F3
:100A6600F5CF03F003C001F0006A000E026E036EBC
:100A76000650002607500122085002220950032280
:100A8600655100240301876F0001665101200301AF
:100A9600886F0001675102200301896F00016051D0
:100AA600000A45E176C385F30301846B000E006EF0
:100AB60000017351005C03E172510301845D2FE272
:100AC60003015CC08BF3866B836B8A51835D24E2E2
:100AD6008651000A10E187C3F6FF88C3F7FF89C372
:100AE600F8FF0900F5CF8CF3010E8727000E882347
:100AF6008923010E866F86518C15006E08E08BC324
:100B06009BF385C39CF352C09DF393EC00F08B2BB3
:100B160086378691832BD9D7852B842BC7D703019C
:100B26008B51010F5C6E5D6A000E5D2243D003019E
:100B36005CC085F3846B000E006E00017351005C8F
:100B460003E172510301845D2FE2030176C38BF347
:100B5600866B836B8A51835D24E28651000A10E11D
:100B660087C3F6FF88C3F7FF89C3F8FF0900F5CFEF
:100B76008CF3010E8727000E88238923010E866FCA
:100B860086518C15006E08E085C39BF38BC39CF3DE
:100B960052C09DF393EC00F08B0786378691832B2A
:100BA600D9D7852B842BC7D703018B05766F776B37
:060BB600000E775B120047
:100BBC00496A456A466A939A93989394939693904C
:100BCC0093928A9A956A8A948A968A908A828A8A59
:100BDC003F0E836E3FEC00F0C00E836E3FEC00F0D6
:100BEC008A808A923F0E836E3FEC00F0C00E836EBB
:060BFC003FEC00F01200C6
:100C02008A908A8203017C6B7C51070810E37CC3C3
:100C1200A9F38BEC00F07B6B7B513F0806E37AC3B0
:100C2200A9F36AEC00F07B2BF7D77C2BEDD78A92E5
:100C32008A807C6B7C51070810E37CC3A9F38BECA0
:100C420000F07B6B7B513F0806E37AC3A9F36AECA1
:0C0C520000F07B2BF7D77C2BEDD71200B5
:100C5E00AECF01F0ABA202D0AB98AB8801C000F0D2
:020C6E00120072
:100C70000900F5CFE6FF0006FBE10106F9E11200ED
:100C8000FF0E00016E6FFF0E6F6FFF0E706FFF0E95
:100C9000716F5E0E616F0C0E626F000E636F000E5F
:100CA000646FFF0E546EFF0E556E000E566E000EF2
:100CB000576EFF0E586EFF0E596E000E5A6E000EE4
:100CC0005B6EAC8A900EAB6E948E949C9EAA03D001
:080CD000AECF00F0FBD71200CB
:100CD800000E03017B1902E1000E7A1935E07AC390
:100CE800E9FF7BC3EAFFEE522FE07CC382F37DC3AA
:100CF80083F375EC02F000C086F37AC382F37BC3FA
:100D080083F37CC384F37DC385F308DE000E0118EA
:100D180002E1000E001805E17AC300F07BC301F080
:100D280015D0010E03017A25826F000E7B21836F97
:100D38007CC3E9FF7DC3EAFFEECF84F3D1DD00C0B9
:0E0D48007AF301C07BF3C4D7006A016A12007F
:100D560003017A515A08006E7BC301F0000E01565A
:100D66003D0E046E000E056E6AEC01F0B40E046EC4
:100D7600000E056E12EC02F0010E002403017E6FD8
:100D8600000E01207F6FB40E7C25006E000E7D21C3
:100D9600016E7D0E046E000E056E6AEC01F000C059
:100DA60080F301C081F3680E046E010E056EF7EC48
:100DB60001F0004A012A00C080F301C081F300C09F
:100DC6009BF37EC39CF3020E9D6F93EC00F08005AF
:100DD6009B6F7EC39CF3020E9D6F93EC00F08051D7
:100DE600010F9B6F7EC39CF3020E9D6F93EC00F088
:100DF60080C39BF37E059C6F020E9D6F93EC00F003
:100E060080C39BF37E51010F9C6F020E9D6F93EC86
:040E160000F01200D6
:100E1A00000E03017D5D02E1800E7C5D01E33BD0A3
:100E2A00000E7F5D02E1400E7E5D01E334D0806BEF
:100E3A00816B7CC382F37DC383F37EC384F37FC358
:100E4A0085F344DD80517A25E96E81517B21EA6E72
:100E5A00EE5221E04550461011E080517A25E96EA4
:100E6A0081517B21EA6EEECF82F3000E836F000E72
:100E7A00836F92EC02F0804B812B0CD080517A2543
:100E8A00E96E81517B21EA6EEECF82F377DD0301B1
:080E9A00804B812BD7D7120019
:100EA20003017E6B7F6B806B7E51070845E3A96B64
:100EB2007DEC00F07EC3A9F38BEC00F0A96B44EC4F
:100EC20000F07D6B7D513F0812E37F517A25F66E6B
:100ED20080517B21F76E000E7C21F86E0900F5CF60
:100EE200A9F36AEC00F07F4B802B7D2BEBD7400EF1
:100EF200A96F7DEC00F07EC3A9F38BEC00F0400EED
:100F0200A96F44EC00F0400E7D6F7D517F0812E323
:100F12007F517A25F66E80517B21F76E000E7C217F
:100F2200F86E0900F5CFA9F36AEC00F07F4B802B35
:0A0F32007D2BEBD77E2BB8D7120001
:100F3C0094EC0DF00F01386B3A6B3B6B3C6B96925B
:100F4C008492050E0B6E0F0E0C6EF10E0D6E0D2EA7
:100F5C00FED70C2EFCD70B2EFAD7848229DE030188
:100F6C007A6B49DE446A3B6A476A486AB886030E64
:100F7C00B06E400EAF6EAC847DDE110E0B6E3C0E6F
:100F8C000C6ECB0E0D6E0D2EFED70C2EFCD70B2E31
:100F9C00FAD79D8AF28EF28C210E03017A6F000E25
:100FAC007B6F140E7C6F000E7D6F1C0E7E6F000E1F
:100FBC007F6F2DDFAB92AB943B50010AD8A4C1D00C
:100FCC0003013B6A740E7A6F000E7B6F190E7C6FF7
:100FDC00000E7D6F7BDE00C074F301C075F3000E54
:100FEC00011802E1000E0018D8B4ABD02B0E03018F
:100FFC007425E96E000E7521EA6EEE50310AD8A404
:10100C00A0D0120E7425E96E000E7521EA6E300E1A
:10101C00EE5C006E016A000E015A0A0E046E000EA0
:10102C00056E6AEC01F0130E7425E96E000E752145
:10103C00EA6E300EEE5C026E036A000E035A02502A
:10104C00002400016C6F035001206D6F1E0E030114
:10105C007425E96E000E7521EA6E300EEE5C006EA2
:10106C00016A000E015A640E046E000E056E6AECE5
:10107C0001F000C078F301C079F31F0E7425E96EFE
:10108C00000E7521EA6E300EEE5C006E016A000EE9
:10109C00015A0A0E046E000E056E6AEC01F0005047
:1010AC00782500016A6F01500301792100016B6FF3
:1010BC00200E03017425E96E000E7521EA6E300EC8
:1010CC00EE5C006E016A000E015A005000016A27A6
:1010DC0001506B231C0E03017425E96E000E752163
:1010EC00EA6EEE50530A07E100016C5100086C6F78
:1010FC006D51000E6D57290E03017425E96E000E1B
:10110C007521EA6EEE50570A07E100016A5100089A
:10111C006A6F6B51000E6B5744520AE1050E0301C6
:10112C007A6F170E7B6F000E7C6FB5DE010E446E6E
:10113C006CC07AF36DC07BF36AC07CF36BC07DF33B
:06114C0004DE38D7FFD7D6
:101B280010EE19F0220E006E010E016E050EF66E13
:0E1B38001B0EF76E000EF86E38EC06F0120071
:10115200000020007F000B000188010001930100C4
:10116200039E010007A9010005B4010009BF0100A7
:1011720006D5010001E0010003EB010002F60100C7
:1011820005010200060C0200021702000222020000
:10119200022D02000338020004430200044E020042
:1011A2000459020004640200056F0200047A02007E
:1011B2000485020004900200049B020004A60200BF
:1011C20002B1020002BC020006C7020006D20200FF
:1011D20006DD020004E8020007F3020006FE020038
:1011E2000509030006140300061F0300052A030075
:1011F2000535030006400300064B030003560300B7
:1012020003610300056C03000477030007820300F7
:10121200068D03000798030005A3030007AE030031
:1012220005B9030005C4030005CF030006DA030075
:1012320006E5030007F0030004FB030005060400B3
:1012420004110400021C04000327040002320400FB
:10125200053D04000548040003530400045E040035
:101262000469040003740400047F0400048A040077
:101272000395040004A0040004AB040001B60400BA
:1012820002C1040004CC040001D7040007E20400F8
:1012920004ED040004F8040004030500040E050034
:1012A2000319050003240500022F0500043A050076
:1012B2000545050007500500035B050005660500AE
:1012C20003710500037C05000287050003920500F7
:1012D200069D050002A805000000000000000000B5
:1012E20000000000000101010101000100000005F1
:1012F200050500000000000000000024247E143FC9
:10130200121200000000041E05060C140F04040053
:10131200000000460029002900D60028012801C447
:101322000000000000000006090916091926000045
:1013320000010101000000000000000004020101A0
:101342000101010102040000010202020202020183
:101352000004150E15040000000000000000000843
:10136200083E080800000000000000000000020221
:101372000100000000000000030000000000000067
:101382000000000002020000000404020202020245
:101392000101000000060909090909060000000010
:1013A2000406040404040E000000000708080402F6
:1013B200010F0000000007080806080807000000E7
:1013C20000080C0A091F0808000000000F010107AD
:1013D20008080700000000060101070909060000CD
:1013E20000000F08040402020100000000060909BF
:1013F20006090906000000000609090E0808060091
:1014020000000000000202000202000000000000D2
:101412000202000202010000000000201C021C2047
:10142200000000000000003F003F0000000000003C
:1014320000021C201C020000000007080804020031
:1014420002000000001C2259555539021C00000000
:101452000C0C12123F2121000000000709090F1194
:10146200110F000000001C22010101221C000000DB
:10147200000F11212121110F000000001F01010F97
:1014820001011F000000001F01010F010101000006
:1014920000001C22013921223C00000000212121F0
:1014A2003F21212100000000070202020202070080
:1014B20000000006040404040403000000001109F3
:1014C2000503050911000000000101010101010FDE
:1014D20000000000636355554949410000000021A6
:1014E200232529312121000000001C2241414122F3
:1014F2001C000000000F1111110F0101000000007B
:101502001C22414141221C106000000F11110F05E5
:101512000911000000001E01010E10100F00000052
:10152200001F0404040404040000000021212121FE
:1015320021211E0000000021212112120C0C0000AA
:1015420000004949555555222200000000090906AC
:101552000606090900000000110A0A040404040036
:101562000000000F08040202010F00000003010145
:101572000101010101010300010102020202020450
:10158200040000030202020202020202030000043B
:101592000A1100000000000000000000000000002E
:1015A20000001F0002040000000000000000000014
:1015B200000006080E090E000000010101070909DA
:1015C20009070000000000000601010106000000FA
:1015D2000808080E0909090E0000000000000609AB
:1015E2000F010E00000006010107010101010000C8
:1015F200000000000E0909090E080600010101079A
:1016020009090909000000000100010101010100AE
:1016120000000002000302020202020100010101B5
:101622000905030509000000010101010101010191
:10163200000000000000374949494900000000004D
:10164200000709090909000000000000060909094C
:101652000600000000000007090909070101000057
:1016620000000E0909090E08080000000005030128
:101672000101000000000000070102040700000051
:10168200000001030101010200000000000009093D
:1016920009090E000000000000110A0A0A040000F5
:1016A20000000000494955362200000000000005F4
:1016B20002020205000000000000110A0A0A0404E6
:1016C20002000000000704020107000000040202F9
:1016D20002020102020204000202020202020202E9
:1016E20002020001020202020402020201000000E0
:1016F200000026190000000000000003030303039A
:03170200000000E4
:10170500FF8101010181818181C181818181818186
:101715008181818181E1A1A16161D1D1813131C90C
:10172500C9C9C961CDCD81891939393979F9F9F92C
:10173500F9F9FDFD7979710909010101010101013C
:1017450001010111119191919181818101010101A4
:101755000949494949C141418181C1C181C1C1F19C
:10176500F1F1F1E1E1E1C1C1C1C1C1C1C1C1C181B4
:10177500C1C1E1E18181818181818181818181FF96
:10178500FF012111110F0F0F0F0F070707070F0F8C
:101795001F3F3F3F3FFFFFFFFFFFFFFFFFFBFBF04B
:1017A500F0F0F0E2FCFCF9F9FAF0F00101010103B7
:1017B5000101000000000002020000001818E0E02E
:1017C500E0E0F4EFEFFFFFFFFFFFFFFFFFFFFEFE8F
:1017D500FFFFFFFFFFFFFFFFFFFFFFFFFFFFFFFF14
:1017E500FFFFFFFFFFFFFFFFFFFFFFFFFFFFFFFF04
:1017F5005F5F030303033F0F0F030303030301FFAE
:10180500FF000000000000000000000000000000D4
:1018150000000000000F3F3FFFFFFFFFFF3F3F3F7E
:101825003F3F3F3F878701010000000000000000A7
:10183500000000000000000000C0C0C0F3F3FBFB87
:10184500FBFBFBF7E7E7F3F7F7F7E6EC7C7CFFFF3D
:10185500DC3C3D3D3F7EFFFFFFFFFFFFFFFFFFFF3E
:10186500FFFFFFFFFFFFFFFFFF3B3B0307031B0CD2
:10187500070700000000000000000000000000FF56
:10188500FF00000000010100000000000000000052
:101895000000000000000000000001010306060D25
:1018A5000D0D0D11F2F2F2F2F0E0E0C0C0C0C00083
:1018B5000000000000000000001F1F1F3F3F3F3FCA
:1018C5003F3FFFFFFFFFFFFFFFFFFFFFF8F8F7F7C1
:1018D500370303030300010103030F0F0700000192
:1018E500010303EF0F0F0181E0AE2E8000800000A1
:1018F500000000000000000000000000000000FFE4
:10190500FF000000000000000000000000000000D3
:1019150000000000000000000000000000000000C2
:10192500000000033F3FFFFFFFFFFFFFFFFFFFFF3B
:10193500FEFE0C0C0000000000000000000000008E
:10194500000001FFFFFFFFFFFFFFFFFF3F3FC1C19A
:10195500F000000000000000000000000000000092
:10196500000000000303040981C1C0E1E0E2E0F2E8
:10197500E3E3E4E40808000000000000000000FFC5
:10198500FF00000000000000000000000000000053
:101995000000000000000000000000000000000042
:1019A500000000000000FFFFFF1F1F0F0F0F0F01BA
:1019B5000000000000000000000000000000000022
:1019C50000000003030F0F0F0F0F030300000101B9
:1019D5000000000000000000000000000000000002
:1019E5000000000000000000070F0F0707070707AA
:1019F5001F1F7F7F4646000000000000D0D000FF7B
:101A0500FF000000000000000000000000000000D2
:101A150000000000000000000000000000000000C1
:101A25000000000000008787C1404400000000005E
:101A350000000000000000000000000000000000A1
:101A45000000000000000000000000000000000091
:101A55008080808080800000000000000000000081
:101A650000000080808080808000000000000080F1
:101A7500000000000000000000000000000000FF62
:101A8500FFF0F0F0F0F8F8F8F8F8F8F8F8F8FCFCE2
:101A9500FCFCFCFCFCFCFCFCFCFCFCFCFCFCFCFC81
:101AA500FCFCFCFCFEFEFFFFFFFCFCF8F8F8F8F878
:101AB500F8F8F8F8F8F8FCFCFCFEFEFEFEFEFFFF69
:101AC500FFFFFFFFFFFFFFFFFFFFFFFFFEFEFFFF23
:101AD500FFFFFFFFFFFFFFFFFFFFFFFFFFFFFFFF11
:101AE500FFFFFFFFFFFFFFFFFFFFFFFFFFFFFFFF01
:101AF500FFFFFFFFFFFFFFFFFFFAFAFAD8D8F8FF55
:071B0500244750474741004F
:011B0C0000D8
:101B0D0057616974696E6720666F722073617465C1
:0A1B1D006C6C69746520464958009D
:020000040030CA
:0D000100331F3CFFBF81FF0FC00FE00F4019
:00000001FF
