:10000000FC7F012031250000ED280000ED280000D4
:10001000ED280000ED280000ED280000ED2800008C
:10002000ED280000ED280000ED280000ED2800007C
:10003000ED280000ED280000ED280000ED2800006C
:10004000ED280000ED280000ED280000ED2800005C
:10005000ED280000D1240000ED280000ED2800006C
:10006000ED280000ED280000ED280000ED2800003C
:10007000ED280000ED280000ED280000ED2800002C
:10008000ED280000ED280000ED280000ED2800001C
:10009000ED280000ED280000ED280000ED2800000C
:1000A000ED280000ED280000ED280000ED280000FC
:1000B000ED280000ED280000ED280000ED280000EC
:1000C000ED280000ED280000ED280000ED280000DC
:1000D000ED280000ED280000ED280000ED280000CC
:1000E000ED280000ED280000ED280000ED280000BC
:1000F000ED280000ED280000ED280000ED280000AC
:10010000ED280000ED280000ED280000ED2800009B
:10011000ED280000ED280000ED28000000000000A0
:1001200040F21707C0F200077F1EFDD100BF00BFDD
:1001300000BF00BF7047FFFF81B000235BB20549DD
:100140000B6005490870054A1360012149B211602E
:1001500001B070479C7F4C42FCD30340907F4E42DD
:1001600081B0CDF800E0002410B401F083FC01B0B0
:10017000DDF800E001B0704781B001235BB20549B2
:100180000B6005490870002252B204490A600B60F6
:1001900001B070479C7F4C42FCD30340907F4E429D
:1001A00081B0CDF800E0002464B20B4B1C6001224A
:1001B00052B20A490A600A490A600A4908700A49A3
:1001C0000C600A601A60FFF7ABFFFFF7A9FFDDF8CC
:1001D00000E001B0704700BF987F4E42947F0C4210
:1001E0009C7F4C42FCD30340907F4E4281B0CDF8BF
:1001F00000E0FFF795FFFFF793FF002464B2094B7F
:100200001C60012252B208490A6008490C60084982
:10021000087008490C600A601A60DDF800E001B05F
:10022000704700BF987F4E42947F0C429C7F4C42A7
:10023000FCD30340907F4E4249F6FF67C0F224078B
:100240007F1EFDD100BF00BF00BF00BF7047FFFF92
:100250004DF2BE47C0F201077F1EFDD100BF00BFB7
:1002600000BF00BF00BF00BF7047FFFF81B08A49D9
:1002700000EA01010846F1E08849096841F00102FD
:1002800086490A6086490A686FF001010A4084497C
:100290000A603FE18149096841F001027F490A6033
:1002A0007F49096841F001027D490A6032E17B49DA
:1002B000096841F0020279490A6079490A686FF0D9
:1002C00002010A4076490A6024E17449096841F054
:1002D000020272490A607249096841F002027049DB
:1002E0000A6017E16D49096841F004026B490A6030
:1002F0006B490A686FF004010A4069490A6009E124
:100300006649096841F0040264490A606449096861
:1003100041F0040262490A60FCE06049096841F06A
:1003200008025E490A605E490A686FF008010A40E7
:100330005B490A60EEE05949096841F008025749F3
:100340000A605749096841F0080255490A60E1E02E
:100350005249096841F0100250490A6050490A6840
:100360006FF010010A404E490A60D3E04B4909681A
:1003700041F0100249490A604949096841F01002F8
:1003800047490A60C6E04549096841F020024349EF
:100390000A6043490A686FF020010A4040490A6038
:1003A000B8E03E49096841F020023C490A603C49F6
:1003B000096841F020023A490A60ABE03749096810
:1003C00041F0400235490A6035490A686FF0400142
:1003D0000A4033490A609DE03049096841F0400213
:1003E0002E490A602E49096841F040022C490A60F2
:1003F00090E02A49096841F0800228490A602849AA
:10040000096801F07F0226490A6083E023490968F0
:1004100041F0800221490A602149096841F08002C7
:100420001F490A6076E01D49096841F480721B4942
:100430000A601B490A686FF480710A4018490A6013
:1004400068E01649096841F4807214490A60144949
:10045000096841F4807212490A605BE0B0F1402FF4
:100460003FF40AAF0F4988423FF414AF0E49884267
:100470003FF41DAF0D4988423FF427AF0C49884235
:100480003FF430AF0B4988423FF43AAF0A49884203
:100490003FF443AF00F012B800F0FFFF08E10F4057
:1004A0006CE00F4000800540005000400090054087
:1004B0000060004000A005400070004016498842DE
:1004C0003FF439AF154988423FF442AF144988429E
:1004D0003FF44CAF134988423FF455AF124988426C
:1004E0003FF45FAF114988423FF468AF104988423A
:1004F0003FF472AF0F4988423FF47BAF0E49884208
:100500003FF484AF0D4988423FF48DAF0C498842D7
:100510003FF497AF01B0704700B005400040024083
:1005200000C005400050024000D00540006002407D
:1005300000E005400070024000F0054000D003409C
:100540000000064082B0CDF800E08DF804100023D2
:100550005BB2094A1360094C2468A0479DF8040067
:10056000074C2468A04701235BB2034A1360DDF8FF
:1005700000E002B0704700BF987F4E425803002051
:100580005C030020FFFFFFFF4AF67F17C0F203075E
:100590007F1EFDD100BF00BF00BF00BF7047FFFF3F
:1005A00085B0CDF800E0154D0346002922D904ACF2
:1005B0000193ADF80810039522461846104C2468A4
:1005C000A047039DBDF80810019B04460020BDF81C
:1005D0001020904206D222782A706D1C641C401CA8
:1005E00080B2F4E7BDF81020891A89B2BDF8102056
:1005F0009B18DAE7DDF800E005B07047340300200F
:100600004003002081B0CDF800E047F20040C4F282
:1006100002004FF001014FEA411140F24013012264
:10062000C9B2FFF79DFD002149B22B48016046F297
:100630000040C4F202004FF001014FEAC11140F244
:1006400040130122C9B2FFF78BFD012149B22348B3
:10065000016047F20040C4F202004FF001014FEA8E
:10066000811140F240130122C9B2FFF779FD012147
:1006700049B21B48016046F20040C4F200004FF04E
:1006800001014FEA411140F240130122C9B2FFF7C4
:1006900067FD47F20040C4F202004FF001014FEA4B
:1006A000011140F240130122C9B2FFF759FD0121A7
:1006B00049B20C4801600C4801604DF20040C4F2A0
:1006C000030040F240130122FF21FFF749FDDDF84E
:1006D00000E001B0704700BF947F4E429C7F4C42C7
:1006E000987F4E42947F0C42907F4E4282B0CDF86C
:1006F00000E0ADF804200AB201B2BDF80400002900
:1007000004DB134B1B88994200D200E01BE0002A57
:1007100004DB104B1B889A4200D200E013E0002457
:1007200064B20D4B1C60ADF8040088B291B20B4C62
:100730002468A047BDF80400094C2468A0470124A0
:1007400064B2054B1C60DDF800E002B0704700BFEA
:100750002603002028030020987F4E4248030020F3
:100760004C0300208AB0CDF800E0ADF81C00ADF8D5
:1007700020108DF82430951C2C78ADF808406E1CA4
:1007800034782502ADB2BDF808406419ADF80840D0
:10079000751C2C78ADF806406E1C34782502ADB27D
:1007A000BDF806406419ADF80640741C0594BDF808
:1007B0001C50444C2488641BADF81040BDF82050F8
:1007C000414C2488641BADF8124000256DB23F4CAB
:1007D00025600024ADF80A40BDF80850BDF80A4075
:1007E000AC4280F06780059C0694BDF81250BDF8BD
:1007F0000A40AC4258D8344C2588BDF82040AC4261
:1008000052D200248DF80F409DF824509DF80F40DF
:10081000AC4249D2069C0594BDF82010BDF81C00DE
:100820002B4C2468A0470020BDF80640A04230D2DF
:10083000059C2478ADF80C40059C661C3478250294
:10084000ADB2BDF80C406419ADF80C40741C0594B1
:10085000BDF81040A04218D800248DF80E409DF835
:1008600024509DF80E40AC420ED2ADF80400BDF805
:100870000C00184C2468A047BDF804009DF80E40F9
:10088000641C8DF80E40EAE7FFE7441CA1B288B271
:10089000CAE7BDF82040641CADF820409DF80F4029
:1008A000641C8DF80F40AFE7BDF80A40641CADF83A
:1008B0000A4091E701256DB2044C2560DDF800E0A7
:1008C0000AB070472603002028030020987F4E427C
:1008D000480300204C03002081B08DF80010014631
:1008E0009DF80000FFE70A78824201D1084605E042
:1008F0000B46491C1A78002AF5D1002001B0704738
:1009000085B0CDF800E0ADF80C1001B2ADF81020C4
:10091000BDF90C30994205DD88B2BDF90C10ADF877
:100920000C00FFE7002903DA002109B208B205E054
:100930003A4B1B88994200D36CE008B2BDF90C30E9
:10094000002B00DA66E0354B1C88BDF90C30A34261
:1009500004D3324B1B885B1EADF80C3001238DF89D
:1009600008302F4B1C789DF80830A34252D89DF8D0
:10097000084004F001031BB21BB963421CB221B250
:1009800000E021B24C1024B221B2BDF910301B1985
:100990001BB2002B08DBBDF910305C1824B2214BD0
:1009A0001B889C4200D201E002B22CE0002464B219
:1009B0001D4B1C60BDF910305C18ADF80400A1B2ED
:1009C00080B21A4C2468A047BDF9040086B2B1B2C7
:1009D000BDF90C30994211D8154B1C88ADF80400B4
:1009E000ADF80610A0B2134C2468A047BDF806105D
:1009F000BDF904004B1C9EB2B1B2E9E7012464B218
:100A0000094B1C6002B29DF808305B1C8DF8083061
:100A100010B2A6E7DDF800E005B07047260300201D
:100A20005403002028030020987F4E4248030020F2
:100A3000560300204C03002081B0CDF800E085B2C1
:100A4000E90AC8B2C100CEB2F109C9B2012902D186
:100A5000F11DC8B200E0F0B2FFF7A2FB6909C8B20D
:100A60008100CEB2F109C9B2012902D1F11CC8B28C
:100A700000E0F0B2FFF794FBE900CDB2E909C9B29A
:100A8000012902D1E91DC8B200E0E8B2FFF788FBF6
:100A9000DDF800E001B070478CB0CDF800E0ADF8B3
:100AA00024001046ADF828108DF82C30851C2C78C9
:100AB000ADF80A406E1C34782502ADB2BDF80A408C
:100AC0006419ADF80A40751C2C78ADF808406E1C0E
:100AD00034782502ADB2BDF808406419ADF808407D
:100AE000741C07940DF1160624783480079C641C4E
:100AF000079424782502ADB2348864193480079CA9
:100B0000641C0794B51C24782C80079C641C0794F3
:100B1000B61C24782502ADB2348864193480079C51
:100B2000641C0794BDF82450534C2488641BADF812
:100B30000C40BDF82850514C2488641BADF80E4081
:100B400000256DB24E4C25600024ADF81240BDF872
:100B50000A50BDF81240AC4280F08580079C089492
:100B6000BDF80E50BDF81240AC4200F27680434C06
:100B70002588BDF82840AC4280F06F8000248DF8B5
:100B800015409DF82C509DF81540AC4280F06580D2
:100B9000089C0794BDF82810BDF82400394C24683F
:100BA000A04700248DF81A400024ADF81040BDF88D
:100BB0000850BDF81040AC4244D29DF81A404CB9E0
:100BC000079C24788DF80640079C641C07948024B9
:100BD0008DF81A409DF806509DF81A402C40E4B25A
:100BE00034B10DF11604A41C2488ADF8044004E0CF
:100BF0000DF116042488ADF80440BDF80C50BDF882
:100C00001040AC4213D800248DF814409DF82C50AD
:100C10009DF81440AC420AD2BDF804001A4C246876
:100C2000A0479DF81440641C8DF81440EEE79DF831
:100C30001A4064088DF81A40BDF81040641CADF8E5
:100C40001040B4E7BDF82840641CADF828409DF87A
:100C50001540641C8DF8154093E7BDF81240641CE4
:100C6000ADF8124073E701256DB2054C2560DDF843
:100C700000E00CB0704700BF2603002028030020CE
:100C8000987F4E42480300204C030020ADF2282DEF
:100C9000CDF800E0ADF81C02ADF820128DF824323A
:100CA000951C2C78ADF80A406E1C34782502ADB244
:100CB000BDF80A406419ADF80A40751C2C78ADF8EF
:100CC00008406E1C34782502ADB2BDF808406419A6
:100CD000ADF80840741C8594BDF81C52524C248811
:100CE000641BADF80E40BDF82052504C2488641BA4
:100CF000ADF8104040F2000A1FFA8AF0B0F5807F8C
:100D000019D205AE44003519859C24782C80859C29
:100D1000651C8595440036192C782502ADB23488BF
:100D200064193480859C641C8594441C1FFA84FAE1
:100D30001FFA8AF0E2E700256DB23D4C25600024E1
:100D4000ADF80C40BDF80A50BDF80C40AC4280F044
:100D50006280859C8694BDF81050BDF80C40AC4272
:100D600053D8324C2588BDF82042AC424DD20024E5
:100D70008DF813409DF824529DF81340AC4244D2A4
:100D8000869C8594BDF82012BDF81C02294C24686D
:100D9000A0470020BDF80840A0422BD2859C2478B3
:100DA00005AD64002C192488ADF80640859C641CB0
:100DB0008594BDF80E40A04218D800248DF812404A
:100DC0009DF824529DF81240AC420ED2ADF80400BA
:100DD000BDF80600184C2468A047BDF804009DF833
:100DE0001240641C8DF81240EAE7FFE7441CA1B2F0
:100DF00088B2CFE7BDF82042641CADF820429DF8D0
:100E00001340641C8DF81340B4E7BDF80C40641C1B
:100E1000ADF80C4096E701256DB2054C2560DDF874
:100E200000E00DF2282D7047260300202803002043
:100E3000987F4E42480300204C03002093B0CDF829
:100E400000E0ADF840001046ADF844108DF8483091
:100E5000851C2C78ADF806406E1C34782502ADB2A6
:100E6000BDF806406419ADF80640751C2C78ADF845
:100E700004406E1C34782502ADB2BDF804406419FC
:100E8000ADF80440741C0E94BDF840505F4C2488AB
:100E9000641BADF80E40BDF844505D4C2488641BC3
:100EA000ADF8104040F2000B1FFA8BF0102818D25A
:100EB0000DF11606440035190E9C24782C800E9CEA
:100EC000651C0E95440036192C782502ADB2348885
:100ED000641934800E9C641C0E94441CA1B288B228
:100EE000E4E700256DB24B4C25600024ADF80C40C2
:100EF000BDF80650BDF80C40AC4280F07F800E9CDF
:100F00000F94BDF81050BDF80C40AC4200F2708058
:100F10003F4C2588BDF84440AC4280F069800024F5
:100F20008DF814409DF848509DF81440AC425FD2B3
:100F30000F9C0E94BDF84410BDF84000364C246858
:100F4000A0470024ADF80A40BDF80450BDF80A409F
:100F5000AC4242D2BDF80A4004F00104A4B264B12C
:100F60009DF8124004F00F04E4B20DF11605640080
:100F70002C192488ADF808400FE00E9C25788DF8D8
:100F800012500E9C641C0E942C09E4B20DF116054F
:100F900064002C192488ADF80840BDF80E50BDF847
:100FA0000A40AC4213D800248DF813409DF84850F5
:100FB0009DF81340AC420AD2BDF80800174C2468D3
:100FC000A0479DF81340641C8DF81340EEE7BDF870
:100FD0000A40641CADF80A40B6E7BDF84440641C02
:100FE000ADF844409DF81440641C8DF8144099E716
:100FF000BDF80C40641CADF80C4079E701256DB2DA
:10100000044C2560DDF800E013B070472603002093
:1010100028030020987F4E42480300204C03002004
:101020008BB0CDF800E040F20001ADF826100021B1
:101030008DF82810AF490988884200D256E1AE49A0
:101040000988884200D951E1AA490988411A89B220
:101050008A0092B2A9490968083189180846042112
:10106000FFF79EFAA64803788DF82430411C0978D2
:10107000CAB2811C0978090289B25218C11C0978C8
:10108000090489B252189D49096889180491DA083F
:10109000D2B29C490988514389B206919DF8241027
:1010A00001F00701C9B221B196490A880699891849
:1010B00006910699089105AC224606990498924C2F
:1010C0002468A0470446059A049989180491059A52
:1010D0000699891A0691002107918C4909780029FF
:1010E00040F082808A490988ADF80A1000218DF805
:1010F000091084490A889DF80910914280F06E8099
:1011000084490988ADF8261000218DF80C100021C3
:101110008DF808109DF824209DF80810914252D2B5
:101120009DF80C1059BB0799491C0791089A05991D
:1011300091421AD2059A0799914214D90121079137
:1011400005AC2246069904986F4C2468A0470446D3
:1011500006990891059A049989180491059A0699A7
:10116000891A0691FFE7204600E0204601788DF8B5
:101170002810441C01218DF80C10204600E0204668
:101180009DF80C209DF828101140C9B251B1624958
:10119000098801908AB2BDF80A10BDF82600FFF751
:1011A000A5FA0198BDF82610491CADF826109DF847
:1011B0000C1049008DF80C109DF80810491C8DF892
:1011C00008100446A6E7BDF80A10491CADF80A103D
:1011D0009DF80910491C8DF809108AE7BDF8261002
:1011E0004A1C4C490A8081E04A490988ADF80A1036
:1011F00000218DF8091043490A889DF80910914291
:1012000080F06F8042490988ADF8261000218DF8E2
:101210000C1000218DF808109DF824209DF808106E
:10122000914253D29DF80C1061BB0799491C07915C
:10123000089A059991421AD2059A0799914214D9B0
:101240000121079105AC2246069904982E4C24688A
:10125000A047044606990891059A049989180491B3
:10126000059A0699891A0691FFE7204600E0204674
:1012700001788DF82810411C0C4601218DF80C10C6
:10128000204600E020469DF80C209DF828101140D3
:10129000C9B251B12049098801908AB2BDF826101F
:1012A000BDF80A00FFF722FA0198BDF82610491E82
:1012B000ADF826109DF80C1049008DF80C109DF823
:1012C0000810491C8DF808100446A5E7BDF80A105F
:1012D000491CADF80A109DF80910491C8DF8091039
:1012E00089E7BDF826104A1E09490A80DDF800E0AA
:1012F0000BB070472A0300202C030020300300208D
:10130000340300202E03002040030020250300208A
:101310003E030020440300204603002081B0CDF8A6
:1013200000E082460AF108010978A9B90AF108012A
:101330000978CCB20AF1060109888BB20AF10401DE
:101340000978CAB2DAF800100846D1B2002210B407
:1013500000F090FB01B014E00AF108010978CCB26A
:101360000AF1060109888BB20AF104010978CAB2B0
:10137000DAF800100846D1B20F2210B400F07AFB60
:1013800001B0DDF800E001B07047FFFF86B0CDF896
:1013900000E085B240F20001ADF8121000218DF896
:1013A00014108049097849B97F490022084640F263
:1013B000000100F06BFF01227A490A707B4909881D
:1013C0008D4200D2EAE07A4909888D4200D9E5E0F1
:1013D00076490988691A89B28A0092B2754C2168E7
:1013E00008318B1819788DF81010591C0978CAB279
:1013F000991C0978090289B25218D91C0978090484
:1014000089B2521821460968891803916A490978F6
:10141000002940F062806949B1F8008000236849E2
:1014200009888B4253D267490988ADF8121040F2FF
:10143000000B00218DF80810D8B25FFA8BF99DF8E7
:1014400010209DF8081091423AD2B9F1000F0BD14B
:10145000039909788DF814100399491C039140F2FF
:1014600001095FFA89F201E05FFA89F29DF8141030
:101470001140C9B2A1B1544909888DF804208DF8F2
:101480000500ADF806808AB20FFA88F1BDF81200A7
:10149000FFF72CF9BDF806809DF805009DF80420A3
:1014A000BDF81210491CADF8121051005FFA81FB13
:1014B0009DF80810491C8DF808105FFA8BF9BEE7FB
:1014C00008F101081FFA88F8431CDBB2A7E7BDF852
:1014D00012104A1C3B490A8060E03A49B1F800808A
:1014E0000023374909888B4253D234490988ADF823
:1014F000121040F2000B00218DF80810D8B25FFAEC
:101500008BF99DF810209DF8081091423AD2B9F15C
:10151000000F0BD1039909788DF814100399491C19
:10152000039140F201095FFA89F201E05FFA89F262
:101530009DF814101140C9B2A1B1234909888DF852
:1015400004208DF80500ADF806808AB2BDF81210AF
:101550000FFA88F0FFF7CAF8BDF806809DF805007D
:101560009DF80420BDF81210491EADF8121051006C
:101570005FFA81FB9DF80810491C8DF808105FFA8E
:101580008BF9BEE708F101081FFA88F8411CCBB2BD
:10159000A7E7BDF812104A1E08490A80DDF800E0EE
:1015A00006B07047000000200E3A00002A03002019
:1015B0002C03002050030020250300203E030020C0
:1015C0002E030020440300204603002081B0014682
:1015D00008460B460246401C117801B1FAE7C11AD1
:1015E000491E08B201B0704781B0002149B20448D9
:1015F0000160044801600448016001B0704700BF09
:1016000000061842200618422406184281B08DF8C0
:10161000002002469DF80000C4B2431ED8B274B147
:10162000137823B10C781378A34200D104E0147826
:101630000B78E31A18B204E0521C491CECE70020B6
:1016400000B201B07047FFFF81B0012149B20448E8
:101650000160044801600448016001B0704700BFA8
:101660000006184220061842240618420048704717
:101670008038010081B0CDF800E0FEF7C3FFFEF72F
:10168000DBFD012149B297480160FEF7D5FDFEF769
:10169000D3FD0021EA20FEF755FF2021EB20FEF7C5
:1016A00051FF0C21EC20FEF74DFFC421ED20FEF789
:1016B00049FF4021E820FEF745FF3821E920FEF7E9
:1016C00041FF0121F120FEF73DFF1021F220FEF73E
:1016D00039FFA3212720FEF735FF00214020FEF728
:1016E00031FF00214120FEF72DFF01214220FEF7AE
:1016F00029FF13214320FEF725FF10214420FEF788
:1017000021FF26214520FEF71DFF08214620FEF778
:1017100019FF51214720FEF715FF02214820FEF74F
:1017200011FF12214920FEF70DFF18214A20FEF774
:1017300009FF19214B20FEF705FF14214C20FEF76D
:1017400001FF19215020FEF7FDFE2F215120FEF749
:10175000F9FE2C215220FEF7F5FE3E215320FEF724
:10176000F1FE3F215420FEF7EDFE3F215520FEF70C
:10177000E9FE2E215620FEF7E5FE77215720FEF7E1
:10178000E1FE0B215820FEF7DDFE06215920FEF771
:10179000D9FE07215A20FEF7D5FE0D215B20FEF76A
:1017A000D1FE1D215C20FEF7CDFECC215D20FEF791
:1017B000C9FE4D4800785A2810D100210420FEF7B8
:1017C000C1FEEF210520FEF7BDFE01210820FEF736
:1017D000B9FE3F210920FEF7B5FE0FE001210420EC
:1017E000FEF7B0FE3F210520FEF7ACFE00210820E9
:1017F000FEF7A8FEEF210920FEF7A4FE3A48007884
:101800005A280DD139480078012804D1C821162062
:10181000FEF798FE03E008211620FEF793FE0CE089
:1018200032480078012804D1A8211620FEF78AFE4C
:1018300003E068211620FEF785FE1B211B20FEF722
:1018400081FE01211A20FEF77DFE2F212420FEF7C4
:1018500079FE57212520FEF775FE8D212320FEF706
:1018600071FE36211820FEF76DFE01211920FEF7CA
:1018700069FE00210120FEF765FE88211F20FEF78A
:1018800061FEFEF7E5FC80211F20FEF75BFEFEF700
:10189000DFFC90211F20FEF755FEFEF7D9FCD0217A
:1018A0001F20FEF74FFEFEF7D3FC05211720FEF7A1
:1018B00049FE00213620FEF745FE38212820FEF79C
:1018C00041FEFEF761FEFEF75FFEFEF75DFEFEF7EE
:1018D0005BFE3C212820FEF735FEDDF800E001B07C
:1018E000704700BF947F4E42680300200100002033
:1018F00086B0CDF800E00CB201B2A14204DD88B29E
:1019000021B203B218B200E020B2002902DA0021AD
:1019100009B204E02F4B1B88994200D355E0002800
:1019200000DA52E02B4B1B88984205D3294B1B88C9
:101930005B1E18B203B200E003B2012015B20AB276
:1019400019B2254B1B7898423FD8C4B204F001036A
:101950001BB213B9644224B2FFE763101BB21EB27C
:10196000EB181BB2002B06DBAC1924B21B4B1B88F7
:101970009C4200D200E025E097B28F4222D8184B5B
:101980001C88AB198DF80400ADF80810ADF80C20D8
:10199000ADF81050ADF81260ADF81470A2B239B2C3
:1019A00018B2FEF7A3FEBDF81470BDF91260BDF9C0
:1019B0001050BDF90C20BDF908109DF804007F1CE3
:1019C000BFB2DAE7401CC0B2BBE7DDF800E006B00A
:1019D000704700BF28030020540300202603002086
:1019E0005603002083B0CDF800E0ADF80400ADF858
:1019F00008100220174C2468A047BDF80420140AE0
:101A0000E0B2154C2468A0470320124C2468A0477C
:101A1000BDF80400104C2468A04706200D4C246833
:101A2000A047BDF80820140AE0B20B4C2468A04778
:101A30000720084C2468A047BDF80800064C24681D
:101A4000A0472220034C2468A047DDF800E003B043
:101A5000704700BF580300205C03002081B0034A98
:101A60001080034A118001B0704700BF440300207A
:101A70003E03002082B0CDF800E01FFA83F9CBB21C
:101A8000D5B29DF80870C44C00EA0404A046204674
:101A9000FEF7ECFB3DB908F58066DD43EDB2346836
:101AA0002C40346006E0012D04D108F580652C68D7
:101AB0001C432C6009F00104A4B22CB108F5A26506
:101AC0002C681C432C6006E008F5A266DD43EDB2ED
:101AD00034682C40346009F00204A4B22CB108F23E
:101AE00014552C681C432C6006E008F21456DD43A4
:101AF000EDB234682C40346009F00804A4B22CB173
:101B000008F20C552C681C432C6006E008F20C56B9
:101B1000DD43EDB234682C40346009F01004A4B207
:101B20002CB108F5A0652C681C432C6006E008F574
:101B3000A066DD43EDB234682C40346009F0200427
:101B4000A4B22CB108F204552C681C432C6006E0AA
:101B500008F20456DD43EDB234682C40346009F0DD
:101B60004004A4B22CB108F5A1652C681C432C607C
:101B700006E008F5A166DD43EDB234682C40346020
:101B800009F08004A4B264B109F04004A4B22CB1FD
:101B900008F5A3652C681C432C6001E00120F6E0E9
:101BA00006E008F5A366DD43EDB234682C403460EE
:101BB00009F48074A4B22CB108F21C552C681C43A3
:101BC0002C6006E008F21C56DD43EDB234682C4070
:101BD000346009F40074A4B2002C3DD06F4CA045D1
:101BE00040F2000500D00125EDB26D4CA04540F259
:101BF000000400D00124E4B22540EDB2694CA045B8
:101C000040F2000400D00124E4B22540EDB2664C5D
:101C1000A04540F2000400D00124E4B22540EDB21A
:101C2000624CA04540F2000400D00124E4B22540FB
:101C3000EDB25F4CA04540F2000400D00124E4B2B4
:101C400005EA0404E4B20CB10120A0E008F5A565A2
:101C50002C681C432C603CE0504CA04540F2000531
:101C600000D10125EDB24E4CA04540F2000400D158
:101C70000124E4B22543EDB24A4CA04540F20004F1
:101C800000D10124E4B22543EDB2474CA04540F217
:101C9000000400D10124E4B22543EDB2434CA04539
:101CA00040F2000400D10124E4B22543EDB2404CDF
:101CB000A04540F2000400D10124E4B245EA040446
:101CC000E4B234B108F5A566DD43EDB234682C40CA
:101CD000346009F48064A4B22CB108F584652C68E2
:101CE0001C432C6006E008F58466DD43EDB23468E1
:101CF0002C4034600FB9002049E00B2F01D901209E
:101D000045E0002100200191DAB2C3B24046F9B2A9
:101D1000019F082B12D222FA03F4E4B204F001046A
:101D2000E4B244B19D002DB24FF00F04AC4047EA3D
:101D300004052F46FFE75B1CDBB2EAE700F22C56F6
:101D4000FD4334682C403460002600238DF80420C5
:101D5000CAB29DF80410082B13D221FA03F4E4B29E
:101D600004F00104E4B24CB1D5B29C0024B205FAEF
:101D700004F446EA040425462E46FFE75B1CDBB26A
:101D8000E9E700F22C552C6834432C600020DDF884
:101D900000E002B0704700BF00F0FFFF007000409D
:101DA000004002400050004000B0054000C0054027
:101DB0000090054081B0034A1080034A117001B0C1
:101DC000704700BF560300205403002081B0BDF8C7
:101DD0000450BDF80860074C2070074C2180074C68
:101DE0002270074C2370074C2580074C268001B0D9
:101DF000704700BF550300206003002062030020ED
:101E000063030020640300206603002083B0CDF844
:101E100000E0ADF80400ADF808102A20144C246846
:101E2000A04701AA521C1278D4B2E0B2114C246827
:101E3000A047BDF804000F4C2468A0472B200C4C91
:101E40002468A04702AA521C1278D4B2E0B2094C0E
:101E50002468A047BDF80800064C2468A0472C2041
:101E6000034C2468A047DDF800E003B0704700BFD2
:101E7000580300205C03002081B0044A116801B1BE
:101E8000FBE70349086001B0704700BF14031A4222
:101E900000D0004081B0044A116801B1FBE703495A
:101EA000086001B0704700BF14031C4200E000400E
:101EB00082B0ADF80400012676B209490E6001AD8A
:101EC000691C0978074C217000235BB2064A136035
:101ED0001660297821701360166002B0704700BF49
:101EE0009C7F4C42FCD30340907F4E4281B0044A19
:101EF000116801B1FBE70349086001B0704700BFFA
:101F00001403184200C0004083B0CDF800E0ADF8E3
:101F10000400ADF808102A20134C2468A047BDF82F
:101F20000420140AE0B2114C2468A047BDF8040054
:101F30000E4C2468A0472B200B4C2468A047BDF80A
:101F40000820140AE0B2094C2468A047BDF8080034
:101F5000064C2468A0472C20034C2468A047DDF8D9
:101F600000E003B0704700BF580300205C0300206E
:101F700081B0CDF800E085B28EB22A20FEF736F9A6
:101F80002A0AD0B2FEF70CF9E8B2FEF709F90320ED
:101F9000FEF706F91F20FEF703F92B20FEF726F9BE
:101FA000320AD0B2FEF7FCF8F0B2FEF7F9F80120E1
:101FB000FEF7F6F8DF20FEF7F3F82C20FEF716F90F
:101FC000DDF800E001B0704781B00449086800B155
:101FD000FBE70348006801B0704700BF10031842D8
:101FE00000C0004081B0CDF800E006460D46AEB11D
:101FF00032789AB12846FFF7E9FAC2B2294630464C
:10200000FFF704FB08B9304609E02A78D3B2721C06
:10201000D9B21046FEF760FC0646E8E70020DDF87E
:1020200000E001B0704781B04FF000094BF8049B0D
:10203000BBEB0A0FFAD101B0704781B01CF8019BCD
:102040000BF8019BBBEB0A0FF8D101B07047FFFF03
:1020500083B0CDF800E0BDF90C00C0F15A0109B21F
:10206000A02000B2414309B2B42000B291FBF0F0CD
:1020700000B2283000B20190BDF9100000F2B401A6
:1020800009B240F2401000B2484300B202900299F7
:1020900040F26810B1FBF0F00A38029001214FF6CF
:1020A0000000FFF787FE0298851C0298841E019AA3
:1020B00029B220B2FEF724FC0198851C0198841EE9
:1020C000029A29B220B2FFF713FC0022BDF81C10BF
:1020D000084800F0DBF8C822A021059800F050F96C
:1020E000D722A021069800F04BF9DDF800E003B0FC
:1020F000704700BF0E3A000084B0CDF800E0ADF8A4
:102100000C00002252B212490A6000210020114C3A
:102110002468A04710490A88104909885143029150
:1021200000210191029A0199914208D2BDF80C0058
:102130000B4C2468A0470199491C0191F2E7012248
:1021400052B203490A60DDF800E004B0704700BFF6
:10215000987F4E42480300202603002028030020D9
:102160004C03002081B0CDF800E0124C2488A0423E
:1021700000D31BE0104C2488A14200D316E0541C6D
:1021800024780BE0FEF788FC10E0FEF757FE0DE028
:10219000FEF77CFD0AE0FEF7E5FA07E0012CF1D03E
:1021A000042CF2D0082CF3D0102CF4D0DDF800E091
:1021B00001B07047260300202803002081B0CDF82D
:1021C00000E0002204B440F240130122FFF752FC69
:1021D00001B0DDF800E001B07047FFFF81B0CDF83D
:1021E00000E01D4A1288012A08D01C4B1C4A1360CB
:1021F0001C4B1D4A13601D4B1D4A13601D4A108065
:102200001D4A1180884203D900231C4A137002E042
:102210005A231A4A1370012140F20000FFF7CAFD49
:102220000023002208B404B400230022002100206F
:10223000FFF7CCFD02B000210020FFF70FFC0023C8
:102240000F4A1370FFF716FA0E4B0F4A1360DDF8B2
:1022500000E001B0704700BF02000020390100001B
:1022600058030020790100005C030020B11E00002B
:102270004C030020260300202803002068030020D0
:1022800005000020E51900004803002081B0124B32
:102290001860831C1C78C31C1B781B029BB2E418BB
:1022A0000E4B1C80031D1C78431D1B781B029BB228
:1022B000E4180B4B1C80831D1C780A4B1C800A4BB6
:1022C00019800A4B1A700124094B1C700024094B19
:1022D0001C7001B0704700BF500300202A0300208B
:1022E0002C0300202E03002046030020250300209D
:1022F000000000200500002081B0042806D1194903
:10230000096841F0100217490A6028E0052806D143
:102310001449096841F0110212490A601FE00628B9
:1023200006D11049096841F012020E490A6016E010
:102330000F2806D10C49096841F001020A490A60D8
:102340000DE010280BD3A0F2100461098A000749A0
:102350008B1804F01F024FF001019140196001B089
:10236000704700BF24ED00E010E000E000E100E075
:1023700081B0EFF3108C604662B601B07047FFFF8A
:1023800083B0CDF800E002901C4B1B88994200D32B
:102390002FE01B4B1B889A4200D32AE00020ADF8A7
:1023A000040088B291B2FFF759FBBDF80400029B0C
:1023B0001B181B78EBB1134B1B7863B1029B1B18E6
:1023C0001B78ADF8040098B2FEF72AFEBDF80400B1
:1023D000411C89B20BE0029B1B181B78ADF804006E
:1023E00098B2FEF7D3FFBDF80400411C89B288B251
:1023F000DDE7DDF800E003B0704700BF26030020F2
:10240000280300200500002081B0CDF800E08346BD
:10241000214A22490A60224A22490A60224A234963
:102420000A60234A23490A602348FEF777FF012206
:1024300052B222490A6000BF00BF00BFFFF7D4F8C4
:10244000FFF714F940F2E83100FB01F210464FEAC1
:102450000B11914206D9012252B219490A604FEA82
:102460005B0204E0002252B215490A605A46C100DC
:10247000B1FBF2F1491C4B089A0912490A6003F0BA
:102480003F0211490A60602210490A60FFF7DCF838
:10249000DDF800E001B07047ED1E00006C03002085
:1024A000C91F000070030020FFFFFFFF740300201E
:1024B000FFFFFFFF78030020C44200008020FC43A0
:1024C0001406184224C0004028C000402CC0004020
:1024D00083B0CDF800E012480290B0F90010114826
:1024E00040180190FFF770FD0199087002990846A5
:1024F000B0F90000401C00B20880B0F5407F06D162
:10250000002109B20648018001210748017001211C
:1025100049B206480160DDF800E003B0704700BF33
:10252000060000200C000020040000209008184243
:1025300092B000F0DFF902210E2000F00BFA1AF041
:102540000BFF1AF0C9FE0821B948FFF737FE012139
:1025500049B2B8480160F02140F24010FFF73EFE5A
:1025600041F6FE27C0F2B7077F1EFDD100BF00BFB6
:1025700000BF00BF00BF00BF4FF6FF70FFF7BCFDFC
:102580000123AD4A28210020FFF7ECFD00224FF681
:102590000001AA48FFF77AFE0DF1000B0BF1120AB9
:1025A000DFF89CC2FFF749FD00A804460E224B212C
:1025B0002046FFF7E5FE002240F20001A148FFF7A8
:1025C00065FE0DF1120B0BF1120ADFF87CC2FFF76A
:1025D00034FD0DF112000446C82228212046FFF7E1
:1025E000CFFE0DF1240B0BF1130ADFF860C2FFF7E9
:1025F00024FD09A80446D72228212046FFF7C0FE63
:10260000002193480170002109B29248018042F2F2
:102610008050FFF7F9FE012149B28F48016040F276
:102620001500FFF769FEFFF7A3FE8948007801282F
:1026300040F0558100218648017024208DF8370034
:1026400047208DF8380050208DF8390047208DF84C
:102650003A004C208DF83B004C208DF83C000020C7
:102660008DF83D000DF13700044621467B48FFF709
:10267000B9FC7B490860002800F031817848006887
:10268000C01D00782C2800F02A81754B1868C01DE9
:102690000078A0F2300109B20A2000B2414309B229
:1026A0001846006808300078303800B209186D48C4
:1026B00001801846006814300078A0F2300109B299
:1026C000642000B201FB00F212B218460068153017
:1026D0000078A0F2300109B20A2000B2484300B2EB
:1026E000111809B21846006816300078303800B268
:1026F00009185D4801801846006812300078532898
:1027000004D15849B1F9000040420880544800689B
:1027100020300078572804D15349B1F900004042D5
:1027200008805148B0F900105048B0F900008842C4
:1027300040F2000200D00122D2B24A48B0F90010A3
:102740004B48B0F90000884240F2000000D0012060
:10275000C0B242EA0000C0B2002800F0C0804FF6CC
:10276000FF7001B4434801B4434801B43E4814909B
:10277000B0F9000001B43B481490B0F9000001B476
:10278000FFF766FC05B0364A1068C01D01783A486C
:1027900001701046006808300178384801702C211B
:1027A00037480170104600680930017835480170DB
:1027B000104600680A300178334801702021334800
:1027C0000170104600681230017831480170002114
:1027D00030480170104600681430017825480170B7
:1027E00010460068153001782B48017010460068CB
:1027F00016300178294801702C21294801701046B3
:1028000000681730017827480170104600681830BA
:102810000178254801702021244801701046006885
:1028200020300178224801700021224800F044B88D
:10283000004000408C7F0842D0420000002A000087
:10284000864200000E3A000098420000AA420000B2
:102850000400002006000020100718420C00002091
:10286000080000200C0300200E03002010030020AD
:10287000120300201C030020140300201503002075
:10288000160300201703002018030020190300205E
:102890001A0300201B0300201D0300201E0300203C
:1028A0001F0300202003002021030020220300201A
:1028B000230300202403002001704FF6000001B420
:1028C000084801B4084801B41498B0F9000001B4F4
:1028D0001498B0F9000001B4FFF7BAFB05B0A4E604
:1028E000FEE700BF1C0300201403002081B0FEE7B8
:1028F00001B0704781B0134A134B02F0010068B970
:10290000124801686FF0010001401048016040F674
:10291000D507C0F202077F1EFDD100BF6FF0020095
:1029200002EA0001094801600948036040F210070B
:10293000C0F200077F1EFDD100BF0448026001B055
:10294000704700BF903BC001006800C160E00F40CD
:1029500070E00F4081B0012676B2214A1660214A0C
:102960001660214A166000256DB2204C2560204A71
:1029700013686FF4707213401D4A136000F00F0269
:1029800093011B4A126842EA0303194A1360194A69
:1029900013686FF070021340164A1360164A1560F0
:1029A000144A13686FF0FC521340124A136001F08E
:1029B0003F02D3050F4A126842EA03030D4A13602F
:1029C00026600E4B1A6802B9FBE701235BB2044A8A
:1029D000136000235BB2034A136001B0704700BF6D
:1029E000180BFC432C0EFC437C0EFC43580CFC43A0
:1029F00060E00F4070E00F40340EFC43180AFC43C7
:102A0000000020007F00160001880100059E0100E3
:102A100006B401000ECA01000EF6010011220200E8
:102A20000F6402000390020006A6020006BC02002A
:102A300009D202000EFE0200032A03000640030032
:102A400003560300086C03000E82030004AE03006B
:102A50000CC403000BF003000F1C04000C4804001E
:102A60000E7404000CA004000DCC04000DF804004A
:102A700003240500033A05000D5005000D7C0500F8
:102A80000DA805000DD40500120006000F42060037
:102A90000D6E06000C9A06000EC606000CF206002B
:102AA0000C1E07000E4A07000C76070004A2070060
:102AB00009B807000DE407000A100800103C0800E0
:102AC0000D6808000F9408000DC0080010EC080005
:102AD0000E1809000E4409000B7009000D9C090036
:102AE0000EC8090015F409000D360A000C620A0030
:102AF0000D8E0A0006BA0A0008D00A0005E60A0090
:102B00000FFC0A000A280B0007540B000B6A0B008D
:102B10000B960B000AC20B000BEE0B000A1A0C00FE
:102B200008460C000B5C0C000A880C0004B40C0076
:102B300004CA0C000BE00C00040C0D000E220D006A
:102B40000A4E0D000C7A0D000BA60D000BD20D00E5
:102B500008FE0D000B140E0008400E000A560E0071
:102B60000B820E0011AE0E000AF00E000A1C0F00C0
:102B70000A480F0008740F00068A0F0007A00F0014
:102B80000DB60F000BE20F00000000000000000077
:102B90000000000000000000000000000000000035
:102BA00000001C1C1C1C1C1C1C1C1C1C1C001C1CB9
:102BB0000000000000000000003636363636000007
:102BC0000000000000000000000000000000000005
:102BD0000000C01CC00C600C600EFC3FFC1F3203E8
:102BE0003003FE1FFF0F98018C01CC00CE000000C7
:102BF0000000000000000000000000008000F81F3E
:102C0000FC1F9E008E008E009E00FC0FF81F803877
:102C100080388038803CFC1FFC0F800000000000E2
:102C200000000000000000000000000000003E085E
:102C3000007F0C006304006306006302007F030052
:102C40003E010080F90080FD01808C01C08C0140B4
:102C50008C0160FC0120F800000000000000000072
:102C6000000000000000000000000000F803FC036A
:102C70001E000E000E001E007C7E7C7E1E1C0E1CA4
:102C80000E0E1E0FFC07F8010000000000000000FF
:102C90000000000000060606060600000000000016
:102CA0000000000000000000000038180C0C0C06AA
:102CB00006060606060C0C0C183800000000000082
:102CC0000E0C1818183030303030301818180C0E20
:102CD000000000000000000000003000B400FE0111
:102CE0007800FE01B4003000000000000000000089
:102CF00000000000000000000000000000000000D4
:102D00000000000000000000000080018001800140
:102D100080018001FC3FFC3F800180018001800137
:102D20008001000000000000000000000000000022
:102D30000000000000000000000006060402000081
:102D40000000000000000000000000003F3F000005
:102D50000000000000000000000000000000000073
:102D60000000000000000606000000000000000057
:102D7000C04040602030101808080C04060202030E
:102D800000000000000000000000F003FC0F1E1E09
:102D90000E1C0738073807380738073807380E1C65
:102DA0001E1EFC0FF00300000000000000000000E9
:102DB00000000E0E0E0E0E0E0E0E0E0E0E0E0E0E4F
:102DC000000000000000000000000000FF03FF07FB
:102DD000000E000E000E000EFC07FE030F000700A1
:102DE00007000700FF0FFF0F0000000000000000B9
:102DF0000000000000000000FF01FF038007000743
:102E000000078007FE03FE03800700070007800716
:102E1000FF03FF01000000000000000000000000B0
:102E200000000000001E001F801FC01FE01DF01CDE
:102E3000781C3C1C1E1CFE7FFE7F001C001C001C1E
:102E40000000000000000000000000000000000082
:102E5000FF07FF070700070007000700FF03FF0742
:102E6000000E000E000E000EFF07FF030000000022
:102E7000000000000000000000000000E01FF81F3C
:102E80003C001C000E000E00FE0FFE1F0E380E3818
:102E90001C383C3CF81FE007000000000000000068
:102EA0000000000000000000FF0FFF0F000F0007F0
:102EB0008003C003C001E000F000780038003C004F
:102EC0001E000F00000000000000000000000000D5
:102ED00000000000FC07FE0F0F1E071C071C0F1E42
:102EE000FE0FFE0F0F1E071C071C0F1EFE0FFC0718
:102EF00000000000000000000000000000000000D2
:102F0000F801FE070F0F070E071C071CFE1FFC1F12
:102F1000001C001C000E000FFE07FE010000000058
:102F2000000000000000000000000000000000069B
:102F3000060000000606000000000000000000007F
:102F40000000000000060600000006060402000063
:102F50000000000000000000000000000000001061
:102F6000001E800FE0037C001C007C00E003800F4B
:102F7000001E001000000000000000000000000023
:102F80000000000000000000000000000000FC1F26
:102F9000FC1F00000000FC1FFC1F000000000000E0
:102FA0000000000000000000000000000000000021
:102FB00000000000000004003C00F800E003001FD7
:102FC000001C001FE003F8003C00040000000000AB
:102FD000000000000000000000000000FE07FE0FDF
:102FE000001C001C001C001CF80FFC071E000E003B
:102FF0000E0000000E000E000000000000000000A7
:10300000000000000000000000000000801F00E041
:103010007F0070E0003880019CB703CC1703C6180E
:1030200003661803661803668C0166CC01E6FB0094
:10303000CC79001C000078E000F03F00C00F0000D9
:1030400000000000000000000000E001E003E003D9
:10305000F00330073807380E180EFC1FFC1F0E1C3B
:103060000E3806380778000000000000000000005D
:10307000000000000000FE07FE0F0E1C0E1C0E1CC0
:103080000E1CFE0FFE0F0E1C0E1C0E1C0E1CFE0F47
:10309000FE0700000000000000000000000000002B
:1030A0000000F00FF80F1C001C000E000E000E00B8
:1030B0000E000E000E000C001C00F80FF00F0000B8
:1030C0000000000000000000000000000000FE07FB
:1030D000FE0F0E1C0E1C0E380E380E380E380E3831
:1030E0000E380E1C0E1CFE0FFE0700000000000034
:1030F00000000000000000000000F00FF80F1C00AE
:103100001C000E000E00FE0FFE0F0E000E000C0045
:103110001C00F80FF00F000000000000000000008D
:10312000000000000000F00FFC0F1C000E000E005D
:103130000E00FE0FFE0F0E000E000E000E000E0021
:103140000E00000000000000000000000000000071
:103150000000F03FF83F3C001C000E000E008E3FC8
:103160008E3F0E380E381C383C38F83FF03F0000D8
:1031700000000000000000000000000000000E0E33
:103180000E0E0E0E0E0E0E0E0E0EFE0FFE0F0E0E7D
:103190000E0E0E0E0E0E0E0E0E0E000000000000A3
:1031A0000000000000000E0E0E0E0E0E0E0E0E0E93
:1031B0000E0E0E0E000000000000000000000000D7
:1031C000C001C001C001C001C001C001C001C001F7
:1031D000C001C001C001E001FF007F00000000004D
:1031E0000000000000000000000000000E1E0E0F96
:1031F0008E078E03CE01EE00FE00FE00EE01CE0132
:103200008E038E070E0F0E1E00000000000000004F
:1032100000000000000000000E000E000E000E0076
:103220000E000E000E000E000E000E000E001E001E
:10323000FC03F80300000000000000000000000094
:10324000000000001EF03EF83EF83EF87EFC7EFCDA
:103250006EEC6EEEEEEECEE6CEE6CEE78EE38EE3DD
:10326000000000000000000000000000000000005E
:103270001E1C1E1C3E1C7E1C7E1CEE1CCE1CCE1D6D
:103280008E1D8E1F0E1F0E1F0E1E0E1E0000000034
:10329000000000000000000000000000E007F81F30
:1032A0003C3C1C380E700E700E700E700E700E705E
:1032B0001C383C3CF81FE007000000000000000044
:1032C0000000000000000000FE07FE0F0E1E0E1C96
:1032D0000E1C0E1C0E1EFE0FFE070E000E000E0032
:1032E0000E000E00000000000000000000000000C2
:1032F00000000000E007F81F3C3C1C380E700E7008
:103300000E700E700E700E701C783C3CF83FE0F7AB
:1033100000000000000000000000000000000000AD
:10332000FE07FE0F0E1C0E1C0E1C0E1CFE0FFE07D1
:103330000E070E070E0E0E0E0E1C0E3C00000000B7
:10334000000000000000000000000000F81FFC1F4B
:103350001E000E000E000E00FC0FF81F0038003893
:1033600000380038FC1FFC0F0000000000000000C7
:103370000000000000000000FF07FF077000700061
:1033800070007000700070007000700070007000BD
:10339000700070000000000000000000000000004D
:1033A000000000000E1C0E1C0E1C0E1C0E1C0E1C21
:1033B0000E1C0E1C0E1C0E1C0E1C1E1EFC0FF00301
:1033C00000000000000000000000000000000000FD
:1033D0000738071C071C0F1E0E0E1E0F1C071C07AC
:1033E000B803B803F803F001F001E00000000000AA
:1033F00000000000000000000000000000000000CD
:10340000070E1C070F1C061F0E0E1F0E0E1B0E8C28
:103410003B069C3B079C39079C3107F8F103F8F108
:1034200003F8F103F0E001F0E0010000000000000B
:1034300000000000000000000000000000000F1E5F
:103440000E0F1C07BC03F803F001F000F001F001BF
:10345000B803BC071C070E0F0F1E00000000000081
:1034600000000000000000000000030F07078E03AB
:103470008E03DC01F800F80070007000700070002E
:1034800070007000700000000000000000000000EC
:10349000000000000000FE1FFE1F001E000F80073E
:1034A000C003E001E001F00078003C001E00FE1FB8
:1034B000FE1F0000000000000000000000003E3E73
:1034C0000606060606060606060606063E3E000038
:1034D0000000000003020206040C0808101030204F
:1034E000604040C00000000000001F1F181818189E
:1034F00018181818181818181F1F000000000000CE
:10350000000000000007800FC01DE0387070000050
:1035100000000000000000000000000000000000AB
:10352000000000000000000000000000000000009B
:10353000000000000000000000000000000000008B
:10354000000000000000000000000000000000007B
:103550000000FF03000000001C30600000000000BD
:10356000000000000000000000000000000000005B
:1035700000000000000000000000FC01FC03000748
:103580000007FC07FE070E070E07FE07FC070000FA
:1035900000000000000000000000000000000E001D
:1035A0000E000E000E00FE01FE038E070E070E0732
:1035B0000E070E078E03FE03FE0100000000000050
:1035C00000000000000000000000000000000000FB
:1035D0000000F003FC031C000E000E000E000E00A5
:1035E0001C00FC03F00300000000000000000000CD
:1035F0000000000000000007000700070007F807B0
:10360000FC071E070E070E070E070E071C07FC0718
:10361000F8070000000000000000000000000000AB
:1036200000000000000000000000F803FC030E0092
:103630000E00FE03FE030E000E00FC03F803000064
:1036400000000000000000000000F8FC1C1CFFFF50
:103650001C1C1C1C1C1C1C1C00000000000000008A
:10366000000000000000000000000000F807FC0758
:103670001C070E070E070E070E071E07FC07F807AC
:1036800000070007FC03FC01000000000000000030
:103690000E000E000E000E00FE01FE038E038E03D0
:1036A0008E038E038E038E038E038E0300000000B4
:1036B0000000000000000000000E0E000E0E0E0EB6
:1036C0000E0E0E0E0E0E0000000000000000000E98
:1036D0000E000E0E0E0E0E0E0E0E0E0E0E0E070726
:1036E00000000000000000000E000E000E000E00A2
:1036F0000E078E03CE01EE007E007E00EE00CE01AE
:103700008E038E0700000000000000000000000093
:103710000E0E0E0E0E0E0E0E0E0E0E0E0E0E0000E5
:103720000000000000000000000000000000000099
:103730000000FE1FFE3FCE39CE39CE39CE39CE390C
:10374000CE39CE39CE390000000000000000000064
:103750000000000000000000000000000000FE016A
:10376000FE038E038E038E038E038E038E038E0361
:103770008E030000000000000000000000000000B8
:1037800000000000000000000000F001FC071C0722
:103790000E0E0E0E0E0E0E0E1C07FC07F0010000A2
:1037A0000000000000000000000000000000000019
:1037B000000000000000FE01FE038E030E070E074E
:1037C0000E070E078E07FE03FE010E000E000E0010
:1037D0000E000000000000000000000000000000DB
:1037E0000000F807FC071C070E070E070E070E0760
:1037F0001E07FC07F8070007000700070007000086
:103800000000000000007EFEEEEE0E0E0E0E0E0E0C
:1038100000000000000000000000000000000000A8
:1038200000000000FC03FE030E000E00FE03FC0778
:1038300000070007FE07FE03000000000000000074
:10384000000000001C1C1C1CFFFF1C1C1C1C1C1C62
:10385000FCF8000000000000000000000000000074
:103860000000000000008E038E038E038E038E0383
:103870008E038E038E03FE03F80300000000000099
:103880000000000000000000000000000000000038
:103890000000070706038E038E039C01DC01D8009D
:1038A000F800F800700000000000000000000000B8
:1038B0000000000000000000000000000000000008
:1038C00000000000000083C301C7C701C6C700C6CF
:1038D000C600EEEE00EC6E006C6C007C7C00783C68
:1038E0000038380000000000000000000000000068
:1038F00000000000000000000000000000000000C8
:103900008703CE01FC00FC00780078007C00FC00FE
:10391000CE0187030000000000000000000000004E
:103920000000000000000000000000008E038E0375
:103930008E038E038E038E038E038E03FE03FC0321
:1039400080038003FE01FE00000000000000000074
:103950000000000000000000FE03FE03C003E001C1
:10396000F00078003C001E00FE03FE030000000093
:103970000000000000000000E0F030303030303057
:103980001C1C303030303030F0E00000003030307F
:103990003030303030303030303030303030303027
:1039A000000000000E1E181818181818707018184B
:1039B000181818181E0E000000000000000000007B
:1039C000000000000000000000000000F810FC1FD4
:1039D000040F0000000000000000000000000000D4
:1039E000000000000000000000000000FE070204CC
:1039F0000204020402040204020402040204020497
:103A0000020402040204020402040204FE0700008D
:103A100020007F001000018801000398010005A824
:103A2000010008B8010007C801000DD801000AF81C
:103A300001000318020005280200053802000748AB
:103A4000020009580200037802000588020003986A
:103A5000020006A8020007B8020007C8020007D843
:103A6000020007E8020007F8020007080300071831
:103A70000300072803000738030007480300035822
:103A8000030003680300097803000998030009B8DC
:103A9000030006D8030009E803000908040007280A
:103AA00004000738040008480400065804000668AB
:103AB000040007780400088804000498040005A89E
:103AC000040007B8040006C804000AD8040007F878
:103AD0000400080805000718050008280500083834
:103AE0000500074805000658050007680500087826
:103AF00005000C88050008A8050008B8050006C8E0
:103B0000050005D8050006E8050005F805000908C8
:103B10000600082806000538060007480600075872
:103B20000600066806000778060007880600059864
:103B3000060007A8060007B8060002C8060003D85A
:103B4000060006E8060002F806000A080700072833
:103B500007000738070007480700075807000568EF
:103B6000070006780700058807000798070007A8E0
:103B700007000AB8070006D8070007E8070006F89C
:103B800007000608080004180800062808000A387C
:103B900008000B58080000000000000000000000B2
:103BA00000000000000000000000060606060606F1
:103BB0000006060000000000001B1B1B1B0000008D
:103BC000000000000000000000004848FEFE247FC6
:103BD0007F1212000000000008083E4B0B0B3E68ED
:103BE00068693E08080000000000000000001E0098
:103BF00033023301B3005E0FA01990198819000F2A
:103C000000000000000000000000000000003C0078
:103C10006600660066003C036603C601C600BC037E
:103C2000000000000000000000060606060000007C
:103C3000000000000000000000180C0C060606063C
:103C40000606060C0C18000000060C0C18181818B4
:103C50001818180C0C06000000185A3C5A180000DE
:103C60000000000000000000000000000000000054
:103C7000200020002000FC01200020002000000087
:103C80000000000000000000000000000000000034
:103C900000060603030000000000000000001F00F3
:103CA0000000000000000000000000000000000014
:103CB0000006060000000000002020101008080484
:103CC000040202010100000000003E6363636363BD
:103CD00063633E00000000000000181E181818184A
:103CE00018187E000000000000003E61616030187E
:103CF0000C067F000000000000003E6160603C6038
:103D000060613E0000000000000030383432317F36
:103D1000303030000000000000007E06063E60608B
:103D200060613E000000000000003C06033F63634A
:103D300063633E000000000000007F603030181810
:103D40000C0C0C000000000000003E6363633E6347
:103D500063633E000000000000003E636363637E17
:103D600060301E0000000000000000000606000099
:103D7000000606000000000000000000060600002B
:103D80000006060303000000000000000000000021
:103D90008001600018000600060018006000800125
:103DA0000000000000000000000000000000000013
:103DB0000000FE0100000000FE0100000000000005
:103DC00000000000000000000000000000000000F3
:103DD00006001800600080018001600018000600E5
:103DE000000000000000000000001E3130180C0C24
:103DF000000C0C00000000000000000000007C002F
:103E0000820079016D016D016D016D01D900020023
:103E1000FC0000000000000000000000000038006E
:103E200038006C006C00C600FE00C60083018301F0
:103E3000000000000000000000003F6363633F6378
:103E400063633F000000000000003E4343030303A0
:103E500043433E000000000000003F63C3C3C3C3F0
:103E6000C3633F000000000000003F0303031F0383
:103E700003033F000000000000003F0303031F0393
:103E8000030303000000000000003E43430373638C
:103E900063637E00000000000000C3C3C3C3FFC310
:103EA000C3C3C3000000000000000F06060606069C
:103EB00006060F000000000000001E181818181851
:103EC00018180F0000000000000063331B0F070FDD
:103ED0001B3363000000000000000303030303031F
:103EE00003033F0000000000000000000000870303
:103EF00087034D034D0339033903110311030103F4
:103F00000000000000000000000047474D4D5959D7
:103F1000717161000000000000007EC3C3C3C3C311
:103F2000C3C37E000000000000003F636363633F83
:103F3000030303000000000000007EC3C3C3C3C32B
:103F4000C3C37E60C000000000003F6363633F1B8B
:103F50003363C3000000000000003E4343033E60A3
:103F600061613E000000000000003F0C0C0C0C0CD6
:103F70000C0C0C00000000000000636363636363CB
:103F800063633E00000000000000C3C3C366663CDC
:103F90003C18180000000000000000000000630C46
:103FA000630C630CF30CF6069E079E070C030C03D0
:103FB00000000000000000000000C3C3663C183C85
:103FC00066C3C300000000000000C3C366663C185F
:103FD000181818000000000000003F3030180C06D0
:103FE00003033F0000000000001E0606060606064A
:103FF000060606061E000000000101020204040875
:104000000810102020000000001E1818181818189A
:10401000181818181E0000000000000000003000F2
:1040200048008400020100000000000000000000C1
:104030000000000000000000000000000000000080
:1040400000000000FF000000000C1800000000004D
:104050000000000000000000000000003C62607EE4
:1040600063637E0000000000000303033B6763639B
:1040700063633F0000000000000000001E230303F4
:1040800003231E0000000000006060607E63636325
:1040900063736E0000000000000000003E63637F59
:1040A00003433E0000000000001C06060F06060643
:1040B0000606060000000000000000007E63636347
:1040C00063736E60613E0000000303033B6763633C
:1040D00063636300000000000003030003030303A5
:1040E00003030300000000000006060007060606A2
:1040F000060606060603000000030303331B0F0732
:104100000F1B33000000000000030303030303033D
:104110000303030000000000000000000000000096
:104120000000DF013303330333033303330333036B
:104130000000000000000000000000003B67636317
:104140006363630000000000000000003E636363DF
:1041500063633E0000000000000000003B676363F3
:1041600063633F0303030000000000007E6363639A
:1041700063736E6060600000000000001B1F03039B
:104180000303030000000000000000001E23071EC0
:1041900038311E0000000000000006061F0606065B
:1041A00006061C000000000000000000636363635B
:1041B00063736E000000000000000000636363365C
:1041C000361C1C0000000000000000000000000081
:1041D000000033033303B601B601CE01CC00CC009E
:1041E00000000000000000000000000033331E0C3F
:1041F0001E333300000000000000000063636336DC
:10420000361C1C180C0C0000000000003F30180C7D
:1042100006033F000000000000380C0C0C0C070CDB
:104220000C0C0C0C38000000000C0C0C0C0C0C0CD2
:104230000C0C0C0C0C00000000070C0C0C0C380CC7
:104240000C0C0C0C07000000000000000000000037
:10425000000000001E023F02F103E1010000000027
:10426000000000000000000000000000FE07020443
:104270000204020402040204020402040204FE070F
:1042800000000000000047505320636C69636B20FE
:104290004578616D706C6500596F7572206C617442
:1042A00069747564652069733A00596F7572206C82
:1042B0006F6E6769747564652069733A00244750AE
:1042C000474C4C0000400040030040050100000046
:1042D0000010A0004001DF5A5F4A7F4A7F4A7F4AB0
:1042E0007F4A7F4A7F4A7F4A7F4A7F4A7F4A7F4A86
:1042F0007F4A7F523F4A5F4A7F4A7F4A7F4A7F4ACE
:104300007F4A7F4A7F4A7F4A7F4A7F4A7F4A7F4A65
:104310007F4A7F4A7F4A7F4A7F4A7F4A7F4A7F4A55
:104320007F4A7F4A7F4A7F4A7F523F4A5F4A7F4A9D
:104330007F4A7F4A7F4A7F4A7F4A7F4A7F4A7F4A35
:104340007F4A7F4A7F4A7F4A7F4A7F4A7F4A7F4A25
:104350007F4A7F4A7F4A7F4A7F4A7F4A7F4A7F4A15
:104360003F4A7F4A7F4A7F4A7F4A7F4A7F4A7F4A45
:104370007F4A7F4A7F4A7F4A7F4A7F4A7F4A7F4AF5
:104380007F4A7F4A7F4A7F4A7F4A7F4A7F4A7F4AE5
:104390007F4A7F4A5F4A3F4A7F527F4A7F4A7F4A2D
:1043A0007F4A7F4A7F4A7F4A7F4A7F4A7F4A7F4AC5
:1043B0007F4A7F4A7F4A7F4A7F4A7F4A7F4A7F4AB5
:1043C0007F4A7F4A7F4A7F4A7F525F4A3F4A7F52F5
:1043D0007F4A7F4A7F4A7F4A7F4A7F4A7F4A7F4A95
:1043E0007F4A7F4A7F4A7F4A7F4A7F4A7F4A7F4A85
:1043F0007F4A7F4A7F4A7F4A7F4A7F4A7F4A7F526D
:104400003F4A7F4A7F4A7F4A7F4A7F4A7F4A7F4AA4
:104410007F4A7F4A7F4A7F4A7F4A7F4A7F4A7F4A54
:104420007F4A7F4A7F4A7F4A7F4A7F4A7F4A7F4A44
:104430007F4A7F4A7F4A3F4A7F4A7F4A7F4A7F4A74
:104440007F4A7F4A7F4A7F4A7F4A7F4A7F4A7F4A24
:104450007F4A7F4A7F4A7F4A7F4A7F4A7F4A7F4A14
:104460007F4A7F4A7F4A7F4A7F4A7F4A3F4A7F523C
:104470007F4A7F4A7F4A7F4A7F4A7F4A7F4A7F4AF4
:104480007F4A7F4A7F4A7F4A7F4A7F4A7F4A7F4AE4
:104490007F4A7F4A7F4A7F4A7F4A7F4A7F4A7F52CC
:1044A0003F4A3F4A7F527F4A7F4A7F4A7F4A7F4A3C
:1044B0007F4A7F4A7F4A7F4A7F4A7F4A7F4A7F4AB4
:1044C0007F4A7F4A7F4A7F4A7F4A7F4A7F4A7F4AA4
:1044D0007F4A7F4A7F523F425F4A7F4A7F4A7F4AF4
:1044E0007F4A7F4A7F4A7F4A7F4A7F4A7F4A7F4A84
:1044F0007F4A7F4A7F4A7F4A7F4A7F4A7F4A7F4A74
:104500007F4A7F4A7F4A7F4A7F4A7F4A3F4A7F4AA3
:104510007F4A7F4A7F4A7F4A7F4A7F4A7F4A7F4A53
:104520007F4A7F4A7F4A7F4A7F4A7F4A7F4A7F4A43
:104530007F4A7F4A7F4A7F4A7F4A7F4A7F4A7F4A33
:104540007F4A3F4A7F4A7F4A7F4A7F4A7F4A7F4A63
:104550007F4A5F4ADF5A7F4AFF41FF41FF41FF41E7
:10456000FF41FF41FF41FF41FF41FF41FF41FF414B
:10457000FF41FF41BF39DF39FF41FF41FF41FF41AB
:10458000FF41FF41FF41FF41FF41FF41FF41FF412B
:10459000FF41FF41FF41FF41FF41FF41FF41FF411B
:1045A000FF41FF41FF41FF41FF41BF39DF39FF417B
:1045B000FF41FF41FF41FF41FF41FF41FF41FF41FB
:1045C000FF41FF41FF41FF41FF41FF41FF41FF41EB
:1045D000FF41FF41FF41FF41FF41FF41FF41FF41DB
:1045E000BF39FF41FF41FF41FF41FF41FF41FF4113
:1045F000FF41FF41FF41FF41FF41FF41FF41FF41BB
:10460000FF41FF41FF41FF41FF41FF41FF41FF41AA
:10461000FF41FF41DF39BF39FF41FF41FF41FF410A
:10462000FF41FF41FF41FF41FF41FF41FF41FF418A
:10463000FF41FF41FF41FF41FF41FF41FF41FF417A
:10464000FF41FF41FF41FF41FF41DF39DF39FF41BA
:10465000FF41FF41FF41FF41FF41FF41FF41FF415A
:10466000FF41FF41FF41FF41FF41FF41FF41FF414A
:10467000FF41FF41FF41FF41FF41FF41FF41FF413A
:10468000BF39FF39FF41FF41FF41FF41FF41FF417A
:10469000FF41FF41FF41FF41FF41FF41FF41FF411A
:1046A000FF41FF41FF41FF41FF41FF41FF41FF410A
:1046B000FF41FF41FF41BF39FF39FF41FF41FF414A
:1046C000FF41FF41FF41FF41FF41FF41FF41FF41EA
:1046D000FF41FF41FF41FF41FF41FF41FF41FF41DA
:1046E000FF41FF41FF41FF41FF41FF39BF39FF411A
:1046F000FF41FF41FF41FF41FF41FF41FF41FF41BA
:10470000FF41FF41FF41FF41FF41FF41FF41FF41A9
:10471000FF41FF41FF41FF41FF41FF41FF41FF4199
:10472000DF39DF39FF41FF41FF41FF41FF41FF41D9
:10473000FF41FF41FF41FF41FF41FF41FF41FF4179
:10474000FF41FF41FF41FF41FF41FF41FF41FF4169
:10475000FF41FF41FF41DF39DF39FF41FF41FF41A9
:10476000FF41FF41FF41FF41FF41FF41FF41FF4149
:10477000FF41FF41FF41FF41FF41FF41FF41FF4139
:10478000FF41FF41FF41FF41FF41FF41BF39FF4171
:10479000FF41FF41FF41FF41FF41FF41FF41FF4119
:1047A000FF41FF41FF41FF41FF41FF41FF41FF4109
:1047B000FF41FF41FF41FF41FF41FF41FF41FF41F9
:1047C000FF41BF39FF41FF41FF41FF41FF41FF4131
:1047D000FF41FF417F4A7F4AFF41FF41FF41FF41C7
:1047E000FF41FF41FF41FF41FF41FF41FF41FF41C9
:1047F000FF41FF41BF39DF39FF41FF41FF41FF4129
:10480000FF41FF41FF41FF41FF41FF41FF41FF41A8
:10481000FF41FF41FF41FF41FF41FF41FF41FF4198
:10482000FF41FF41FF41FF41FF41BF39DF39FF41F8
:10483000FF41FF41FF41FF41FF41FF41FF41FF4178
:10484000FF41FF41FF41FF41FF41FF41FF41FF4168
:10485000FF41FF41FF41FF41FF41FF41FF41FF4158
:10486000BF39FF41FF41FF41FF41FF41FF41FF4190
:10487000FF41FF41FF41FF41FF41FF41FF41FF4138
:10488000FF41FF41FF41FF41FF41FF41FF41FF4128
:10489000FF41FF41DF39BF39FF41FF41FF41FF4188
:1048A000FF41FF41FF41FF41FF41FF41FF41FF4108
:1048B000FF41FF41FF41FF41FF41FF41FF41FF41F8
:1048C000FF41FF41FF41FF41FF41DF39DF39FF4138
:1048D000FF41FF41FF41FF41FF41FF41FF41FF41D8
:1048E000FF41FF41FF41FF41FF41FF41FF41FF41C8
:1048F000FF41FF41FF41FF41FF41FF41FF41FF41B8
:10490000BF39FF39FF41FF41FF41FF41FF41FF41F7
:10491000FF41FF41FF41FF41FF41FF41FF41FF4197
:10492000FF41FF41FF41FF41FF41FF41FF41FF4187
:10493000FF41FF41FF41BF39FF39FF41FF41FF41C7
:10494000FF41FF41FF41FF41FF41FF41FF41FF4167
:10495000FF41FF41FF41FF41FF41FF41FF41FF4157
:10496000FF41FF41FF41FF41FF41FF39BF39FF4197
:10497000FF41FF41FF41FF41FF41FF41FF41FF4137
:10498000FF41FF41FF41FF41FF41FF41FF41FF4127
:10499000FF41FF41FF41FF41FF41FF41FF41FF4117
:1049A000DF39DF39FF41FF41FF41FF41FF41FF4157
:1049B000FF41FF41FF41FF41FF41FF41FF41FF41F7
:1049C000FF41FF41FF41FF41FF41FF41FF41FF41E7
:1049D000FF41FF41FF41DF39DF39FF41FF41FF4127
:1049E000FF41FF41FF41FF41FF41FF41FF41FF41C7
:1049F000FF41FF41FF41FF41FF41FF41FF41FF41B7
:104A0000FF41FF41FF41FF41FF41FF41BF39FF41EE
:104A1000FF41FF41FF41FF41FF41FF41FF41FF4196
:104A2000FF41FF41FF41FF41FF41FF41FF41FF4186
:104A3000FF41FF41FF41FF41FF41FF41FF41FF4176
:104A4000FF41BF39FF41FF41FF41FF41FF41FF41AE
:104A5000FF41FF417F4A7F4AFF41FF41FF41FF4144
:104A6000FF41FF41FF41FF41FF41FF41FF41FF4146
:104A7000FF41FF41BF39DF39FF41FF41FF41FF41A6
:104A8000FF41FF41FF41FF41FF41FF41FF41FF4126
:104A9000FF41FF41FF41FF41FF41FF41FF41FF4116
:104AA000FF41FF41FF41FF41FF41BF39DF39FF4176
:104AB000FF41FF41FF41FF41FF41FF41FF41FF41F6
:104AC000FF41FF41FF41FF41FF41FF41FF41FF41E6
:104AD000FF41FF41FF41FF41FF41FF41FF41FF41D6
:104AE000BF39FF41FF41FF41FF41FF41FF41FF410E
:104AF000FF41FF41FF41FF41FF41FF41FF41FF41B6
:104B0000FF41FF41FF41FF41FF41FF41FF41FF41A5
:104B1000FF41FF41DF39BF39FF41FF41FF41FF4105
:104B2000FF41FF41FF41FF41FF41FF41FF41FF4185
:104B3000FF41FF41FF41FF41FF41FF41FF41FF4175
:104B4000FF41FF41FF41FF41FF41DF39DF39FF41B5
:104B5000FF41FF41FF41FF41FF41FF41FF41FF4155
:104B6000FF41FF41FF41FF41FF41FF41FF41FF4145
:104B7000FF41FF41FF41FF41FF41FF41FF41FF4135
:104B8000BF39FF39FF41FF41FF41FF41FF41FF4175
:104B9000FF41FF41FF41FF41FF41FF41FF41FF4115
:104BA000FF41FF41FF41FF41FF41FF41FF41FF4105
:104BB000FF41FF41FF41BF39FF39FF41FF41FF4145
:104BC000FF41FF41FF41FF41FF41FF41FF41FF41E5
:104BD000FF41FF41FF41FF41FF41FF41FF41FF41D5
:104BE000FF41FF41FF41FF41FF41FF39BF39FF4115
:104BF000FF41FF41FF41FF41FF41FF41FF41FF41B5
:104C0000FF41FF41FF41FF41FF41FF41FF41FF41A4
:104C1000FF41FF41FF41FF41FF41FF41FF41FF4194
:104C2000DF39DF39FF41FF41FF41FF41FF41FF41D4
:104C3000FF41FF41FF41FF41FF41FF41FF41FF4174
:104C4000FF41FF41FF41FF41FF41FF41FF41FF4164
:104C5000FF41FF41FF41DF39DF39FF41FF41FF41A4
:104C6000FF41FF41FF41FF41FF41FF41FF41FF4144
:104C7000FF41FF41FF41FF41FF41FF41FF41FF4134
:104C8000FF41FF41FF41FF41FF41FF41BF39FF416C
:104C9000FF41FF41FF41FF41FF41FF41FF41FF4114
:104CA000FF41FF41FF41FF41FF41FF41FF41FF4104
:104CB000FF41FF41FF41FF41FF41FF41FF41FF41F4
:104CC000FF41BF39FF41FF41FF41FF41FF41FF412C
:104CD000FF41FF417F4A7F4AFF41FF41FF41FF41C2
:104CE000FF41FF41FF41FF41FF41FF41FF41FF41C4
:104CF000FF41FF41BF39DF39FF41FF41FF41FF4124
:104D0000FF41FF41FF41FF41FF41FF41FF41FF41A3
:104D1000FF41FF41FF41FF41FF41FF41FF41FF4193
:104D2000FF41FF41FF41FF41FF41BF39DF39FF41F3
:104D3000FF41FF41FF41FF41FF41FF41FF41FF4173
:104D4000FF41FF41FF41FF41FF41FF41FF41FF4163
:104D5000FF41FF41FF41FF41FF41FF41FF41FF4153
:104D6000BF39FF41FF41FF41FF41FF41FF41FF418B
:104D7000FF39FF41FF39FF39DF39FF39FF39FF398B
:104D8000DF39FF39FF39FF39FF39FF39FF39FF3983
:104D9000FF41FF41DF39BF39FF41FF41FF41FF4183
:104DA000FF41FF41FF41FF41FF41FF41FF41DF392B
:104DB000DF39DF39DF39DF39FF39FF39DF39DF39F3
:104DC000DF39DF39DF39DF39FF39BF39BF39DF3943
:104DD000DF39DF39DF39FF39FF39FF41FF41FF415B
:104DE000FF41FF41FF41FF41FF41FF41FF41FF41C3
:104DF000FF41FF41FF41FF41FF41FF41FF41FF41B3
:104E0000BF39FF39FF41FF41FF41FF41FF41FF41F2
:104E1000FF41FF41FF41FF41FF41FF41FF41FF4192
:104E2000FF41FF41FF41FF41FF41FF41FF41FF4182
:104E3000FF41FF41FF41BF39FF39FF41FF41FF41C2
:104E4000FF41FF41FF41FF41FF41FF41FF41FF4162
:104E5000FF41FF41FF41FF41FF41FF41FF41FF4152
:104E6000FF41FF41FF41FF41FF41FF39BF39FF4192
:104E7000FF41FF41FF41FF41FF41FF41FF41FF4132
:104E8000FF41FF41FF41FF41FF41FF41FF41FF4122
:104E9000FF41FF41FF41FF41FF41FF41FF41FF4112
:104EA000DF39DF39FF41FF41FF41FF41FF41FF4152
:104EB000FF41FF41FF41FF41FF41FF41FF41FF41F2
:104EC000FF41FF41FF41FF41FF41FF41FF41FF41E2
:104ED000FF41FF41FF41DF39DF39FF41FF41FF4122
:104EE000FF41FF41FF41FF41FF41FF41FF41FF41C2
:104EF000FF41FF41FF41FF41FF41FF41FF41FF41B2
:104F0000FF41FF41FF41FF41FF41FF41BF39FF41E9
:104F1000FF41FF41FF41FF41FF41FF41FF41FF4191
:104F2000FF41FF41FF41FF41FF41FF41FF41FF4181
:104F3000FF41FF41FF41FF41FF41FF41FF41FF4171
:104F4000FF41BF39FF41FF41FF41FF41FF41FF41A9
:104F5000FF41FF417F4A7F4AFF41FF41FF41FF413F
:104F6000FF41FF41FF41FF41FF41FF41FF41FF4141
:104F7000FF41FF41BF39DF39FF41FF41FF41FF41A1
:104F8000FF41FF41FF41FF41FF41FF41FF41FF4121
:104F9000FF41FF41FF41FF41FF41FF41FF41FF4111
:104FA000FF41FF41FF41FF41FF41BF39DF39FF4171
:104FB000FF41FF41FF41FF41FF41FF41FF41FF41F1
:104FC000FF41FF41FF41FF41FF41FF41FF41FF41E1
:104FD000FF41FF41FF41FF41FF41FF41FF41FF39D9
:104FE000BF39FF39FF39FF39FF39DF39DF39DF39A1
:104FF0001F42FF415F4A5F4A9F527F4A5F4A5F4AB2
:105000009F525F4A7F527F4A7F527F4A3F4A3F4AC0
:10501000FF41DF39DF39BF39FF39DF39DF39DF39A8
:10502000FF39DF39DF39DF39DF39DF39FF397F4ACF
:105030001F633F6B1F6B1F6B7F527F523F8C1E9D08
:10504000DAC4D9CC37DC98DC78DC78D43DADDE949A
:10505000DE941F847F4AFF39FF41FF41FF41FF413A
:10506000FF41FF39DF39DF39FF39FF39FF41FF41A8
:10507000FF41FF41FF41FF41FF41FF41FF41FF4130
:10508000BF39FF39FF41FF41FF41FF41FF41FF4170
:10509000FF41FF41FF41FF41FF41FF41FF41FF4110
:1050A000FF41FF41FF41FF41FF41FF41FF41FF4100
:1050B000FF41FF41FF41BF39FF39FF41FF41FF4140
:1050C000FF41FF41FF41FF41FF41FF41FF41FF41E0
:1050D000FF41FF41FF41FF41FF41FF41FF41FF41D0
:1050E000FF41FF41FF41FF41FF41DF39BF39FF4130
:1050F000FF39FF39FF41FF41FF41FF41FF41FF41C0
:10510000FF41FF41FF41FF41FF41FF41FF41FF419F
:10511000FF41FF41FF41FF41FF41FF41FF41FF418F
:10512000DF39DF39FF41FF41FF41FF41FF41FF41CF
:10513000FF41FF41FF41FF41FF41FF41FF41FF416F
:10514000FF41FF41FF41FF41FF41FF41FF41FF415F
:10515000FF41FF41FF41DF39DF39FF41FF41FF419F
:10516000FF41FF41FF41FF41FF41FF41FF41FF413F
:10517000FF41FF41FF41FF41FF41FF41FF41FF412F
:10518000FF41FF41FF41FF41FF41FF41BF39FF4167
:10519000FF41FF41FF41FF41FF41FF41FF41FF410F
:1051A000FF41FF41FF41FF41FF41FF41FF41FF41FF
:1051B000FF41FF41FF41FF41FF41FF41FF41FF41EF
:1051C000FF41BF39FF41FF41FF41FF41FF41FF4127
:1051D000FF41FF417F4A7F4AFF41FF41FF41FF41BD
:1051E000FF41FF41FF41FF41FF41FF41FF41FF41BF
:1051F000FF41FF41BF39DF39FF41FF41FF41FF411F
:10520000FF41FF41FF41FF41FF41FF41FF41FF419E
:10521000FF41FF41FF41FF41FF41FF41FF41FF418E
:10522000FF41FF41FF41FF41FF41BF39DF39FF41EE
:10523000FF41FF41FF41FF41FF41FF41FF41FF416E
:10524000FF41FF41FF41FF41FF41FF41FF41FF415E
:10525000FF41FF41FF41FF41DF39DF39FF415F4A35
:105260001F427F4A3E63DE5A1E631CA53D84D8DC84
:1052700097B4B594B27D30666F668E4E2F66D27548
:105280008E562F66AD4E5066D385306E0F66937D79
:10529000D8DBFE9C5F4A3F421F631E84DC941CA542
:1052A000DF5A7F735F6B3FA517DCFBAC3BCDD6D4D9
:1052B000D7CC706EAF5E5176B48DF2750C4F4B3714
:1052C0008A2F4B472C470C4F506E506EED5EAF66E9
:1052D000AF669076D694B69497AC7F73FF41FF414A
:1052E000FF415F4A7F4A7F4A5F4A3F42FF41FF4199
:1052F000FF41FF41FF41FF41FF41FF41FF41FF41AE
:10530000BF39FF39FF41FF41FF41FF41FF41FF41ED
:10531000FF41FF41FF41FF41FF41FF41FF41FF418D
:10532000FF41FF41FF41FF41FF41FF41FF41FF417D
:10533000FF41FF41FF41BF39FF39FF41FF41FF41BD
:10534000FF41FF41FF41FF41FF41FF41FF41FF415D
:10535000FF41FF39DF39FF39FF41FF41FF41FF4185
:10536000FF41DF39DF39DF39FF393F4ABF39FF41BC
:105370003F4AFF39DF39FF39FF41FF41FF41FF411C
:10538000FF41FF41FF41FF41FF41FF41FF41FF411D
:10539000FF41FF41FF41FF41FF41FF41FF41FF410D
:1053A000DF39DF39FF41FF39DF39DF39DF39DF39F5
:1053B000FF41FF41FF41FF41FF41FF41FF41FF41ED
:1053C000FF41FF41FF41FF41FF41FF41FF41FF41DD
:1053D000FF41FF41FF41DF39DF39FF41FF41FF411D
:1053E000FF41FF41FF41FF41FF41FF41FF41FF41BD
:1053F000FF41FF41FF41FF41FF41FF41FF41FF41AD
:10540000FF41FF41FF41FF41FF41FF41BF39FF41E4
:10541000FF41FF41FF41FF41FF41FF41FF41FF418C
:10542000FF41FF41FF41FF41FF41FF41FF41FF417C
:10543000FF41FF41FF41FF41FF41FF41FF41FF416C
:10544000FF41BF39FF41FF41FF41FF41FF41FF41A4
:10545000FF41FF417F4A7F4AFF41FF41FF41FF413A
:10546000FF41FF41FF41FF41FF41FF41FF41FF413C
:10547000FF41FF41BF39DF39FF41FF41FF41FF419C
:10548000FF41FF41FF41FF41FF41FF41FF41FF411C
:10549000FF41FF41FF41FF41FF41FF41FF41FF410C
:1054A000FF41FF41FF41FF41FF41BF39DF39FF416C
:1054B000FF41FF41FF41FF41FF41FF41FF41FF41EC
:1054C000FF41FF41FF41FF41FF41FF41FF41FF39E4
:1054D000FF39FF41FF41DF39BF5298D4B9CC3F8437
:1054E0009BDD95D4F59C93853286CD5E8F66EC5618
:1054F0002B3F8F661176358D4F5E8927692F692F77
:10550000692F8927C827A92FEC463066D275569C8B
:1055100038DCFAC4D7D3AD4ECE56CE5E6B37A92752
:105520008E568E560C47ED564B3F89274A370C470F
:105530006E5E0B37492F4A2F692F692F4A2F2B3761
:105540002A372A37492F0B3F6F5E8E560C47EC46A1
:105550006F6E5176106E6F66F385F6D3F58C368CD0
:1055600036948E5EAD56306EDAD31F84FF41FF4114
:10557000FF41FF41FF41FF41FF41FF41FF41FF412B
:10558000BF39FF39FF41FF41FF41FF41FF41FF416B
:10559000FF41FF41FF39DF39DF39DF39FF39FF399B
:1055A000DF39DF39FF39DF39DF39FF39FF39FF41B3
:1055B000FF41FF41FF41BF39FF39FF41FF41FF413B
:1055C000FF41FF41FF41FF41FF41FF41FF41FF41DB
:1055D000FF417F4ABF527F52FF41FF39FF39FF41F0
:1055E000FF417F73DF9CBFC5DF9CFF5A3F4ABF521C
:1055F000BF7BFF9CFE7B3F4AFF39FF41FF41FF41DC
:10560000FF41FF41FF41FF41FF41FF39FF411F4281
:10561000FF41FF41FF41FF41FF41FF41FF41FF418A
:10562000DF39FF41DF393F421D84FCA41CA5FE5A2F
:10563000FF41FF39FF41FF41FF41FF41FF41FF4172
:10564000FF41FF41FF41FF41FF41FF41FF41FF415A
:10565000FF41FF41FF41DF39DF39FF41FF41FF419A
:10566000FF41FF41FF41FF41FF41FF41FF41FF413A
:10567000FF41FF41FF41FF41FF41FF41FF41FF412A
:10568000FF41FF41FF41FF41FF41FF41BF39FF4162
:10569000FF41FF41FF41FF41FF41FF41FF41FF410A
:1056A000FF41FF41FF41FF41FF41FF41FF41FF41FA
:1056B000FF41FF41FF41FF41FF41FF41FF41FF41EA
:1056C000FF41BF39FF41FF41FF41FF41FF41FF4122
:1056D000FF41FF417F4A7F4AFF41FF41FF41FF41B8
:1056E000FF41FF41FF41FF41FF41FF41FF41FF41BA
:1056F000FF41FF41BF39DF39FF41FF41FF41FF411A
:10570000FF41FF41FF41FF41FF41FF41FF41FF4199
:10571000FF41FF41FF41FF41FF41FF41FF41FF4189
:10572000FF41FF41FF41FF41FF41BF39DF39FF41E9
:10573000FF41FF41FF41FF41FF39DF39DF39FF41C1
:10574000FF41FF41FF41FF39FF41DF39DF391F4290
:105750007F4ADF39FF391F42F8DBE7276A372F66B8
:10576000927D758C1CA57EB5F4953276759DB4A599
:105770005176506E316E5066ED46A82F2B47ED46A0
:10578000EC46D8ABDC941E637F73B8DCF7D3B385EB
:105790004A378A2F492F4A2F4A2F2A372A372A3742
:1057A0004A2F4A2F2A374A2F2B372A372A372B37A7
:1057B0002A372A372A372A372A372A372A372A37E1
:1057C0002A372A372A372A37692F2A372B372B3798
:1057D0002A37492F492FED4EEC3E8927ED56728628
:1057E000D59D77E4DE7B5F4A1F42DF39FF41FF41F1
:1057F000FF41FF41FF41FF41FF41FF41FF41FF41A9
:10580000BF39FF39FF41FF41FF41FF41FF41FF41E8
:10581000FF41FF395F4ADF5A1F637F523F4A3E63B1
:105820007E8C1EA557DC3BC53BBD369C98D41F42E1
:10583000FF39FF41FF41BF39FF39FF413F4AFF4177
:10584000FF41FF41FF41FF41FF41FF41FF41FF3960
:105850001F429F73DF9C3F6B1F427F529F527F52BC
:105860003F4AFF5A7F945FADBF731F631F421F42C1
:105870003F427F6B3F631F42FF41FF41FF41FF41BA
:10588000FF41FF41FF41FF411F425F4AFF411F426D
:10589000FF41FF41FF41FF41FF41FF41FF41FF4108
:1058A000DF39DF39DF9CD7CCCF664C4F6B47317681
:1058B0001DA51F42DF39FF41FF41DF39FF39FF419D
:1058C000FF41FF41FF41FF41FF41FF41FF41FF41D8
:1058D000FF41FF41FF41DF39DF39FF41FF41FF4118
:1058E000FF41FF41FF41FF41FF41FF41FF41FF41B8
:1058F000FF41FF41FF41FF41FF41FF41FF41FF41A8
:10590000FF41FF41FF41FF41FF41FF41BF39FF41DF
:10591000FF41FF41FF41FF41FF41FF41FF41FF4187
:10592000FF41FF41FF41FF41FF41FF41FF41FF4177
:10593000FF41FF41FF41FF41FF41FF41FF41FF4167
:10594000FF41BF39FF41FF41FF41FF41FF41FF419F
:10595000FF41FF417F4A7F4AFF41FF41FF41FF4135
:10596000FF41FF41FF41FF41FF41FF41FF41FF4137
:10597000FF41FF41BF39DF39FF41FF41FF41FF4197
:10598000FF41FF41FF41FF41FF41FF41FF41FF4117
:10599000FF41FF41FF41FF41FF41FF41FF41FF4107
:1059A000FF41FF41FF41FF41FF41BF39DF39FF396F
:1059B000FF39FF41DF391F42BF521F63FF5AFF39D2
:1059C000FF41FF41FF399E73F9C399CCFAB49D732F
:1059D0003F42DF5AFE5A7F6B5DB59495CE664C47C9
:1059E000A92FE71F2F66D59C969D327EAE5E706E06
:1059F000CD4E2A370B47D385F7D3BD943E847F73B2
:105A0000BE73DF5A3E631BAD7ADB7AC3158DEC465D
:105A10004A2F2A372A372A372A372A372A372A3766
:105A20002A372A372A372A372A372A372A372A376E
:105A30002A372A372A372A372A372A372A372A375E
:105A40002A372A372A372A372A372A372A372A374E
:105A50002A372A372A372A372A37CC46368CBF943A
:105A60001F6BFF41DF39DF39FF41FF41FF41FF413C
:105A7000FF41FF41FF41FF41FF41FF41FF41FF4126
:105A8000BF39FF39FF41FF41FF41FF41FF41FF4166
:105A9000FF41FF391DA54F66AE5E50663595948D6A
:105AA0004B3F3176D7A497E45DAD98DBBD73FF39EA
:105AB0001F42FF41BF52FF41FF39FF41FF41FF41FC
:105AC000FF41FF41FF41FF41FF41FF41FF41FF41D6
:105AD000FF41DF39DF39FF39FF393F4A3F4AFF4194
