:100000000C9434000C9451000C9451000C94510049
:100010000C9451000C9451000C9451000C9451001C
:100020000C9451000C9451000C9451000C9451000C
:100030000C9451000C9451000C9451000C945100FC
:100040000C9451000C9451000C9451000C945100EC
:100050000C9451000C9451000C9451000C945100DC
:100060000C9451000C94510011241FBECFEFD8E026
:10007000DEBFCDBF11E0A0E0B1E0E6E0FAE002C0F3
:1000800005900D92AE35B107D9F711E0AEE5B1E0BC
:1000900001C01D92A436B107E1F70E947C010C94C7
:1000A00001050C940000BC018091B9008E7F809303
:1000B000B9008091B9008D7F8093B90080EA9FE0FC
:1000C0000E94B604603130F0862F90E040979595FD
:1000D0008795682F6093B800089584E690E00E94A9
:1000E0005300ECEBF0E080818460808308953C9ABB
:1000F00084EA8093BC00089584E98093BC0008954D
:10010000882329F08091BC008F70806C04C080919E
:10011000BC008F7080688093BC0008958091BB0004
:1001200008958091B90008958FEF84B987B98AB98D
:1001300080E388B91092C50087E68093C40088E107
:100140008093C100E0ECF0E0808122E08227808390
:1001500080E591E0909361018093600125BD089551
:100160009C01220F331F81E006C085BB16BCA89BF3
:10017000FECF2050314091E021303907B0F781E0C7
:1001800085BB822F819586BDA89BFECF0895CF9316
:10019000DF93EC0111C08AEF90E00E94B0008AEF7B
:1001A00090E00E94B0008AEF90E00E94B0008AEFD9
:1001B00090E00E94B0002197209769F7DF91CF91DE
:1001C00008951F93182F81E090E00E94C7003C9A89
:1001D0001093BB0084E88093BC001F9108951F9387
:1001E000182F8A3019F48DE00E94EF008091C00032
:1001F00085FFFCCF1093C60080E090E01F9108952A
:1002000020E030E002C02F5F3F4F8091BC0087FFAD
:1002100004C02935310544F003C02A35310599F76A
:1002200080E091E00E94040208950F931F933C9A8E
:100230000CEB10E084EAF80180830E9400018CE35B
:100240000E94E1000E94000182E00E94E1000E9401
:10025000000180E00E94E1000E94000184E9F801B1
:1002600080831F910F910895DF92EF92FF920F9379
:100270001F93082F3C9A5CEBE52EF12C14EAF70152
:1002800010830E9400018CE30E94E1000E940001A3
:10029000802F0E94E1000E9400013C9AF701108328
:1002A0008DE30E94E1000E940001F70180818F70C0
:1002B000806C80830E9400010BEB10E0F801D0807D
:1002C0000E940001F70180818F70806880830E9406
:1002D0000001F80100810E94000184E9F701808398
:1002E0009D2D80E010E0082B192BC8011F910F9164
:1002F000FF90EF90DF900895EF92FF920F931F937E
:10030000CF93DF938FEF84B987B98AB980E388B937
:100310001092C50087E68093C40088E18093C100F5
:100320008091C00022E082278093C00080E591E0A8
:10033000909361018093600125BD0E946D0083E16F
:1003400091E00E9404020E941501C3E2D1E083E023
:100350000E9434017C0185E00E9434018C0187E019
:100360000E9434012DB73EB7285030400FB6F894A4
:100370003EBF0FBE2DBFEDB7FEB73196ADB7BEB7CE
:100380001296DC93CE931197F382E2821583048355
:10039000978386830E94EF018091C000EDB7FEB77E
:1003A00038960FB6F894FEBF0FBEEDBF87FF04C0AE
:1003B0008091C600883729F084E690E00E94C7004B
:1003C000C6CF00D08BE391E0ADB7BEB712969C9339
:1003D0008E9311970E94EF010F900F90FFCFA0E036
:1003E000B0E0E5EFF1E00C94DA04FE01359661919E
:1003F00071918091600190916101AF010E94390279
:100400002096E2E00C94F6040F931F93CF93DF93B2
:100410008C01E0916001F0916101838181FF21C035
:10042000C0E0D0E00DC0E0916001F0916101208555
:100430003185BF01F9010995892B11F0CFEFDFEF6D
:10044000F80181918F01882371F7E0916001F091AB
:100450006101208531858AE0BF01F9010995892B69
:1004600011F0CFEFDFEFCE01DF91CF911F910F9110
:100470000895ABE0B0E0EFE3F2E00C94CA043C0175
:100480002B015A01FC0117821682838181FD03C072
:100490006FEF7FEFC6C19AE0892E1E010894211CE0
:1004A000311CF3012381F20123FD859123FF81910A
:1004B0002F01882309F4B2C1853239F423FD8591D7
:1004C00023FF81912F01853229F490E0B3010E942E
:1004D0002C04E7CF982FFF24EE249924FFE1FF1589
:1004E000D0F09B3269F09C3228F4903259F093326C
:1004F00091F40EC09D3249F0903369F441E024C07C
:1005000052E0F52A84E0F82A28C098E0F92A25C0AC
:10051000E0E1FE2A22C0F7FC29C0892F80538A30EF
:1005200070F4F6FE05C0989C902C1124980E15C00E
:10053000E89CE02C1124E80EF0E2FF2A0EC09E3267
:1005400029F4F6FC6BC140E4F42A07C09C3619F488
:1005500050E8F52A02C0983649F4F20123FD95913E
:1005600023FF91912F01992309F0B8CF892F85544A
:10057000833018F08052833038F444E050E0A40E09
:10058000B51E5FE359830FC0933631F0933779F08E
:10059000933509F056C020C0F5018081898342E07F
:1005A00050E0A40EB51E610101E010E012C0F5019B
:1005B000C080D180F6FC03C06FEF7FEF02C0692DD1
:1005C00070E042E050E0A40EB51EC6010E94210476
:1005D0008C015FE7F52214C0F501C080D180F6FCE4
:1005E00003C06FEF7FEF02C0692D70E042E050E082
:1005F000A40EB51EC6010E9416048C0150E8F52A0F
:10060000F3FE07C01AC080E290E0B3010E942C0400
:10061000EA948E2D90E008171907A8F30EC0F60192
:10062000F7FC8591F7FE81916F0190E0B3010E9484
:100630002C04E110EA94015010400115110579F7DE
:10064000EAC0943611F0993669F5F7FE08C0F50155
:10065000208131814281538184E090E00AC0F5011C
:10066000808191819C01442737FD4095542F82E081
:1006700090E0A80EB91E9FE6F92257FF09C05095D9
:100680004095309521953F4F4F4F5F4FE0E8FE2A50
:10069000CA01B901A1012AE030E00E945804D82E15
:1006A000D21840C0953729F41F2D1F7E2AE030E074
:1006B0001DC01F2D197F9F3661F0903720F49835AB
:1006C00009F0ACC00FC0903739F0983709F0A6C0D8
:1006D00004C028E030E00AC0106114FD146020E17D
:1006E00030E004C014FD166020E132E017FF08C0BE
:1006F000F501608171818281938144E050E008C0FE
:10070000F50180819181BC0180E090E042E050E001
:10071000A40EB51EA1010E945804D82ED2188FE74E
:10072000F82EF122F6FE0BC05EEFF522D91438F454
:10073000F4FE07C0F2FC05C08FEEF82202C01D2DAA
:1007400001C0192DF4FE0DC0FE01ED0DF11D8081DB
:10075000803319F499EEF92208C01F5FF2FE05C03C
:1007600003C08F2D867809F01F5F0F2DF3FC14C096
:10077000F0FE0FC01E1510F09D2C0BC09D2C9E0C82
:10078000911A1E2D06C080E290E0B3010E942C0455
:100790001F5F1E15C0F304C01E1510F4E11A01C03E
:1007A000EE2404FF0FC080E390E0B3010E942C040C
:1007B00002FF1DC001FD03C088E790E00EC088E580
:1007C00090E00BC0802F867891F001FF02C08BE291
:1007D00001C080E2F7FC8DE290E0B3010E942C049E
:1007E00006C080E390E0B3010E942C049A94D914CF
:1007F000C0F3DA94F101ED0DF11D808190E0B301B9
:100800000E942C04DD20A9F706C080E290E0B3012D
:100810000E942C04EA94EE20C1F743CEF3016681D6
:100820007781CB012B96E2E10C94E604FC01059064
:10083000615070400110D8F7809590958E0F9F1FE2
:100840000895FC016150704001900110D8F7809527
:1008500090958E0F9F1F08950F931F93CF93DF9353
:100860008C01EB018B8181FF1BC082FF0DC02E81AB
:100870003F818C819D812817390764F4E881F981D3
:100880000193F983E88306C0E885F985802F0995EF
:10089000892B31F48E819F8101969F838E8302C0C4
:1008A0000FEF1FEFC801DF91CF911F910F910895B6
:1008B000FA01AA27283051F1203181F1E8946F9391
:1008C0006E7F6E5F7F4F8F4F9F4FAF4FB1E03ED037
:1008D000B4E03CD0670F781F891F9A1FA11D680FD5
:1008E000791F8A1F911DA11D6A0F711D811D911D08
:1008F000A11D20D009F468943F912AE0269F11247D
:100900003019305D3193DEF6CF010895462F4770E0
:10091000405D4193B3E00FD0C9F7F6CF462F4F703B
:10092000405D4A3318F0495D31FD4052419302D099
:10093000A9F7EACFB4E0A69597958795779567953F
:10094000BA95C9F700976105710508959B01AC013F
:100950000A2E06945795479537952795BA95C9F766
:10096000620F731F841F951FA01D0895AA1BBB1B38
:1009700051E107C0AA1FBB1FA617B70710F0A61B9F
:10098000B70B881F991F5A95A9F780959095BC01C0
:10099000CD0108952F923F924F925F926F927F9276
:1009A0008F929F92AF92BF92CF92DF92EF92FF927F
:1009B0000F931F93CF93DF93CDB7DEB7CA1BDB0B2B
:1009C0000FB6F894DEBF0FBECDBF09942A883988D0
:1009D00048885F846E847D848C849B84AA84B984D7
:1009E000C884DF80EE80FD800C811B81AA81B981E3
:1009F000CE0FD11D0FB6F894DEBF0FBECDBFED01F7
:060A00000895F894FFCFF9
:100A0600636F6D706C6574652074696D6564206FC5
:100A1600757400484D4335383433204578616D7020
:100A26006C6500783D253034642C20793D253034C2
:100A3600642C207A3D253034640A00596F75277678
:100A46006520676F6E6520746F6F20666172210086
:0E0A56000000000200000000EF0000000000A1
:00000001FF
